:100000000C94FA050C9422060C9422060C942206F9
:100010000C9422060C9422060C9422060C942206C0
:100020000C9422060C9422060C9422060C942206B0
:100030000C9422060C9422060C9422060C942206A0
:100040000C94F3250C9422060C9459270C949C27AD
:100050000C9422060C9422060C9422060C94220680
:100060000C94EC0D0C942206E408FD0AFD0AFD0A2E
:10007000FD0AFD0AFD0AFD0AFD0AE1080D09100945
:10008000EF08F208F508F808FB08FE080109040962
:1000900007090A093E09FD0AFD0AFD0AFD0AFD0AD3
:1000A000FD0AFD0AFD0AD609EF09030A140A250A0A
:1000B000360A430A5D0A770A820A900A9E0AA90A4A
:1000C000542368237E239A23BE23E7231024E722A8
:1000D0000F2336235F2479243E2342235C2372239B
:1000E0008E23AC23DB23D92429243E242A234D2428
:1000F000E82408000000BE922449123EABAAAA2AB6
:10010000BECDCCCC4C3E00000080BEABAAAAAA3E1D
:1001100000000000BF000000803F00000000000859
:100120004178D3BB4387D1133D190E3CC3BD4282F6
:10013000AD2B3E68EC8276BED98FE1A93E4C80EFB4
:10014000FFBE01C4FF7F3F0000000000076342368E
:10015000B79BD8A71A39685618AEBAAB558C1D3C58
:10016000B7CC5763BD6DEDFD753EF6177231BF001C
:100170000000803F29204572726F723A204241444C
:100180005F56414C5545007365745F7761766566CF
:100190006F726D5F766F6C7461676528000108107F
:1001A00001559F020555BFD404078A059F062FE518
:1001B00008350F0A2B076A1311B27B6ADBB98C175B
:1001C000596D101025D4EDB24C326A56F9DA591136
:1001D0002F570ECA4C14181F7923611B2D25351378
:1001E000D58322324A172720952037253E2067EDF8
:1001F0003AB21C4D9E1D8A3B412BDBEFB7DA1F2321
:100200001D273C5EB14C4B6B263FA92630284F97EB
:10021000AA3BC9F259463121AA49895A4567CD57A7
:10022000316D5978745F82815E59F933CAC79F6610
:1002300092402995304089FB3B4A3E534CB92B32C2
:10024000428B8A3DB13B9E6B979A7546CE433A49A5
:1002500073693B8241AC70379132876347DA344926
:10026000B9B27C3E734E3CD659839D616698929696
:10027000813DB73D4F45D1957798DF67AF50957D6C
:10028000DEDF3A56A5765CDEC2F2737B48495E55E6
:100290004B42B3E66849DF74C5C156EAC167D7640B
:1002A000655F4F62D161D85FF650ABE8C6B6C382D6
:1002B0005F888E5E62B2E54BADB1B7B459C7A76730
:1002C000B977C0808580577BDD75594FB4FB948921
:1002D000774EA1A77594657CE1F29B98A97772ACE3
:1002E000746761847B96EB8AA7C9C48975766F9E13
:1002F0008CCA85909E6F81EA898C76676F7D666176
:10030000689B59DD8C73AA768B82776390AC8AF5F3
:10031000B0DDB59179EF7087FBB7CFABFBEDA1FDF9
:1003200096926C86688C93FDD37C6773A8A3D1FDED
:10033000BB789D839385C8DBD1C279AC8881BCB67C
:100340008A96EF916CD19EB1EADF87ADCE8A6FD1EC
:100350009EBA9375F79880DF808988877BB28695EF
:10036000EBB77982809BAFFBB3ACC6FBDAECA7A1FD
:10037000A486D27D98DB9BF9A57BE4D3C79293BC7E
:10038000EEB5EFA7DA849DB3998B81D0ABD89EB739
:1003900082E8F5A292B1D697A7EAF7A895CE9798EA
:1003A000F8A09EA3EAE4858CAFE9DDDC8BC2BED069
:1003B0009DB2DC9BDAEBFBC88DF7B5AEC3E5A9C3F4
:1003C000B793D1B8C7ACD0F8F0BBE3A5BCB2A99C39
:1003D000ED96DBC9CEF9EEB796B4ABB2AAC7D4DCC2
:1003E000EFE5D897AAA5C9C0D4D2EAF2DDC098AE8D
:1003F000C5F6D4ACE4A3FDB2BBEDD1B4D4FBF5EBB0
:10040000B39BC0EE9DBFB9F1CEA7A8CFC6BCBFCAF3
:10041000D4D1A8E1D2A6A7BFDFDDD4C3B7BFA7B7A9
:10042000BFACC8E8D4CFDFC2ABD9DEF6BFBBD4AF18
:10043000F5E4CAF9BDC9B7D8D4B1F3B6DDB5BAD1C0
:10044000B9E1D4E9DAAFB9E3C9C3B1ABD4DEDBAC0F
:10045000FBEAD9FFDEB1D5ECCAD8B3DEE4B3C2CC37
:10046000D6C2BBFFF3B8B9FFB8CED8B3E8E6F0B454
:10047000DDECEAB5EDE4E1EEB7C6E0D8ECF5F4CC9E
:10048000F6C4F8E5F6D6CDF7D4F9E6F2DDEFC1E033
:10049000E9F9E3FBC1C6E1CFC2E4FCFBC7EDD0C381
:1004A000E4FDEAF0CFCBFCD8C3D3FCD0EDFDD9EE10
:1004B000D4F2D1D3D6F8D3F5D8E6D4ECF3D3CFEB3E
:1004C000F9FDEEF4E5FDD9E9CBD1ECE0D7D2DDFAC8
:1004D000FEDBE0D1F0DDE4F2F8E0D8F1D5F6FBDCAC
:1004E000D1F5FBF0ECF5DCF9E5DBFBE1DADDF2F967
:1004F000DBDEF1E7FEDFF0F8FEF3EFF8F6F2E8DE20
:10050000FEE4FAF8E2E6FAE1FEEFDFF7E5DEE0E32B
:10051000E7FCF9F6F2E0E3F6EBFCE4F6E0E3E5E90C
:10052000E1E4F8EBFEE5E8F3FEFBE9FFFEFBF7E4B0
:10053000E5FBF7E5FEFBF6E6FEFBF5FFE8ECFFFF6B
:10054000E9EDE9E9EAEEEAEAFEFAFFFFECF9FFFF7E
:10055000EDF2EDEDEEF5FFFFFEFFFFFFF0F0F0F046
:10056000F1FFFFFFFEF2F2F2FEF3F3F3F4FFFFFF01
:10057000F5FFFFFFFEFFFFFFF7F7F7F7FEF8F8F8CC
:10058000F9FFFFFFFEFAFAFAFBFBFBFBFEFFFFFFA2
:10059000FDFDFDFDFEFEFEFEFFFFFFFFFF01080863
:1005A000BF0302BF59060303AF6D06B206AA1705C3
:1005B0009718598C22DA0F57650A0F12090B0F5E34
:1005C00019159397430C0B0F24381B220C0E23BBD9
:1005D0004526F1112EB297771F6D2892596E4EDD88
:1005E000142181593DC7779320975986519F321620
:1005F0005B1EC14723C1296159881B19211CC7B241
:10060000D9A36B452557593FB36D29B893B25B30D9
:100610002B7D251F556D9DEB2E6C3A59754F285F2C
:10062000AA4D5F474A5B43445E6424B12D2E3A5B7A
:100630004093E740C8974727A786A1798537EECE34
:100640009D4B4CAD3CB5446548475E9E36A7C29B6A
:10065000636DC359B34469D752EF597AAB38ECA9EB
:10066000434665CB6EA3D53C9163538781575B5955
:1006700068DD4ADFADC7425D755C3F8951B260738A
:100680004141FBAA597DA1434D3E837BD3D1A3B504
:10069000CEEB574497D847895153BB45549E4CA441
:1006A000A3AED2AA50AD4EB245D5644A575F598623
:1006B000B8817CBCB5644EEF68666365CD5C6EB393
:1006C000649C61928D93D99A56A3D7F36B4D838E18
:1006D000A4FB7A76A986C5A15953828578ABB377F6
:1006E000B1C8D59DA98B59987E696C9BB6B5C18858
:1006F0009A6BA3978AC5AA5EA19EBCD8C9B3DCE851
:10070000D992FF67A3C787C3A6B2C3EBA288AA602A
:10071000866B83A4C564D6B26084758E6167986168
:10072000A4A9E5B9EFB2AA6377CBF5DC979C7A650B
:1007300089D6A4C5B0C382777D87D999C2CD8D9261
:10074000C1B270B9F981AB99747ACA9E85C7F88431
:10075000AF95BDEE71B8DB7EDCCED0D2E7A0D5C0C0
:100760007A9DEEDEE2BBA674A3AA9475877DB1B82C
:10077000B5DE8EEFC589C279B7F6859099D1D0A341
:1007800081AA81B98EEBC6AECCE1F397B892C8AD21
:10079000F48982C5DBB596D5C18A83C1DA9ED8D7E4
:1007A00084CDD0CA8D91F9EDBE8F9798F1ADB1A2ED
:1007B000D7BE9ADB9C9188ABF38BBEC6B197CDB206
:1007C000BEEDA7BEB0CCA98E93BD9CD7BDC8D3E566
:1007D00097EFA4B3AF9198C6F2CAD5CDD7B8ADA75D
:1007E0009AA1ABF5DAE1B9C2B0B2A09BAAC4F8D91C
:1007F000C09AB3DDA7EA97D7CDA2B8D6B69A9EA580
:10080000D9FBCBA4F9CDD4A3BFECEBBFC8D3D0C5E3
:10081000BCBFEEB2BFF2F1D3B5B7BFD0DED5F4DFC7
:10082000D6EECDB1C2C7B9D5F2BFBBA9DADFC5EFED
:10083000ABB8D0A9DFD2E7C4C8F0AFEAC1ECE6CDCF
:10084000E8BFCBB9C6F7EABFD8DFF6FFCEC5C8FF11
:10085000AFBCCBADC7FAD0BCDCCEF9C9C4FAE7DC7B
:10086000D2E8F1B1BAF6F5B2F7DDD3FFC5C7BFFFE5
:10087000D0C3C5FFC3CBCEC3FEEBD0D8C6BFC0E646
:10088000BFF0BECEC0DDE7C0E0BFCFC5D8C8F8D648
:10089000CEC1D4C0FAF4D7EAFAD5C1C2F5CEEBFB8B
:1008A000D7C2D2CDEEF3C4E5FEEBC5EFD2C5E6D29A
:1008B000ECCFF0EEEBCBEFCEEADCEFD7D1F1F6D90F
:1008C000CDCAD7D2E0CBEDDDFEF7DBE7F1F7EBD019
:1008D000CDEEE9FADAEDE6D9D4EBF4DBF8D7D3F1D3
:1008E000FED9D4DEE2DAF3D7EAF5D6EFF7F4DFD9B2
:1008F000F7F4E1EBD6F4E3DCD7E1E5DDDFE3EDF897
:10090000D9F2DDDFF5F1DEF7DBE9FAE2F4FCFAF724
:10091000F3DFE2E5E9FCF9E6F1E1F9E7FEFBF9F5E1
:10092000FEFBE7F4E2FBF8EDE3E6F8E3E4E7EBFFD8
:10093000FEE8ECFFE6E9EEFFE7EAF0E7FEFAE8E8BA
:10094000FEFAFFFFFEFAFFFFEBEFEBEBFEF1ECEC44
:10095000FEF9FFFFFEF7EEEEEFEFEFEFFEFFFFFF1A
:10096000FEF1F1F1F2FFFFFFF3FFFFFFFEF4F4F4FD
:10097000FEF5F5F5F6F6F6F6FEFFFFFFF8FFFFFFD2
:10098000FEF9F9F9FAFFFFFFFEFFFFFFFCFCFCFC9C
:10099000FFFFFFFFFFFFFFFFFFFFFFFFFFFFFFFF67
:1009A000FFFBF6F2E3E9DCD6F1C3F6ECE0F6C3ECCC
:1009B000FBBCF7FBA180A3D6E17AE2A16B868B7228
:1009C0008A86837B8B83599B669EA16256997C683D
:1009D0008B6B494B4E5A56795A4662665467473775
:1009E000544F5658464A384B653752323B4740358C
:1009F00042322D2549372B3C44292E28313F38409F
:100A000037352B3F2B3F291F27202B25281A192547
:100A100026262E292B1C171A2D19161827152423C4
:100A200020162319181C131F10151A11121010105C
:100A3000150F160E160F11170E141310150F121393
:100A40000A10110F090E120C0F100E0F0A090B09D4
:100A5000070C070A0E0D0D0E0E09060909070608F8
:100A6000090A07070B0A0A07090907070806060605
:100A7000070404040607070505050407070707041C
:100A80000406060404040405040404040404040322
:100A900003030303030303020202030303FFFFFF35
:100AA000FFFBF7F2F9EAEFEDCBF2B9BABDA6CAA1A6
:100AB00092BC8A83C5EFB5857AD97199DEAB9FBBAD
:100AC000959492968083BA67975E598D9B54647310
:100AD0005368938A806B6C4A6077524C5946627AAD
:100AE0004D4F464250495D433055375747393D4792
:100AF00037464B582B37442F2840373D3024272189
:100B000025252C1D291B2833272E21252131312075
:100B10001E1D171917222822132124201322131314
:100B2000141C111717131B101E161119171918175B
:100B300011170F170E14110C130D0D0F0B0F0C0BBB
:100B4000140C0B0C130C090D0A090A090D0E0B0DE0
:100B500010090F0A0707070606090D08080A0B08FF
:100B60000706080805050507050506060506060625
:100B70000508080805040405050506030303030525
:100B8000050303040404040303030303030303032F
:100B9000030303030303030404040202020000002E
:100BA000070002010000030406000000000000002E
:100BB00000010204081020408001020408102001F6
:100BC00002040810200404040404040404020202C1
:100BD00002020203030303030300000000250028B0
:100BE000002B0000000000240027002A00000F084E
:100BF000FC0C582811241FBECFEFD8E0DEBFCDBFBC
:100C000015E0A0E0B1E0E4E5FEE502C005900D923C
:100C1000A034B107D9F717E0A0E4B5E001C01D92F8
:100C2000A53FB107E1F71BE0C4EFDBE004C022976A
:100C3000FE010E94A22ECE3ED107C9F70E94450BAD
:100C40000C94282F0C940000DC011296ED91FC917D
:100C500013978189882311F085E6089580E008952F
:100C6000DC011296ED91FC91139780890895DC01C7
:100C70001296ED91FC911397848995890895DC0172
:100C800014968D919C911597DC01ED91FC91048057
:100C9000F581E02D09940895FC01828193810C94E3
:100CA0008322FC0182819381FC01758B648B0C94FF
:100CB00083220F931F93CF93DF93FA01C081D181D9
:100CC000FC01048115810031110540F4A801BE0129
:100CD0000E94541A882311F0088B02C0188A80E001
:100CE000DF91CF911F910F910895EF92FF920F9393
:100CF0001F93CF93DF931F92CDB7DEB78C01DC013A
:100D0000ED91FC910190F081E02D0995811145C094
:100D1000D801ED91FC910280F381E02DC801099585
:100D200081113BC0E12CF12CF80184819581DC011B
:100D3000ED91FC910480F581E02D099518161906B6
:100D400054F5F80184819581DC01ED91FC910680D8
:100D5000F781E02D09958983BE016F5F7F4FF80110
:100D6000828193810E949E22FFEFEF1AFF0AD80131
:100D7000ED91FC910190F081E02DC8010995811160
:100D80000AC0D801ED91FC910280F381E02DC801E9
:100D90000995882349F2C70102C080E090E00F90D6
:100DA000DF91CF911F910F91FF90EF9008950F93D6
:100DB0001F93CF93DF93EC0100E010E08C819D81C5
:100DC000DC01ED91FC910480F581E02D0995181668
:100DD0001906B4F5CE010E947506080F191FE881A7
:100DE000F9810280F381E02DCE010995E881F98136
:100DF000882351F0AA81BB8154966D917C915597BF
:100E00000088F189E02D12C00190F081E02DCE0123
:100E10000995882399F2E881F981AA81BB815496CA
:100E20006D917C9155970684F785E02DCE0109954B
:100E3000E881F9810480F581E02DCE010995BECFCE
:100E4000C801DF91CF911F910F910895CF93DF9348
:100E500087EB95E00E94701268E67BE087E396E0FE
:100E60000E94F20C6FE87BE087E396E00E94F70CAB
:100E70008CE08093B800C8E1D0E0D0930006C09326
:100E8000FF0587E096E0909302068093010640E01C
:100E900052EC61E070E087E497E00E94D727D0939E
:100EA0007205C09371058FE196E09093740580936D
:100EB00073058CE695E090936105809360058CE462
:100EC00095E0DF91CF910C9483220F931F93CF93E2
:100ED000DF93EC018B01E881F9816F5F7F4F028026
:100EE000F381E02D41E050E00995E881F98102802D
:100EF000F381E02D41E050E0B801CE01DF91CF91C8
:100F00001F910F910994DC01ED91FC910280F38116
:100F1000E02D41E050E00994EF92FF920F931F9370
:100F2000CF93DF93CDB7DEB761970FB6F894DEBFEE
:100F30000FBECDBF8C018BE0FB01DE01119601904D
:100F40000D928A95E1F71B861A86E12CF12C2C81F3
:100F50003D818A859B85E216F30668F4E885F9856C
:100F6000EE0DFF1D60810E946A229B878A878FEFAA
:100F7000E81AF80AECCF0E9482229B878A874CE706
:100F80005CE76CE770E04C875D876E877F87D801F0
:100F9000ED91FC910280F381E02D43E050E0BE0131
:100FA000645F7F4FC8010995BE016F5F7F4FC80125
:100FB0000E9465078B81898BBE016F5E7F4FC801E0
:100FC0000E94830789898436E9F48C81888BBE016D
:100FD000605F7F4FC8010E9483074C815D8141158E
:100FE000510551F0D801ED91FC9168857985028019
:100FF000F381E02DC8010995BE01665F7F4FC801EE
:101000000E94650761960FB6F894DEBF0FBECDBF94
:10101000DF91CF911F910F91FF90EF900895CF93A3
:10102000DF931092FB051092FA051092FC051092C6
:10103000FE051092FD05109200061092FF05109219
:101040000206109201068FEF9FEF909304068093A3
:10105000030627EB35E03093B6052093B505C7E7C7
:10106000D5E025EB35E03983288310926D05109289
:101070006C0510926E051092700510926F0510921B
:101080007205109271051092740510927305909379
:10109000760580937505ACE4B5E01C9210924D0581
:1010A000109259051092580510925B0510925A053E
:1010B00010925F0510925E05109261051092600516
:1010C000E8E4F5E087E497E091838083D0934B05D3
:1010D000C0934A05B0934305A093420590934505FC
:1010E000809344058BE091E0909341058093400507
:1010F000F0934705E0934605DF91CF910895AF92B5
:10110000BF92CF92DF92EF92FF920F931F93CF93F4
:10111000DF93CDB7DEB7E3970FB6F894DEBF0FBE0F
:10112000CDBF7C016A018901C9010E946A1B2C8B19
:101130003D8B4E8B5F8B688F798F8A8F9B8F9E0143
:10114000255F3F4FAE014F5F5F4FBE01645E7F4F33
:10115000CE0144960E94C21C882319F13C8D323086
:10116000D1F489819A81AB81BC81E5EAF1E0A0806C
:10117000AA2089F04A2D50E060E070E04817590736
:101180006A077B0731F42181277019F08A2D90E0DE
:101190000AC03896ECCF632FCE0144960E94171DEB
:1011A000CECF8FEF9FEF5C0121E0A21AB10886E15C
:1011B000A816B10408F021C2F501EC5CFF4F0C94B5
:1011C000A02E2DE833E02EC089E596E0988B8F871E
:1011D000C70102969A8B898B25E933E023C02DE65F
:1011E00033E020C025E633E01DC025E433E01AC01B
:1011F00025E333E017C025E233E014C025E133E0F6
:1012000011C025E033E00EC02DEF32E00BC02DEE13
:1012100032E008C02DED32E005C02DE733E002C01A
:1012200025E733E0BE016F5F7F4FCE0144962AABC6
:101230003BAB0E945D1D2AA93BA9882379F0AE0132
:10124000455F5F4FB901CE0101960E940421BE01A6
:101250006F5F7F4FCE0144960E94541FA601B801D4
:10126000CE0101960E949F1396E1A916B10408F0E1
:10127000C4C1F501E65BFF4F0C94A02E6B8587E39C
:1012800096E00E94D20CD70152964C9150E0B701E3
:101290006E5F7F4F87E396E00E94390C87E396E00C
:1012A0000E94EF0C882321F08FEF9FEFDC0167C0D5
:1012B0001EA61FA618AA19AAE12CF12C8AE0A82EB6
:1012C000B12C41E06B8587E396E00E94CF0C813022
:1012D00029F08EEF9FEFAFEFBFEF51C087E396E0AD
:1012E0000E94E70B8F3F51F5B5E0EB16F1042CF4AB
:1012F00061E070E080E090E008C0EAE0EE16F10402
:1013000074F46AE070E080E090E00E9460269FEF55
:10131000E91AF90AA5E1EA16F10499F634C0B70111
:101320006A507109C50102C0880F991F6A95E2F7DA
:10133000BC01882777FD8095982FE7CF482F50E094
:1013400060E070E0813228F04EA75FA768AB79AB10
:101350001AC06C01DD244EA75FA768AB79AB4C2D9A
:101360006B8587E396E00E94CF0CE82EF12CEC14FD
:10137000FD0411F468010AC0C601A0E0B0E08EA728
:101380009FA7A8ABB9AB0DEC12E015C1C601801B3D
:10139000910B8E159F0540F487E396E00E94E70BC2
:1013A000F60181936F01F2CFC70129C12091F107A6
:1013B0003091F2078DB79EB72115310519F4855F7D
:1013C000974002C0821B930BAA2797FDA095BA2FC6
:1013D0008EA79FA7A8ABB9AB0DEB12E0ECC0D7016D
:1013E000ED91FC910190F081E02D8B85E80FF11DCE
:1013F00085AD90E0A0E0B0E08EA79FA7A8ABB9AB09
:101400000DEA12E0D8C0D701ED91FC910190F08176
:10141000E02D85A996A9A7A9B0AD8EA79FA7A8ABD7
:10142000B9AB0DE912E0C7C0D701ED91FC91019075
:10143000F081E02D81AD92ADA3ADB4AD8EA79FA795
:10144000A8ABB9AB0DE812E0B6C0D701ED91FC91A5
:101450000190F081E02D86A190E0A0E0B0E08EA7A1
:101460009FA7A8ABB9AB0DE712E0A5C0D701ED91DE
:10147000FC912B894F856B85808191810E94520F51
:1014800005E712E098C0F701008111814B855C856A
:101490006D857E85D8018D919C910E948D10D8011B
:1014A000ED91FC9185A996A9A7A9B0AD8EA79FA79C
:1014B000A8ABB9AB05E612E07EC0F701008111814F
:1014C0004B855C856D857E85D8018D919C910E94B0
:1014D000DE0FD801ED91FC9181AD92ADA3ADB4AD1D
:1014E0008EA79FA7A8ABB9AB05E512E064C0D701F2
:1014F000ED91FC916B85808191810E944C130DE4EC
:1015000012E059C04B855C856D857E85D701ED91D4
:10151000FC91808191810E943A1305E412E04BC056
:10152000D701ED91FC91808191810E9459136EA7A2
:101530007FA788AB99AB05E312E03DC0D701ED91E1
:10154000FC916B85808191810E94870F0DE212E0F2
:1015500032C0D701ED91FC918B858130C9F058F0F4
:101560008230F9F4808191810E941F0F6CA77DA7C2
:101570008CA59DA518C0808191810E941F0F2C8F82
:101580003D8F4E8F5F8F68A379A38C8D9D8D0BC08F
:10159000808191810E941F0F4CA35DA38CA19DA10E
:1015A00002C08FEF9FEFA0E0B0E08EA79FA7A8AB8F
:1015B000B9AB0DE112E06DE271E0DB018C918823A3
:1015C000E1F0FB01868197818017910799F4CE01A4
:1015D00001960E94B115882381F0AE01425D5F4FF4
:1015E000B801CE0101960E942C18882331F08F811A
:1015F000988505C0685F7F4FE0CF8FEF9FEFE39640
:101600000FB6F894DEBF0FBECDBFDF91CF911F9113
:101610000F91FF90EF90DF90CF90BF90AF90089523
:10162000CF93DF93EC01CB016B817C812A8124363F
:1016300091F46115710579F02F8138854D815E81B6
:101640000E947F0897FF05C08EE68A831C821B825A
:1016500002C09C838B83DF91CF910895E091400578
:10166000F09141050484F585E02D80E495E009952D
:1016700080910606882341F067E775E08AEF95E0E0
:101680000E94100B1092060608950E9486260E9462
:101690002607C3E9D7E20E942E0B2097E1F30E94B0
:1016A0009327F9CF0F931F93CF93DF938B01FC0107
:1016B000C681D7816A817B81C8010E94100BB80165
:1016C00088819981DF91CF911F910F910C948C07A4
:1016D0000F931F93CF93DF938C0181E080930606D5
:1016E000C7E0D6E0CE01875096408017910734F4CA
:1016F00087E396E00E94E70B8993F4CFC80117FFB8
:1017000002C080E090E09093FE058093FD0584E6A2
:101710008093FC05DF91CF911F910F910895609107
:10172000FD057091FE0580910506811117C080911D
:101730000606882359F0E0913706F09138060190AB
:10174000F081E02D6FEF87E396E0099487E396E060
:101750000E94660C81E0809305060895AB01552731
:10176000609101067091020687E396E00E94390CB1
:1017700010920506089561E08AE00E94A02561E0CC
:101780008AE00E9467258CB580618CBD8CB5806431
:101790008CBD61E08DE00E94672561E08BE00C94D8
:1017A0006725811103C08CB5806202C08CB58F7D26
:1017B0008CBD08959CB5937F982B9CBD0895809116
:1017C0006B0690E020916C06821B91090895209190
:1017D0006C0680916B06281750F4E22FF0E0E35975
:1017E000F94F808190E02F5F20936C0608958FEF72
:1017F0009FEF0895E0916C0680916B06E81730F436
:10180000F0E0E359F94F808190E008958FEF9FEF6A
:1018100008950895E0914306F09144063097E1F071
:1018200030916C0620916B063217B0F040E0242F07
:1018300030E02617370754F4DC01A20FB31F5C9188
:10184000D901A359B94F5C934F5FF1CF10926C0649
:1018500060936B06CB0109940895E0914506F091E1
:101860004606309729F010924906109248060994CE
:101870000895CF92DF92EF92FF920F931F93CF9331
:10188000DF937C01CB018A0120914706222389F056
:10189000EB016B01C40ED51ECC15DD0569F0699115
:1018A000D701ED91FC910190F081E02DC7010995E0
:1018B000F3CF642F0E94B90DC801DF91CF911F9122
:1018C0000F91FF90EF90DF90CF900895CF93DF932B
:1018D0001F92CDB7DEB76983209147062223D1F04E
:1018E00020914806203240F021E030E0FC013383B3
:1018F000228380E090E015C080914906E82FF0E057
:10190000E65BF94F998190838F5F809349068093BE
:10191000480605C061E0CE0101960E94B90D81E044
:1019200090E00F90DF91CF910895FC011382128215
:1019300048EE53E060E070E044835583668377832C
:1019400081E291E091838083089510926C06109259
:101950006B0610924906109248060C94000DCF9326
:10196000DF93EC01862F0E941E0D8DE29CE00E9409
:10197000D70D8AE09CE00E94D20DCE01DF91CF917D
:101980000C94A50C862F413208F040E26DE676E01B
:101990000E94220D10926C0680936B06089521E040
:1019A0000C94C20C81E08093470660936A06109203
:1019B00049061092480608950F93062F21E04091A2
:1019C00048066AE476E080916A060E94660D1092ED
:1019D000490610924806109247060F91089561E05B
:1019E0000C94DC0C70934406609343060895709346
:1019F000460660934506089587E396E00C94950C9F
:101A00001092FA0681E08093F8061092F70661E0E2
:101A100082E10E94A02561E083E10E94A025E9EB1C
:101A2000F0E080818E7F808380818D7F808388E459
:101A30008093B80085E48093BC000895880F80935C
:101A4000BA000895413208F03FC09091FA06911112
:101A5000FCCF91E09093FA062093F8062FEF2093A5
:101A60008D061092D206240F2093D1069093F9068A
:101A70009091F906880F892B8093F9068091F706DB
:101A8000813041F41092F7068091F9068093BB00F3
:101A900085EC01C085EE8093BC008091FA06813010
:101AA000E1F38091D206841710F44091D20623ED21
:101AB00036E0FB01D9018A2F821B841718F48D911F
:101AC0008193F9CF842F089580E008950F934132D8
:101AD00008F046C09091FA069111FCCF92E09093E5
:101AE000FA060093F8069FEF90938D061092D206A7
:101AF0004093D106FB0163ED76E0DB019A2F961B44
:101B0000941718F491919D93F9CF1092F906909142
:101B1000F906880F892B8093F9068091F7068130AA
:101B200041F41092F7068091F9068093BB0085EC92
:101B300001C085EE8093BC00222321F08091FA063B
:101B40008230E1F380918D068F3F61F080918D06A8
:101B5000803251F080918D06803341F483E007C0DC
:101B600081E005C080E003C082E001C084E00F9105
:101B70000895613298F42091FA06243089F4609334
:101B8000AF06FC0181EB96E0DC012A2F281B26170B
:101B900018F421912D93F9CF80E0089581E0089504
:101BA00082E008959093F4068093F306089590934D
:101BB000F6068093F506089585ED8093BC0080912C
:101BC000BC0084FDFCCF1092FA06089585EC80934A
:101BD000BC001092FA0608951F920F920FB60F9252
:101BE00011242F933F934F935F936F937F938F9322
:101BF0009F93AF93BF93EF93FF938091B900887F3A
:101C0000803609F49CC068F5883209F45BC090F412
:101C1000803109F454C038F4882309F4F5C08830C1
:101C200009F44DC0F5C0883109F44CC0803209F484
:101C30005DC0EEC0803409F468C048F4803309F414
:101C400055C0883309F0E4C080938D06A8C0803564
:101C500009F44FC0883509F45DC0883409F0D8C054
:101C6000D5C0883909F4C6C0A8F4883709F467C01C
:101C700038F4883609F463C0803709F460C0C8C0FE
:101C8000883809F4B7C0803909F45FC0803809F09A
:101C9000BFC05BC0803B09F485C038F4803A09F4CA
:101CA00066C0883A09F47EC0B3C0803C09F4A6C07F
:101CB000883C09F4A3C0883B09F489C0A9C080917D
:101CC000F90610C09091D2068091D106981770F550
:101CD000E091D20681E08E0F8093D206F0E0ED52C3
:101CE000F94F80818093BB0085EC85C080938D0681
:101CF0008DC0E091D20681E08E0F8093D206809154
:101D0000BB00F0E0ED52F94F80839091D2068091B4
:101D1000D1066DC0E091D20681E08E0F8093D2068D
:101D20008091BB00F0E0ED52F94F80838091F8067E
:101D300081116CC081E08093F70684EA60C083E083
:101D40008093FA0610928E06CFCF80918E06803255
:101D500008F050C0E0918E0681E08E0F80938E06D1
:101D60008091BB00F0E0E157F94F8083BDCF8091B7
:101D70008E06803230F4E0918E06F0E0E157F94FA4
:101D800010820E94DC0D60918E0670E0E091F306F7
:101D9000F091F4068FE896E0099510928E060E9465
:101DA000E60D36C084E08093FA061092B0061092D9
:101DB000AF06E091F506F091F60609958091AF0621
:101DC000811105C081E08093AF061092B106E091C9
:101DD000B00681E08E0F8093B006F0E0EF54F94F2B
:101DE00080818093BB009091B0068091AF069817D8
:101DF00008F47ACF85E88093BC000AC085EC809314
:101E0000BC001092FA0604C010928D060E94DC0DF0
:101E1000FF91EF91BF91AF919F918F917F916F91C2
:101E20005F914F913F912F910F900FBE0F901F9098
:101E300018958EBD0DB407FEFDCF8EB50895CF93D6
:101E4000DF93CDB7DEB72C970FB6F894DEBF0FBE89
:101E5000CDBF46E050E060E070E0CE0107960E9402
:101E6000002F86E0FE013796DE01119601900D925B
:101E70008A95E1F729813A814B815C816D817E8170
:101E800080E090E02C960FB6F894DEBF0FBECDBF79
:101E9000DF91CF91089545E150E060E070E08096D9
:101EA0000C94102FEF92FF920F931F93CF93DF9319
:101EB0001F92CDB7DEB77C01062F142F60E083E0C0
:101EC00029830E94A025802F0E94190F812F0E9434
:101ED000190F61E083E00E94A025F701E00FF11DDA
:101EE00015AF2981222359F017A3C7010F90DF9165
:101EF000CF911F910F91FF90EF900C944B0F0F908B
:101F0000DF91CF911F910F91FF90EF9008950F9364
:101F10001F93CF93DF93EC01162F45E150E060E073
:101F200070E080960E94002F88A199A1892B51F41E
:101F30008AA19BA1892B31F48CA19DA1892B11F43D
:101F4000112311F119A218A21BA21AA21DA21CA2F0
:101F50008AE08EA380E88FA388A789A78AA78BA78A
:101F60008CA74CEE51E568E97FE34DA75EA76FA70C
:101F700078AB40E050E060EE70E449AB5AAB6BAB3D
:101F80007CABCE010E944B0F6EA187E396E00E94CE
:101F9000AF0C00E010E0FE01E00FF11F20E047A1D0
:101FA000602FCE010E94520F0F5F1F4F06301105A8
:101FB00091F7DF91CF911F910F9108958F929F928A
:101FC000AF92BF92CF92DF92EF92FF920F931F9347
:101FD000CF93DF93EC016A017B0120E030E0A9019F
:101FE000C701B6010E94102B87FD0CC089A89AA8D2
:101FF000ABA8BCA8A5019401C701B6010E945F2C43
:10200000181614F567E871E08BEF96E00E94E92E50
:102010006BEF76E087E497E00E94EC2822E030E066
:10202000B701A60187E497E00E94A92A64E771E05E
:102030008BEF96E00E94E92E6BEF76E087E497E065
:102040000E94092989EF5CC0C9AEDAAEEBAEFCAEE6
:10205000A5019401C701B6010E94142B20E030ECC9
:102060004FE754E40E94AE2C6B017C0120E030E08D
:10207000A9010E945F2C20E030E040E05FE387FD93
:1020800005C0C701B6010E94AC2A04C0C701B60151
:102090000E94AB2A0E947C2BFE01EF5BFF4F8081E8
:1020A000AB0143565A4FFA0194918B0103561E4FD0
:1020B000891308C0F8019491FE01EE5BFF4F208167
:1020C000291789F0FA01F4908F1578F4F8014491FA
:1020D00020E065E0CE010E94520F20E04F2D64E029
:1020E000CE010E94520F80E00BC020E04F2D64E033
:1020F000CE010E94520FF801449120E065E0F0CF3C
:10210000DF91CF911F910F91FF90EF90DF90CF90D3
:10211000BF90AF909F908F9008952F923F924F92D3
:102120005F926F927F928F929F92AF92BF92CF9267
:10213000DF92EF92FF920F931F93CF93DF93CDB770
:10214000DEB72E970FB6F894DEBF0FBECDBF9E87C9
:102150008D876A017B01DC01D5964D935D936D936C
:102160007C93D89720E030E040E052E4C701B6010C
:102170000E94AE2C4B015C0120E030EE41E854E4BB
:102180000E94142B0E946E2C26EA3BE944E550E4A1
:102190000E94AE2C2EE83DE543E150E40E94142B52
:1021A0000E94812B762E70E0665F7F4F882777FD37
:1021B0008095982F0E94AF2B9B01AC0160E070E0EE
:1021C00080E090E40E94112D20E030EE41E055E4E3
:1021D0000E94AE2CA50194010E94142B9B01AC011E
:1021E00060E070E080E095E40E94AB2A4B015C0166
:1021F00020E030E0A9010E945F2C20E030E040E0C8
:102200005FE387FD05C0C501B4010E94AC2A04C08C
:10221000C501B4010E94AB2A0E947C2B5B019B018B
:1022200096E0369527959A95E1F7729430EF7322F0
:10223000722A60E082E00E94A025872D0E94190F7B
:102240008A2D880F880F82600E94190F61E082E05A
:102250000E94A02520E030E04AE754E4C701B6011F
:102260000E94102B18167CF061E084E00E94A025EB
:1022700080E090E0A0E8BFE389839A83AB83BC83CE
:102280001C012D0116C0AD85BE859D968D919D9139
:102290000D90BC91A02D89839A83AB83BC8360E0B1
:1022A00084E00E94A025212C312C80E2482E81E47C
:1022B000582EC701B6010E94632C4B015C0120E03F
:1022C00030E048EC52E4C201B1010E94AE2C0E9401
:1022D000632C9B01AC01C501B4010E94AB2A21E82B
:1022E00030E840E05CE30E94142B0E94812B062F13
:1022F00010E0F801E356F54FB49020E04B2D61E07B
:102300008D859E850E94520FF801E356F64F74901A
:1023100020E0472D62E08D859E850E94520F6B2D37
:1023200070E080E090E00E94AD2B20E030E04FE7CD
:1023300053E40E94142B20E030E543EC57E40E9464
:10234000AE2C4B015C01672D70E080E090E00E94B4
:10235000AD2B20E030E04FE753E40E94142B20E047
:1023600030E543EC57E40E94AE2C6D837E838F836F
:1023700098872BED3FE049EC50E4C701B6010E947D
:10238000AE2C69877A878B879C87A20191010E9476
:10239000142B9B01AC010E94AE2CA50194010E945C
:1023A000AE2C2D813E814F8158850E94AE2C2CE0B1
:1023B0003DED49E453E30E94AE2C2FE635EA49EEA9
:1023C00051E30E94AE2C9B01AC0160E070E080E81C
:1023D0009FE30E94AB2A6B017C012FE635EA49EEB0
:1023E00051E369857A858B859C850E94AE2CA2017C
:1023F00091010E94142B2B013C012D813E814F81C4
:102400005885C501B4010E94AC2A9B01AC01C301EF
:10241000B2010E94AE2C4B015C01A7019601C701DD
:10242000B6010E94AE2C6B017C01A5019401C5018F
:10243000B4010E94AE2C9B01AC01C701B6010E9401
:10244000AC2A0E94612D9B01AC0160E070E080E845
:102450009FE30E94142B9B01AC0160E070E080E0E0
:1024600093E40E94142B29813A814B815C810E9464
:10247000AE2C6B017C0120E030E0A9010E945F2CB2
:1024800020E030E040E05FE387FD05C0C701B60112
:102490000E94AC2A04C0C701B6010E94AB2A0E9468
:1024A0007C2B20E0462F60E08D859E852E960FB612
:1024B000F894DEBF0FBECDBFDF91CF911F910F917A
:1024C000FF90EF90DF90CF90BF90AF909F908F9054
:1024D0007F906F905F904F903F902F900C94520F91
:1024E000CF92DF92EF92FF920F931F93CF93DF93E0
:1024F000EC0161E082E00E94672561E083E00E94D8
:10250000672561E084E00E94672581E00E94D10B8D
:1025100080E00E94DA0B0E94BB0B60E0CE010E94BB
:10252000870F40E050E06AE774E4CE010E948D100E
:10253000C9A8DAA8EBA8FCA820E030E0A901C701EF
:10254000B6010E94102B87FF29C067E871E08BEF6E
:1025500096E00E94E92E6BEF76E087E497E00E9418
:10256000EC2822E030E040E050E0BA0187E497E058
:102570000E94A92A64E771E08BEF96E00E94E92EA1
:102580006BEF76E087E497E0DF91CF911F910F9199
:10259000FF90EF90DF90CF900C94092919AE1AAEFE
:1025A0001BAE1CAEA701960160E070E0CB010E945B
:1025B000142B20E030EC4FE754E40E94AE2C6B016A
:1025C0007C0120E030E0A9010E945F2C20E030E097
:1025D00040E05FE387FD05C0C701B6010E94AC2A59
:1025E00004C0C701B6010E94AB2A0E947C2BFE01E9
:1025F000EF5BFF4F8081AB0143565A4FFA01949134
:102600008B0103561E4F891308C0F8019491FE01F7
:10261000EE5BFF4F2081291721F1FA01F4908F150D
:1026200058F4F801449120E065E0CE010E94520F79
:1026300020E04F2D64E00AC020E04F2D64E0CE0181
:102640000E94520FF801449120E065E0CE01DF9135
:10265000CF911F910F91FF90EF90DF90CF900C944E
:10266000520FDF91CF911F910F91FF90EF90DF906C
:10267000CF900895CF93DF93EC014DA75EA76FA78E
:1026800078AB0E944B0F4DA95EA96FA978ADCE0122
:10269000DF91CF910C948D10CF93DF93EC016EA35B
:1026A00087E396E00E94AF0CCE01DF91CF910C94AE
:1026B0004B0FEF92FF920F931F93CF93DF9348EE50
:1026C000E42E43E0F42E00E010E0CFEFD3E080E012
:1026D0000E94D6258C179D0708F4EC0108171907EE
:1026E00008F48C0181E0E81AF108E114F10479F7AB
:1026F000B8016C1B7D0B80E090E00E94AD2B2AE0BE
:1027000038E240EA5BE30E94AE2CDF91CF911F914B
:102710000F91FF90EF900895FC01A281B3819D017C
:10272000240F351F33832283FB01460F571FE41705
:10273000F50719F081918D93FACF81E00895FC019E
:102740008CE893E191838083738362835583448310
:102750001782168211861086CF0108950F931F935A
:10276000CF93DF93EC018A01E881F981309701F181
:102770002E813F81240F351F8C819D818217930705
:1027800050F488859985892B21F48DEA93E0998707
:10279000888780E014C0CE010995811109C0288581
:1027A0003985232BB1F729EB33E03987288707C018
:1027B0008E819F81800F911F9F838E8381E0DF91A7
:1027C000CF911F910F9108955F926F927F928F9298
:1027D0009F92AF92BF92CF92DF92EF92FF920F93B0
:1027E0001F93CF93DF93CDB7DEB762970FB6F89400
:1027F000DEBF0FBECDBF6C01802F0B87912F1C87D2
:10280000522E2D87632E3E87742E4F87852E588B30
:10281000962E698BB72F7A8B8C019801452D562DFA
:10282000672D782D892D9B2FA0E00E94DD2E21F0B1
:10283000FE0131967F0106C041E050E0BE01655FB8
:102840007F4F34C05F01AE18BF089801452D562D4B
:10285000672D782D892D9B2FA0E00E94DD2EA9F0F9
:10286000802F806881939801452D562D672D782DF6
:10287000892D9B2F07E00E94C12E8901542E652EC1
:10288000762E872E982EB92FDDCF1B861C861D86AF
:102890001E861F86188A198A1A8AF5013197EE0D4D
:1028A000FF1D80818F778083A501B701C6010E943B
:1028B000AE1362960FB6F894DEBF0FBECDBFDF91A8
:1028C000CF911F910F91FF90EF90DF90CF90BF902D
:1028D000AF909F908F907F906F905F9008958F92B0
:1028E0009F92AF92BF92CF92DF92EF92FF920F939F
:1028F0001F93FA01DB0114962C91243059F02830F3
:1029000089F480809180A280B380C480D580E680E5
:10291000F78012C080809180A280B380C12CD12C1E
:1029200076010AC0FC0120853185232B61F422EC5D
:1029300033E03187208707C084019501A601B701E4
:102940000E94E41301C080E01F910F91FF90EF906F
:10295000DF90CF90BF90AF909F908F9008950F938E
:102960001F93CF93FA01DB0114962C912230D9F0FA
:1029700068F4213091F50081102F110F110B212FD8
:10298000312FC12FB12FA12F712F31C02430B1F0C1
:10299000283019F50081118122813381C481B581EC
:1029A000A681778124C011810081212F220F220B63
:1029B000322FC22FB22FA22F722F19C04081518106
:1029C000628173818A019B01770F440B542FBA01F6
:1029D000C42FB42FA42F742F0AC0FC012085318589
:1029E000232B59F422EC33E03187208706C04C2F8B
:1029F0005B2F6A2F0E94E41301C080E0CF911F91EA
:102A00000F910895DF92EF92FF920F931F93CF9350
:102A1000DF93FC01D22EE32EF42ED52FC62FB72F35
:102A200098014D2D5E2D6F2D7D2F8C2F9B2FA0E0BB
:102A30000E94DD2E64F401E00E94A62E20953095C0
:102A40004095509560957095809590950AC0980135
:102A50004D2D5E2D6F2D7D2F8C2F9B2F01E00E9421
:102A6000A62E89019A01AB01BC01CF010E94E4139B
:102A7000DF91CF911F910F91FF90EF90DF9008951C
:102A80000F931F93CF93FA01DB0114962C912430FE
:102A900059F02830C1F40081118122813381C48131
:102AA000B581A681778119C040815181628173818E
:102AB0008A019B01770F440B542FBA01C42FB42F06
:102AC000A42F742F0AC0FC0120853185232B59F4D3
:102AD00022EC33E03187208706C04C2F5B2F6A2F12
:102AE0000E94021501C080E0CF911F910F910895BF
:102AF00044E050E00C94AE13BA010C94781548E011
:102B000050E00C94AE13BA010C947F158F929F92F3
:102B1000AF92BF92CF92DF92EF92FF920F931F93EB
:102B2000FC01A62F49015A01A50160E070E080E098
:102B300090E003E00E94A62E022F242F0A2B132FD1
:102B4000352FAB01BC01CF010E94E4131F910F91FF
:102B5000FF90EF90DF90CF90BF90AF909F908F90BD
:102B60000895FB0121812F702330A9F090F02430CB
:102B700021F0283020F462E00FC061E00DC0FC01BC
:102B800020853185232B71F424ED33E031872087B4
:102B900009C060E001C065E0208130E040E050E025
:102BA0000C94861580E008952F923F924F925F9289
:102BB0006F927F928F929F92AF92BF92CF92DF924D
:102BC000EF92FF920F931F93CF93DF93CDB7DEB7B2
:102BD0002B970FB6F894DEBF0FBECDBF7C016B0103
:102BE0005A01DB0111963C91232F207C203409F4FB
:102BF000C3C0203811F02111D6C081E08B87832F0C
:102C00008F7090E0FC01EE0FFF1FEA59FB4F4080F0
:102C10005180F6014381442331F0F501E40FF11DA9
:102C200047FDFA9502C0FE013B96203849F4D501D4
:102C3000AD90BC9041E0A114B10409F440E04B8791
:102C40003073303189F0303201F13111ACC0A11450
:102C5000B10471F4F70180859185892B09F0B0C02A
:102C600087EE93E0D701A8C08081882309F48BC048
:102C7000B601C7010E94B115882309F4A1C0A501BE
:102C8000B601C701F2010995DAC0808091808114F4
:102C9000910409F478C0203891F0D60115962C9152
:102CA00030E02815390558F4F70180859185892B86
:102CB00009F086C08EEF93E09187808781C00597E9
:102CC0000CF094C0D6012C9130E040E050E062E07E
:102CD000C7010E948615882309F472C0F60181811C
:102CE0008F70833031F43401660C771C660C771CCE
:102CF00029C0843039F43401A3E0660C771CAA950E
:102D0000E1F720C0CE0101961C018AE0D1011D929D
:102D10008A95E9F78501612C712CA801B601C101E2
:102D2000F2010995882309F44BC0D60114968C91C1
:102D3000080F111DBFEF6B1A7B0A6814790469F73D
:102D40006F807884830120E030E040E050E060E074
:102D500070E0C7010E94E413882391F1F70180819C
:102D60009181892B79F5A30160E070E0C7010E9491
:102D7000AE13882329F107C04E5F5F4FD501ED9157
:102D8000FC91309711F481E05AC009958111FBCF75
:102D9000F70120853185232B09F051C026E134E06D
:102DA000318720874CC0D70118968D919C91199737
:102DB000892B31F484ED93E019969C938E931897A8
:102DC00080E03DC000E010E0A501B601C701F201BE
:102DD00009958823A9F3D60114968C91A80EB11CED
:102DE0000F5F1F4F0815190579F7CDCF00E010E0F0
:102DF000B601C7010E94B115882311F3F601818144
:102E0000982F907C9038C9F48F7090E005970297C6
:102E1000A0F4D5014D915C91B601C701F20109956D
:102E2000882371F2D60114968C91A80EB11C0F5F05
:102E30001F4F08151905E1F6A6CFA501EDCF2B967A
:102E40000FB6F894DEBF0FBECDBFDF91CF911F91BB
:102E50000F91FF90EF90DF90CF90BF90AF909F9039
:102E60008F907F906F905F904F903F902F9008953C
:102E70008F929F92AF92BF92CF92DF92EF92FF928A
:102E80000F931F93CF93DF934C017B015A01EB010A
:102E90002896C12CD12CF7018081882309F457C0D2
:102EA000FE0136978081C80ED11CAC0CBD1CFE0102
:102EB00037978081282F207C203891F0FE013497AD
:102EC0009081C92ED12C21110EC0282F20732032C1
:102ED00051F4FE013397C080C99E6001112403C0E4
:102EE00002E0C02ED12C8F70883029F5F5010081C9
:102EF00011810115110531F1F801A081B1811296FE
:102F0000ED91FC911397309721F0B801C401099518
:102F10000AC0F8014281538114966D917C911597F6
:102F2000C4010E94D415811102C080E011C0F801D3
:102F300004811581DECFA501B701C4010E94D4151B
:102F4000882399F3F8E0EF0EF11C2896A4CF81E0D6
:102F5000DF91CF911F910F91FF90EF90DF90CF9075
:102F6000BF90AF909F908F900895CF92DF92EF9295
:102F7000FF920F931F93CF93DF93EC016B017A01C4
:102F80008A0120E030E040E050E060E070E00E9424
:102F9000E413882369F0A701B601CE01DF91CF9138
:102FA0001F910F91FF90EF90DF90CF900C94AE1394
:102FB00080E0DF91CF911F910F91FF90EF90DF9014
:102FC000CF900895FB01BA0144812181207C2038F3
:102FD00011F050E002C04FEF5FEF6115710561F035
:102FE000FB0120E030E02417350741F0A191AA232E
:102FF00029F02F5F3F4FF7CF20E030E0A9010C947C
:10300000B517FA01309729F440E050E060E070E035
:103010001FC0DB0111962C911197207C40815181BA
:10302000211113C014962C9130E0BA016E5F7F4FCE
:103030002617370750F4FC0120853185232B51F4E6
:1030400025E234E03187208705C0BF016E5F7F4FE6
:103050000C94B51780E008956F927F928F929F92A3
:10306000AF92BF92CF92DF92EF92FF920F931F9396
:10307000CF93DF93CDB7DEB72A970FB6F894DEBFB4
:103080000FBECDBF7C014B013A01CE0101965C0120
:103090008AE0F50111928A95E9F7C5010E94381777
:1030A000811106C029853A85F701318720875AC0EA
:1030B000CF80D884860120E030E040E050E060E03E
:1030C00070E0C7010E94E413882309F44AC0F701A5
:1030D000208131812115310539F4A60160E070E0CD
:1030E000C7010E94AE133EC0F701868197818C0D07
:1030F0009D1D448155814817590738F48085918575
:10310000892B79F58DEA93E02AC03A832983F70168
:10311000828193819C838B83DE82CD8218861F827D
:103120001A861986A301B401C5010E9438174F8180
:103130005885F70126813781240F351F3783268371
:103140002B813C813383228329853A8531872087EF
:103150004C155D0539F0232B21F489E394E0918728
:10316000808780E02A960FB6F894DEBF0FBECDBFF1
:10317000DF91CF911F910F91FF90EF90DF90CF9053
:10318000BF90AF909F908F907F906F900895FB01BC
:10319000668177816115710551F4FC0120853185C7
:1031A000232B39F42DE434E03187208702C00C94BE
:1031B0002C1880E00895DC011296ED91FC91139794
:1031C0004E0F5F1F13965C934E9312976115710516
:1031D00039F0DB01E417F50719F081918D93FACFEF
:1031E00081E00895FC01A281B38114964C9114975B
:1031F000242F30E011968C911197982F907C59F4E0
:10320000982F9073903259F415962C911597249F0E
:103210009001112404C0903811F422E030E09C9118
:103220009923E1F1807329F4868197810196978330
:103230008683CD010896938382838481958101964C
:103240009583848318968C91811110C0808191811F
:1032500093838283158214821782168280859185DA
:103260009387828720E030E080E001C081E0A28186
:10327000B38112969C911297A901490F511D228585
:103280003385240F351F3387228713969C91290F8E
:10329000311D97FD3A9535872487089580E008957C
:1032A000CF93DF93EC018C819D81892B51F48E812A
:1032B0009F81892B21F488E794E09F838E8380E0AF
:1032C00017C0E881F98141E050E0CE0109958111F4
:1032D00009C02E813F81232B91F729EB33E03F83F7
:1032E0002E8306C02C813D81215031093D832C83E2
:1032F000DF91CF9108957F928F929F92AF92BF926C
:10330000CF92DF92EF92FF920F931F93CF93DF93B1
:103310001F92CDB7DEB78C014B01BE016F5F7F4FAF
:103320000E945019782E8823E1F1898187FD05C01C
:10333000C82ED12CE12CF12C36C08F77C82ED12C81
:10334000E12CF12C87E0A82EB12CBE016F5F7F4FDE
:10335000C8010E945019882321F18981482F4F7795
:1033600050E060E070E00A2C04C0440F551F661F57
:10337000771F0A94D2F7C42AD52AE62AF72A87FFAC
:1033800012C087E0A80EB11CE3E2AE16B104E9F664
:10339000F80186819781892B21F486E894E0978350
:1033A0008683712C05C0F401C082D182E282F3824F
:1033B000872D0F90DF91CF911F910F91FF90EF908C
:1033C000DF90CF90BF90AF909F908F907F900895A7
:1033D000CF93DF93CDB7DEB72E970FB6F894DEBF4D
:1033E0000FBECDBF9C838B839A8389831E821D82EF
:1033F00018861F82FC012281AB01420F511D9A01E8
:103400005C874B878381280F311D87FD3A953E8766
:103410002D877A876987EB81FC818181908199234F
:10342000A1F1982F907C21F58073803121F4AD8536
:10343000BE851C9202C0803221F141814F708B8584
:103440009C8526813781473029F4BC01C9010E943F
:10345000E8191BC0448150E02115310521F0B90164
:103460000E94F02E12C060E070E00E94F92E0DC0A4
:10347000903859F4EB85FC8511821082807380327C
:1034800021F4ED85FE8511821082CE0101960E9405
:10349000F2188111C0CF2E960FB6F894DEBF0FBE82
:1034A000CDBFDF91CF910895EF92FF920F931F93BD
:1034B000CF93DF93CDB7DEB760970FB6F894DEBF3A
:1034C0000FBECDBF8C017A016115710501F5DC01DC
:1034D0008D919C918B5D9841D1F0F1E1EF16F10453
:1034E00070F040E150E0BE016F5F7F4FC8010E9465
:1034F000541A8823F1F1E0E1EE1AF108EECFA701AA
:10350000BE016F5F7F4FC8010E94541A32C0D801BC
:1035100014968D919C9115978E159F0568F41696BB
:103520008D919C911797892B29F488E794E0F801F5
:103530009783868380E01DC0D801ED91FC91A7019F
:10354000C801099581110AC0F80126813781232B12
:1035500089F729EB33E0378326830BC0D801149613
:103560002D913C9115972E193F0915963C932E935A
:10357000149760960FB6F894DEBF0FBECDBFDF91F3
:10358000CF911F910F91FF90EF900895CF92DF920E
:10359000EF92FF920F931F93CF93DF9300D000D051
:1035A000CDB7DEB78C016B017A01BE016F5F7F4F33
:1035B0000E947B19882379F149815A816B817C8132
:1035C000F6018181807C803841F4F8018681978101
:1035D000892B01F586E994E010C0F601848190E022
:1035E0009A012F5F3F4F8217930750F4F8018681AD
:1035F0009781892B79F488EA94E0978386830AC0BF
:10360000B701C8010E94541AE981FA81EE0DFF1D2D
:10361000108201C080E00F900F900F900F90DF910B
:10362000CF911F910F91FF90EF90DF90CF90089571
:10363000EF92FF920F931F93CF93DF9300D000D0B0
:1036400000D0CDB7DEB78C017B01BE016F5F7F4F2D
:103650004D835E830E947B194D815E81882369F1D1
:10366000F7018181807C803841F4F801868197815F
:10367000892B11F586E994E012C089819A81BC01F9
:103680006E5F7F4FF701248130E02617370750F433
:10369000F80186819781892B79F488EB94E09783F0
:1036A00086830AC0BA01FB0181939193BF01AC01EB
:1036B000C8010E94541A01C080E026960FB6F89403
:1036C000DEBF0FBECDBFDF91CF911F910F91FF9055
:1036D000EF900895CF93DF93CDB7DEB728970FB65D
:1036E000F894DEBF0FBECDBF2BED38E13A832983BE
:1036F0008B839C836D837E8318861F823A81AC0105
:1037000080E0988528960FB6F894DEBF0FBECDBF37
:10371000DF91CF9108953F924F925F926F927F9287
:103720008F929F92AF92BF92CF92DF92EF92FF92D1
:103730000F931F93CF93DF931F92CDB7DEB75C013A
:103740007B01C12CD12C312C412C512C612C712CA2
:10375000812C912C10E0BE016F5F7F4FC5010E944C
:103760005019E82F882309F440C0F9812F2F2F77B3
:1037700030E040E050E060E070E080E090E00C2D50
:103780000E94A62E322A432A542A652A762A872A9C
:10379000982A192BF7FF11C087E0C80ED11CA6E4A8
:1037A000CA16D104C1F6F50186819781892BE1F40F
:1037B00086E894E09783868317C0D7013C921196E0
:1037C0004C92119712965C92129713966C921397E3
:1037D00014967C92149715968C92159716969C9237
:1037E000169717961C9301C0E0E08E2F0F90DF9183
:1037F000CF911F910F91FF90EF90DF90CF90BF90EE
:10380000AF909F908F907F906F905F904F903F9080
:103810000895CF92DF92EF92FF920F931F93CF9371
:10382000DF93CDB7DEB728970FB6F894DEBF0FBE93
:10383000CDBF8C016B017A01BE016F5F7F4F0E948B
:103840008B1B882361F1F60194819430A1F09830AC
:10385000E1F49981F70190839A8191839B8192830E
:103860009C8193839D8194839E8195839F81968380
:103870009885978314C009811A812B813C81F701B7
:1038800000831183228333830AC0F80186819781E4
:10389000892B21F482EC93E09783868380E028963D
:1038A0000FB6F894DEBF0FBECDBFDF91CF911F9151
:1038B0000F91FF90EF90DF90CF900895CF92DF921D
:1038C000EF92FF920F931F93CF93DF93CDB7DEB7A5
:1038D00028970FB6F894DEBF0FBECDBF8C016B01E9
:1038E0007A01BE016F5F7F4F0E948B1B8823D9F145
:1038F000F60194819230E9F030F4913051F59981DC
:10390000F701908330C09430D1F0983011F599814F
:10391000F70190839A8191839B8192839C81938309
:103920009D8194839E8195839F81968398859783BB
:103930001AC029813A81F7013183208314C009819B
:103940001A812B813C81F701008311832283338309
:103950000AC0F80186819781892B21F482EC93E0DB
:103960009783868380E028960FB6F894DEBF0FBE5B
:10397000CDBFDF91CF911F910F91FF90EF90DF901E
:10398000CF900895AF92BF92CF92DF92EF92FF92C5
:103990000F931F93CF93DF9300D000D0CDB7DEB746
:1039A0008C017B016A015901F9011082FB0110822F
:1039B000FA011082118212821382BE016F5F7F4F63
:1039C0000E947B1981110AC0F80124813581232BC3
:1039D000F9F481E0F501808380E01AC009811A8141
:1039E0002B813C81011511052105310591F3B901A8
:1039F000A80193E076956795579547959A95D1F7E5
:103A0000F60140835183628373830770F70100835B
:103A10000F900F900F900F90DF91CF911F910F910A
:103A2000FF90EF90DF90CF90BF90AF9008950F93ED
:103A30001F93CF93DF9300D000D0CDB7DEB78C01BA
:103A40006130B1F050F06230B1F0653019F544E00A
:103A500050E01AC0998197FF27C041E050E0BE01B5
:103A60006F5F7F4FC8010E94541A8111F3CF1CC0B1
:103A700048E050E009C0BE016F5F7F4F0E947B1994
:103A8000882391F049815A8160E070E0C8010E946A
:103A9000541A0AC0FC0186819781892B21F487EC96
:103AA00094E09783868380E00F900F900F900F90A3
:103AB000DF91CF911F910F9108958F929F92AF92B6
:103AC000BF92EF92FF920F931F93CF93DF9300D09B
:103AD00000D0CDB7DEB78C017B01BE016F5F7F4F99
:103AE0000E947B198823F1F098E0F801D70101903A
:103AF0000D929A95E1F749815A816B817C81F7019A
:103B000084809580A12CB12C84169506A606B70654
:103B100058F4F80186819781892B21F489ED94E08E
:103B20009783868380E00AC0F70155834483F801B8
:103B300024813581241B350B358324830F900F900E
:103B40000F900F90DF91CF911F910F91FF90EF9009
:103B5000BF90AF909F908F9008954F925F926F9219
:103B60007F928F929F92AF92BF92CF92DF92EF920D
:103B7000FF920F931F93CF93DF93CDB7DEB762977A
:103B80000FB6F894DEBF0FBECDBF8C017A01FA01EB
:103B9000A281B38111962C911197822F807C803461
:103BA00009F4BDC0803809F4B1C081115CC1822F15
:103BB0008F7090E0FC01EE0FFF1FE05FFA4FA080D6
:103BC000B1802073203129F0203281F021118FC083
:103BD00006C0F7012485358581E0F9018083F7016E
:103BE00042855385BD01C801F5013BC1F701C4847D
:103BF000D584623009F052C005970CF04FC0BE0169
:103C00006F5F7F4FC8010E945D1D882309F434C196
:103C10008D819E81892B59F1F60180819181D70197
:103C200012966D917C911397FB01258130E08217EC
:103C30009307E8F4DB0114964C91489F9001499F4B
:103C4000300D1124F70142855385420F531FCE01D9
:103C50000196F5010995882341F0D6018D919C913B
:103C6000119701968D939C93D3CF80E001C081E0A2
:103C70002B813C81D80113963C932E9312972F8170
:103C8000388517963C932E9316974D815E81452B70
:103C900009F4F3C0232B09F0EFC018C0F701228507
:103CA000338514966C911497F60180819181159655
:103CB0004C91159750E08417950758F0D801169647
:103CC0008D919C911797892B09F0D6C081EF94E0D4
:103CD00018C0AC014F5F5F4FF60151834083689F6E
:103CE000A001699F500D1124420F531F7BCFD801B3
:103CF00016968D919C911797892B09F0BDC084ED84
:103D000093E017969C938E931697B6C0F801868120
:103D10009781892B09F0B0C086E994E0ABC042845A
:103D200053845201B2E0AB0EB11CF201808191814B
:103D3000892B21F4C8010E94171D9FC06230A1F594
:103D4000BE016F5F7F4FC8010E945D1D882309F48B
:103D500093C0D70112966D917C911397D201ED918A
:103D6000FC91A501CE010196099581110BC0F801C6
:103D700026813781232B09F07FC020E035E037838F
:103D800026837BC02D813E81232B19F72B813C811B
:103D9000D80113963C932E9312972F81388517964E
:103DA0003C932E93169769C0613071F170F06530C5
:103DB000B9F544E050E0BE016F5F7F4FC8010E943B
:103DC000541A24E0C22ED12C33C0FE0131963F019B
:103DD000C12CD12C4301FFEFCF1ADF0A8BE0C816AC
:103DE000D10409F449C041E050E0B301C8010E9488
:103DF000541A882309F440C09FEF691A790AD40144
:103E00008C9187FDE7CF16C048E050E0BE016F5FA0
:103E10007F4FC8010E94541A38E0C32ED12C08C02D
:103E2000F80186819781892B39F587EC94E022C0CF
:103E3000882319F18BED98E19C878B87CE01019641
:103E40009E878D87D88ACF861A8A198AD7011296BB
:103E50006D917C911397D201ED91FC91A501CE015A
:103E60000B9609950AC0F80186819781892B21F468
:103E700084ED93E09783868380E062960FB6F89492
:103E8000DEBF0FBECDBFDF91CF911F910F91FF908D
:103E9000EF90DF90CF90BF90AF909F908F907F90EA
:103EA0006F905F904F900895FB0122813381FC0158
:103EB00033832283FB0126813781FC0137832683EC
:103EC00008952F923F924F925F926F927F928F92BE
:103ED0009F92AF92BF92CF92DF92EF92FF920F9399
:103EE0001F93CF93DF93CDB7DEB7E2970FB6F89469
:103EF000DEBF0FBECDBF7C015E012DE1A20EB11C65
:103F000088E0D5011D928A95E9F77A8B698B788BC9
:103F10006F871C8A1B8A1E8A1D8AFB0182819A0177
:103F2000280F311DC9013A8F298F2381820F911DDE
:103F300027FD9A959C8F8B8F588F4F8B412C512C3E
:103F4000320122242394312CD70114968D919C9117
:103F50001597892B09F492C09E01275D3F4FAE0152
:103F60004B5D5F4FBE01665D7F4FC7010E94C21C63
:103F7000811104C089A5811181C07EC04DA15EA1BF
:103F80006FA178A5CB88DC88E989FA89808190E0E7
:103F9000A0E0B0E084179507A607B70731F4818148
:103FA000982F9F70983009F0B1C0CE010F964FA79F
:103FB00058AB69AB7AAB0E94F2188B899C894FA5EC
:103FC00058A969A97AA98C159D05F1F68DA19EA124
:103FD000AFA1B8A584159505A605B70508F4F1C0ED
:103FE000E989FA8981818F70883009F4EFC0CE01A8
:103FF0000F960E94F2188B899C898C159D0581F77C
:1040000044244A94542C32018DA19EA1AFA1B8A59D
:104010008BA79CA7ADA7BEA784159505A605B705D8
:1040200008F4CFC0D70114968D909C9015971AA5CF
:10403000E98DFA8DC080D180D70114968D919C9125
:104040001597C114D10409F4B8C08816990609F06F
:10405000B4C0F601A081B181ED91FC911197309728
:1040600009F479C0012F2BA53CA54DA55EA5B6018D
:10407000C701099581119DC080E0ADC0CD88DE8863
:10408000E989FA891181CE010F960E94F2188111F7
:10409000F5CF107341F4E989FA899081992319F0D9
:1040A000BFEFCB1ADB0A960153E0369527955A9558
:1040B000E1F7F501A501420F531FE417F50771F071
:1040C00091919F3FD1F3F70126813781232B09F08E
:1040D00082C027EE33E0378326837DC0F501E20FEF
:1040E000F31F608170E0F7E0CF22DD2448E050E06C
:1040F0004C195D092FEF30E002C0359527954A95A0
:10410000E2F762177307F9F681E065C08073C9F4BE
:104110008D899E8980349105A0F4FC0163E0F695B9
:10412000E7956A95E1F7EA0DFB1D877099279101E4
:1041300002C0220F331F8A95E2F7C9019081982BA4
:104140009083AE01415F5F4F6AA5C7010E94AD1D1C
:104150008111FACE91CF1496ED91FC911597808143
:1041600090E0A0E0B0E02BA53CA54DA55EA5821790
:104170009307A407B507E9F4FA83E983FC83EB838B
:104180001E821D8218861F82D60112968D919C91E7
:1041900013979A8789879C878B87C60106969E8787
:1041A0008D87AE014F5F5F4F612FC7010E94AD1D2C
:1041B00061CFF601C480D5803FCF8816990609F0FB
:1041C000C3CE6AA5C7010E94171DC2CF4080512CE3
:1041D000612C712C19CFE2960FB6F894DEBF0FBE9A
:1041E000CDBFDF91CF911F910F91FF90EF90DF90A6
:1041F000CF90BF90AF909F908F907F906F905F9087
:104200004F903F902F900895EF92FF920F931F933E
:10421000CF93DF9300D0CDB7DEB78C017B01BA011D
:10422000C70149835A830E94E81949815A81B7011D
:10423000C8010F900F90DF91CF911F910F91FF90C8
:10424000EF900C94611FCF92DF92EF92FF920F9349
:104250001F93CF93DF93CDB7DEB72A970FB6F894AD
:10426000DEBF0FBECDBF8C017B01FB01C680D780B6
:10427000BE016F5F7F4F49875A870E945D1D498548
:104280005A85882349F1F70186819781892B51F45A
:10429000F80186819781892BF1F48DE494E097836E
:1042A000868319C0F70181818073B601803229F4B9
:1042B000CE0101960E94042104C0CE0101960E9405
:1042C000611F2B813C81F801338322832F81388544
:1042D0003783268301C080E02A960FB6F894DEBFAC
:1042E0000FBECDBFDF91CF911F910F91FF90EF9047
:1042F000DF90CF900895AF92BF92CF92DF92EF926E
:10430000FF920F931F93CF93DF93CDB7DEB728971C
:104310000FB6F894DEBF0FBECDBF7B01BE016F5F4D
:104320007F4F0E948B1BF82F882309F45EC0E98120
:10433000AA80BB80CC80DD800E811F81B8852E2FA6
:10434000217030E040E050E060E070E080E090E01C
:10435000A0E00E94DD2E41F12E2F3A2D4B2D5C2D39
:104360006D2D702F812F9B2F01E00E94C12E209573
:10437000D7012C93309511963C9311974095129646
:104380004C931297509513965C93139760951496DF
:104390006C931497709515967C9315978095169647
:1043A0008C93169790951FC02E2F3A2D4B2D5C2D78
:1043B0006D2D702F812F9B2F01E00E94C12ED70100
:1043C0002C9311963C93119712964C931297139637
:1043D0005C93139714966C93149715967C9315978A
:1043E00016968C93169717969C938F2F28960FB638
:1043F000F894DEBF0FBECDBFDF91CF911F910F911B
:10440000FF90EF90DF90CF90BF90AF900895CF9244
:10441000DF92EF92FF920F931F93CF93DF93CDB76D
:10442000DEB728970FB6F894DEBF0FBECDBF8C0164
:104430006B017A01BE016F5F7F4F0E947B21882351
:1044400061F1F60194819430A1F09830E1F4998102
:10445000F70190839A8191839B8192839C819383BE
:104460009D8194839E8195839F8196839885978370
:1044700014C009811A812B813C81F70100831183CB
:10448000228333830AC0F80186819781892B21F426
:1044900082EC93E09783868380E028960FB6F894A9
:1044A000DEBF0FBECDBFDF91CF911F910F91FF9067
:1044B000EF90DF90CF90089544E050E00C94541AB0
:1044C000BA010C945C2248E050E00C94541ABA01F2
:1044D0000C9463228627682F62956827062E6695BE
:1044E00066956025062E669560256770082E892FD3
:1044F000669507946795902D862706946795902575
:10450000862708950895FC01A489B58912961C9206
:10451000129714961C921E9213978FEF9FEF1A9684
:104520009C938E931997138A128A108A118A8AE0B3
:1045300090E093838283178E168E08959F92AF9298
:10454000BF92CF92DF92EF92FF920F931F93CF9380
:10455000DF931F92CDB7DEB78C016115710581F431
:10456000CE010196D80115969C938E9314971796B9
:104570009C938E93169719969C938E93189707C0C9
:10458000FC01758364836F5F7F4F77836683D801F7
:1045900014962D913C91159716968D919C91179795
:1045A0002817390709F443C227E0A22EB12C992419
:1045B0009394D8011296ED91FC9113973197EC30BA
:1045C000F10508F014C2E05AFF4F0C94A02ED80158
:1045D0005496ED91FC915597F184E12CF286E18699
:1045E00014968D919C911597DC018C919701280F61
:1045F000311DC90132872187D80152962D913C91F6
:1046000053978217930741F450969C9250971E96A9
:104610008D919C911F971CC0F801918A1BC0D801F5
:104620001496ED91FC911597808190E01D969C93D6
:104630008E931C975496ED91FC9155972581368168
:104640002817390710F451969C92D80150969C92E5
:1046500094838383F8018481958101969583848373
:10466000268137818217930709F4C1C1D8011496B6
:10467000ED91FC91159780818C3721F0F801138220
:104680001282EFC1D80114968D919C9115970196D5
:1046900015969C938E93149716962D913C9117978F
:1046A0008217930709F4A6C1D8011496ED91FC91E5
:1046B000159780818C3711F7F801848195810196D7
:1046C00095838483268137818217930709F495C1E6
:1046D000D8011496ED91FC91159780818C3771F675
:1046E00050961C92F801848195810196958384836C
:1046F000268137818217930709F487C1D801549620
:10470000ED91FC9155971182108214968D919C9198
:104710001597DC018C9190E091838083F80184816E
:10472000958101969583848326813781821793072B
:1047300009F46EC1D8015496ED91FC9155971496E9
:104740008D919C911597DC018C91D080C12C9601A4
:10475000282BC90191838083D80114968D919C9157
:104760001597019615969C938E93149716962D91F6
:104770003C9117978217930709F44DC1D8011496FD
:10478000ED91FC9115978081843679F08E3609F48D
:104790006FC0813609F072CFD8015496ED91FC912B
:1047A0005597828350969C9255CFD8015496ED919F
:1047B000FC9155978283F8018481958101969583B8
:1047C0008483268137818217930709F427C1D80192
:1047D0001496ED91FC911597808190E01D969C9325
:1047E0008E931C975496ED91FC91559725813681B7
:1047F0002817390710F451969C92D8015E96ED91D6
:10480000FC915F97CF0101965F969C938E935E9784
:104810003B96EE0FFF1FE00FF11FB182A0823DC05B
:10482000D80152968D919C9153970E948222F80153
:10483000938B828B0488F589E02D12861186D8012E
:1048400014968D919C911597DC018C9190E0928744
:104850008187F801848195810196958384832681DF
:1048600037818217930709F0B2CE88E090E0C7C085
:10487000D8015496ED91FC9155978283F80184817B
:1048800095810196958384832681378182179307CA
:1048900009F0C5CE89E090E0C7C0D80114968D918B
:1048A0009C911597019615969C938E931497169646
:1048B0002D913C9117978217930709F4B2C0F80124
:1048C00017861686138A128A0480F581E02D60818E
:1048D00080E090E00E946A22D80153969C938E93C8
:1048E00052975496ED91FC9155970780F085E02DF5
:1048F00016C0D8011496ED91FC91159760815296DF
:104900008D919C9153970E946A22F801938B828B20
:104910000488F589E02D0780F085E02DD8011E96EA
:104920008D919C911F979C012F5F3F4F1F963C9349
:104930002E931E9714962D913C911597D9012C9189
:10494000E80FF91F2083F801268537858485958532
:1049500028173907E9F5068CF78DE02DCF0101976F
:10496000D8015F969C938E935E973A96EE0FFF1F49
:10497000E00FF11F8081918113969C938E93129783
:10498000D8011296ED91FC911397ED30F10520F4CA
:10499000E459FF4F0C94A02EF80184819581019673
:1049A00095838483268137818217930709F001CE8E
:1049B0003EC0F80184819581019695838483268188
:1049C00037818217930709F02BCF87E090E02CC046
:1049D000F8018481958101969583848326813781AE
:1049E0008217930709F085CF8CE090E01DC08AE024
:1049F00090E005C081E090E017C082E090E0D8012F
:104A000013969C938E93129712C083E090E00CC093
:104A100084E090E0F4CF85E090E006C086E090E08E
:104A2000EECF8BE090E0EBCFF80193838283D80147
:104A300014962D913C91159718968D919C911997EC
:104A40002817390771F412968D919C9113970B9743
:104A500041F41F961C921E921E9753961C921E9212
:104A600052970F90DF91CF911F910F91FF90EF9090
:104A7000DF90CF90BF90AF909F900895833081F0EA
:104A800028F4813099F08230A1F008958630A9F0A1
:104A90008730B9F08430D1F4809180008F7D03C0DD
:104AA000809180008F7780938000089584B58F7700
:104AB00002C084B58F7D84BD08958091B0008F774A
:104AC00003C08091B0008F7D8093B0000895CF9394
:104AD000DF9390E0FC01EF54F44F2491FC01EB5381
:104AE000F44F8491882349F190E0880F991FFC01CD
:104AF000ED51F44FA591B4918752944FFC01C591AB
:104B0000D4919FB7611108C0F8948C9120958223AD
:104B10008C93888182230AC0623051F4F8948C917E
:104B2000322F309583238C938881822B888304C015
:104B3000F8948C91822B8C939FBFDF91CF91089535
:104B40000F931F93CF93DF931F92CDB7DEB7282F1C
:104B500030E0F901E356F44F8491F901EF54F44F3A
:104B60001491F901EB53F44F04910023C9F0882309
:104B700021F069830E943E256981E02FF0E0EE0F6D
:104B8000FF1FE752F44FA591B4919FB7F8948C9111
:104B9000611103C01095812301C0812B8C939FBFAD
:104BA0000F90DF91CF911F910F9108958E3008F0F3
:104BB0008E5087702091060190E4299F9001112466
:104BC000822B80937C0080917A00806480937A00AD
:104BD00080917A0086FDFCCF809178002091790049
:104BE00090E0922B08951F920F920FB60F9211240E
:104BF0002F933F938F939F93AF93BF9380913F07E2
:104C000090914007A0914107B091420730913E0733
:104C100023E0230F2D3720F40196A11DB11D05C0FF
:104C200026E8230F0296A11DB11D20933E07809315
:104C30003F0790934007A0934107B09342078091AC
:104C4000430790914407A0914507B091460701960C
:104C5000A11DB11D8093430790934407A09345077E
:104C6000B0934607BF91AF919F918F913F912F9144
:104C70000F900FBE0F901F9018953FB7F89480913A
:104C8000430790914407A0914507B091460726B588
:104C9000A89B05C02F3F19F00196A11DB11D3FBF74
:104CA0006627782F892F9A2F620F711D811D911D04
:104CB00042E0660F771F881F991F4A95D1F7089524
:104CC000CF92DF92EF92FF92CF93DF936B017C0143
:104CD0000E943D26EB01C114D104E104F10479F0F6
:104CE0000E943D266C1B7D0B683E7340A0F381E063
:104CF000C81AD108E108F108C851DC4FECCFDF91A8
:104D0000CF91FF90EF90DF90CF900895789484B585
:104D1000826084BD84B5816084BD85B5826085BDB7
:104D200085B5816085BDEEE6F0E08081816080839D
:104D3000E1E8F0E010828081826080838081816080
:104D40008083E0E8F0E0808181608083E1EBF0E047
:104D5000808184608083E0EBF0E0808181608083EB
:104D6000EAE7F0E0808184608083808182608083D4
:104D70008081816080838081806880831092C100FF
:104D80000895FC0124853585F901E05CFF4F8081A1
:104D90009181F901EE5BFF4F20813181821B930BE2
:104DA0008F7399270895FC0184859585FC01E05C4B
:104DB000FF4F40815181FC01EE5BFF4F208131812B
:104DC0004217530741F00190F081E02DE80FF91FE1
:104DD000808190E008958FEF9FEF0895FC01848516
:104DE0009585FC01E05CFF4F40815181FC01EE5B49
:104DF000FF4F208131814217530779F0A081B181A3
:104E0000A80FB91F8C91208131812F5F3F4F2F73E5
:104E100033273183208390E008958FEF9FEF08952B
:104E2000FC0181A1882329F0A489B5898C9186FF92
:104E3000FBCF11A20895CF93DF93FC012685378520
:104E4000D901A05CBF4F8D919C91119701968F73F2
:104E50009927E901CE5BDF4F488159818417950777
:104E6000D9F30D90BC91A02DA20FB31F6C93A68512
:104E7000B785A05CBF4F11969C938E93A689B78986
:104E80002C9181E090E0078C02C0880F991F0A9452
:104E9000E2F7282B2C9381E081A30488F589E02D8B
:104EA00080818064808381E090E0DF91CF910895DC
:104EB00008951F920F920FB60F9211242F933F93D4
:104EC0004F938F939F93EF93FF938091C00082FD48
:104ED0001CC04091C6008091ED079091EE070196AD
:104EE0008F7399272091EF073091F007821793076E
:104EF00071F0E091ED07F091EE07E355F84F408334
:104F00009093EE078093ED0702C08091C600FF9159
:104F1000EF919F918F914F913F912F910F900FBEE5
:104F20000F901F90189587E497E00E94C126892B67
:104F300011F00C94582708951F920F920FB60F92FC
:104F400011242F933F938F939F93EF93FF9320917F
:104F5000A9073091AA078091AB079091AC07281759
:104F6000390731F48091C1008F7D8093C10014C056
:104F7000E091AB07F091AC07E759F84F20818091A1
:104F8000AB079091AC0701968F7399279093AC076C
:104F90008093AB072093C600FF91EF919F918F9173
:104FA0003F912F910F900FBE0F901F901895CF92A9
:104FB000DF92EF92FF92CF93DF93EC016A017B01C6
:104FC000411581EE580761057105F9F0EC89FD89FD
:104FD00081E090E008A002C0880F991F0A94E2F7D0
:104FE000808360E079E08DE390E0A70196010E9464
:104FF0007E2E215031094109510956954795379523
:105000002795211580E1380798F0EC89FD891082F9
:1050100060E874E88EE190E0A70196010E947E2E80
:1050200021503109410951095695479537952795E2
:10503000E889F9893083EA89FB89208319A2EE89FE
:10504000FF89408181E090E09C010C8C02C0220F1E
:10505000331F0A94E2F7422B4083EE89FF89408197
:105060009C010D8C02C0220F331F0A94E2F7422BE1
:105070004083EE89FF8940819C010E8C02C0220F83
:10508000331F0A94E2F7422B4083EE89FF89208187
:105090000F8C02C0880F991F0A94E2F78095822333
:1050A0008083DF91CF91FF90EF90DF90CF900895B4
:1050B00010924A071092490788EE93E0A0E0B0E012
:1050C00080934B0790934C07A0934D07B0934E07E6
:1050D00086E295E090934807809347078DEA97E032
:1050E000909354078093530789E697E0909356076F
:1050F0008093550785EC90E090935807809357076D
:1051000084EC90E090935A078093590780EC90E0EC
:1051100090935C0780935B0781EC90E090935E072F
:1051200080935D0782EC90E09093600780935F0727
:1051300086EC90E0909362078093610784E080930F
:10514000630783E08093640787E08093650785E0C9
:105150008093660781E0809367070895CF92DF927E
:10516000EF92FF920F931F93CF93DF936C017A011D
:10517000EB01E60EF71E00E010E0CE15DF0561F052
:105180006991D601ED91FC910190F081E02DC6016D
:105190000995080F191FF1CFC801DF91CF911F9119
:1051A0000F91FF90EF90DF90CF90089561157105FA
:1051B00081F0DB010D900020E9F7AD01415051096C
:1051C000461B570BDC01ED91FC910280F381E02D31
:1051D000099480E090E008950C94D628DC01ED91CC
:1051E000FC910190F081E02D09940F931F93CF93D0
:1051F000DF93EC016DE00E94EE288C016AE0CE01A5
:105200000E94EE28800F911FDF91CF911F910F9187
:1052100008950F931F93CF93DF93EC010E94D6283C
:105220008C01CE010E94F528800F911FDF91CF9154
:105230001F910F9108958F929F92AF92BF92CF923C
:10524000DF92EF92FF920F931F93CF93DF93CDB72F
:10525000DEB7A1970FB6F894DEBF0FBECDBF7C01BD
:10526000C42EE52FCB01D22E19A221E02D1510F06E
:105270002AE0D22E8E010F5D1F4F8D2C912CA12C78
:10528000B12C6C2D7E2FA50194010E947E2E8C2DB9
:10529000D29E80191124015011098A3010F4805DCA
:1052A00001C0895CF8018083211531054105510554
:1052B00021F0C22EE32FCA01E4CFB801C7010E943A
:1052C000D628A1960FB6F894DEBF0FBECDBFDF91F2
:1052D000CF911F910F91FF90EF90DF90CF90BF90F3
:1052E000AF909F908F900895CF92DF92EF92FF92B0
:1052F0000F931F93CF93DF93EC016A017B0121157C
:10530000310579F4E881F9810190F081E02D642F75
:10531000DF91CF911F910F91FF90EF90DF90CF9091
:1053200009942A303105E9F477FF1AC06DE20E9432
:10533000EE288C0144275527BA014C195D096E09E6
:105340007F092AE0CE010E941B29800F911FDF9167
:10535000CF911F910F91FF90EF90DF90CF90089524
:105360002AE0B701A601CE01DF91CF911F910F91E5
:10537000FF90EF90DF90CF900C941B294F925F929B
:105380006F927F928F929F92AF92BF92CF92DF9255
:10539000EF92FF920F931F93CF93DF93EC016A017B
:1053A0007B01B22E9A01AB01C701B6010E949F2D6D
:1053B000882319F062E375E027C026013701E894DD
:1053C00077F82FEF3FEF4FE75FE7C301B2010E948D
:1053D0009F2D81110DC02FEF3FEF4FE75FE7C30116
:1053E000B2010E94102B18161CF466E375E00CC085
:1053F0002FEF3FEF4FE75FE4C701B6010E945F2C3C
:105400001816ACF46AE375E0CE01DF91CF911F91DD
:105410000F91FF90EF90DF90CF90BF90AF909F9053
:105420008F907F906F905F904F900C94D6282FEFC5
:105430003FEF4FE75FECC701B6010E94102B87FDDD
:10544000E1CF20E030E0A901C701B6010E94102B96
:1054500087FF0AC06DE2CE010E94EE288C01F7FAA8
:10546000F094F7F8F09402C000E010E0A12C60E0A6
:1054700070E080E09FE3AB1441F020E030E040E2D8
:1054800051E40E94142BA394F6CF9B01AC01C701F9
:10549000B6010E94AC2A6B017C010E94812B2B017A
:1054A0003C010E94AD2B9B01AC01C701B6010E94DB
:1054B000AB2A6B017C012AE0B301A201CE010E945C
:1054C0001B29080F191FBB2039F06EE375E0CE01D0
:1054D0000E94D628080F191F7B2C772041F120E06D
:1054E00030E040E251E4C701B6010E94AE2C6B01EE
:1054F0007C010E947C2B4B01AA2497FCA094BA2C1F
:105500002AE030E0B501A401CE010E947429080F01
:10551000191FC501B4010E94AF2B9B01AC01C7014B
:10552000B6010E94AB2A6B017C017A94D6CFC801E8
:10553000DF91CF911F910F91FF90EF90DF90CF906F
:10554000BF90AF909F908F907F906F905F904F90A3
:1055500008950C94BE295058BB27AA270ED075C1B8
:1055600066D130F06BD120F031F49F3F11F41EF47E
:105570005BC10EF4E095E7FB51C1E92F77D180F3D1
:10558000BA17620773078407950718F071F49EF540
:105590008FC10EF4E0950B2EBA2FA02D0B01B9018F
:1055A00090010C01CA01A0011124FF27591B99F099
:1055B000593F50F4503E68F11A16F040A22F232FA5
:1055C000342F4427585FF3CF469537952795A795F5
:1055D000F0405395C9F77EF41F16BA0B620B730B9C
:1055E000840BBAF09150A1F0FF0FBB1F661F771F0D
:1055F000881FC2F70EC0BA0F621F731F841F48F4C2
:10560000879577956795B795F7959E3F08F0B3CF47
:105610009395880F08F09927EE0F97958795089531
:10562000D9D008F481E008950CD00FC107D140F023
:10563000FED030F021F45F3F19F0F0C0511139C1B4
:10564000F3C014D198F39923C9F35523B1F3951BF3
:10565000550BBB27AA2762177307840738F09F5F93
:105660005F4F220F331F441FAA1FA9F333D00E2E02
:105670003AF0E0E830D091505040E695001CCAF76F
:1056800029D0FE2F27D0660F771F881FBB1F261734
:1056900037074807AB07B0E809F0BB0B802DBF0107
:1056A000FF2793585F4F2AF09E3F510568F0B6C020
:1056B00000C15F3FECF3983EDCF3869577956795E4
:1056C000B795F7959F5FC9F7880F911D96958795B8
:1056D00097F90895E1E0660F771F881FBB1F6217D7
:1056E00073078407BA0720F0621B730B840BBA0B95
:1056F000EE1F88F7E095089504D06894B111D9C0E1
:105700000895BCD088F09F5790F0B92F9927B751D2
:10571000A0F0D1F0660F771F881F991F1AF0BA9575
:10572000C9F712C0B13081F0C3D0B1E00895C0C054
:10573000672F782F8827B85F39F0B93FCCF386956B
:1057400077956795B395D9F73EF4909580957095C8
:1057500061957F4F8F4F9F4F0895E89409C097FB45
:105760003EF490958095709561957F4F8F4F9F4F38
:105770009923A9F0F92F96E9BB279395F69587957C
:1057800077956795B795F111F8CFFAF4BB0F11F43F
:1057900060FF1BC06F5F7F4F8F4F9F4F16C08823E6
:1057A00011F096E911C0772321F09EE8872F762F1C
:1057B00005C0662371F096E8862F70E060E02AF05D
:1057C0009A95660F771F881FDAF7880F9695879549
:1057D00097F90895990F0008550FAA0BE0E8FEEF1E
:1057E00016161706E807F907C0F012161306E407A5
:1057F000F50798F0621B730B840B950B39F40A269E
:1058000061F0232B242B252B21F408950A2609F47B
:10581000A140A6958FEF811D811D089597F99F677F
:1058200080E870E060E008959FEF80EC0895002428
:105830000A941616170618060906089500240A94F5
:1058400012161306140605060895092E0394000C7B
:1058500011F4882352F0BB0F40F4BF2B11F460FF0A
:1058600004C06F5F7F4F8F4F9F4F089557FD905833
:10587000440F551F59F05F3F71F04795880F97FB14
:10588000991F61F09F3F79F08795089512161306CE
:105890001406551FF2CF4695F1DF08C016161706FD
:1058A0001806991FF1CF8695710561050894089532
:1058B000E894BB2766277727CB0197F908958ADFFD
:1058C00008F48FEF08950AD029ED3BE54EED5EE335
:1058D00045C00EF069C1A8CF6894A0CFCFDFC8F350
:1058E0009923D1F3C6F3DF93CF931F930F93FF92C6
:1058F000C92FDD2788232AF02197660F771F881F7D
:10590000DAF720E030E040E85FEB9FE3883920F0F1
:10591000803E30F021968F771FDEE2EFF0E003C08B
:105920001BDEEFE1F1E055D18B01BE01EC01FB2E56
:105930006F5771097595771F880B990B10DF28E158
:1059400032E741E35FE316D0AF2D9801AE01FF903F
:105950000F911F91CF91DF9110DE77CF0BD075CFD4
:1059600066DF28F06BDF18F0952309F057CF5CCF86
:1059700011249FCF7BDFA0F3959FD1F3950F50E0CB
:10598000551F629FF001729FBB27F00DB11D639FF1
:10599000AA27F00DB11DAA1F649F6627B00DA11D97
:1059A000661F829F2227B00DA11D621F739FB00D3D
:1059B000A11D621F839FA00D611D221F749F3327AD
:1059C000A00D611D231F849F600D211D822F762F46
:1059D0006A2F11249F5750408AF0E1F088234AF043
:1059E000EE0FFF1FBB1F661F771F881F915050408F
:1059F000A9F79E3F510570F011CF5BCF5F3FECF3ED
:105A0000983EDCF3869577956795B795F795E7957A
:105A10009F5FC1F7FE2B880F911D9695879597F98B
:105A20000895FA01EE0FFF1F30962105310599F117
:105A30006115710561F48038BFE39B0749F16894F3
:105A40009038810561F08038BFEF9B0741F09923C2
:105A500042F5FF3FE1053105210511F1E894089475
:105A6000E795D901AA2329F4AB2FBE2FF85FD0F315
:105A700010C0FF5F70F4A695E0F7F73950F019F009
:105A8000FF3A38F49F779F930CD00F9007FC905803
:105A900008953EF0C9CE60E070E080E89FE308958D
:105AA0004FE79F775F934F933F932F9317DF2F918C
:105AB0003F914F915F9152DF4BC011F40EF4B4CE81
:105AC00073C0DCDED0F39923D9F3CEF39F57550B87
:105AD00087FF78D00024A0E640EA900180585695D0
