:100000000C948A070C94BB070C94BB070C94BB0799
:100010000C94BB070C94BB070C94BB070C94BB0758
:100020000C94BB070C94BB070C94BB070C94BB0748
:100030000C94BB070C94BB070C94BB070C94BB0738
:100040000C94BB070C94BB070C94BB070C94BB0728
:100050000C94BB070C94BB070C94BB070C94F627BD
:100060000C94BB070C949C290C948C2A0C94BB0711
:100070000C94BB070C94BB070C94BB070C94BB07F8
:100080000C94BB070C94BB070C94BB070C94BB07E8
:100090000C94D0290C94CB2A0C94BB070C94D60E4C
:1000A0000C94BB070C94BB070C94BB070C94BB07C8
:1000B0000C94BB070C94BB070C94BB070C94BB07B8
:1000C0000C94BB070C94BB070C94BB070C94042A3C
:1000D0000C940A2B0C94BB070C94382A0C94492BD3
:1000E0000C94BB078F0A440C440C440C440C440C85
:1000F000440C440C440C8C0AAC0AAF0A9A0A9D0AC0
:10010000A00AA30AA60AA90ADD0A440C440C440C5E
:10011000440C440C440C440C440C710B800B990BA4
:10012000A60BB40BC90BD40BE20BF00B28253C2516
:1001300052256E259225BB25E425BB24E3240A2500
:1001400033264D2612251625302546256225802585
:10015000AF25AD26FD251226FE242126BC26272705
:100160002A271D27212761272E27322738273C27BA
:10017000402746274A274E276127542758275C27C0
:1001800008000000BE922449123EABAAAA2ABECDA6
:10019000CCCC4C3E00000080BEABAAAAAA3E000018
:1001A0000000BF000000803F000000000008417810
:1001B000D3BB4387D1133D190E3CC3BD4282AD2B47
:1001C0003E68EC8276BED98FE1A93E4C80EFFFBE3F
:1001D00001C4FF7F3F000000000007634236B79B69
:1001E000D8A71A39685618AEBAAB558C1D3CB7CC97
:1001F0005763BD6DEDFD753EF6177231BF0000000F
:10020000803F29204572726F723A204241445F5606
:10021000414C5545007365745F77617665666F7212
:100220006D5F766F6C746167652800667265652026
:100230006D656D6F72793D00737461636B3D00682D
:100240006561703D002E6273733D002E64617461C0
:100250003D0072616D3D0001081001559F0205557A
:10026000BFD404078A059F062FE508350F0A2B0720
:100270006A1311B27B6ADBB98C17596D101025D443
:10028000EDB24C326A56F9DA59112F570ECA4C1496
:10029000181F7923611B2D253513D58322324A1768
:1002A0002720952037253E2067ED3AB21C4D9E1D34
:1002B0008A3B412BDBEFB7DA1F231D273C5EB14C95
:1002C0004B6B263FA92630284F97AA3BC9F25946C7
:1002D0003121AA49895A4567CD57316D5978745FE4
:1002E00082815E59F933CAC79F6692402995304092
:1002F00089FB3B4A3E534CB92B32428B8A3DB13B82
:100300009E6B979A7546CE433A4973693B8241ACDE
:1003100070379132876347DA3449B9B27C3E734E05
:100320003CD659839D6166989296813DB73D4F4575
:10033000D1957798DF67AF50957DDEDF3A56A57689
:100340005CDEC2F2737B48495E554B42B3E66849B6
:10035000DF74C5C156EAC167D764655F4F62D1617A
:10036000D85FF650ABE8C6B6C3825F888E5E62B2D5
:10037000E54BADB1B7B459C7A767B977C0808580E1
:10038000577BDD75594FB4FB9489774EA1A77594BF
:10039000657CE1F29B98A97772AC746761847B9667
:1003A000EB8AA7C9C48975766F9E8CCA85909E6FAB
:1003B00081EA898C76676F7D6661689B59DD8C73F5
:1003C000AA768B82776390AC8AF5B0DDB59179EF30
:1003D0007087FBB7CFABFBEDA1FD96926C86688C66
:1003E00093FDD37C6773A8A3D1FDBB789D839385D0
:1003F000C8DBD1C279AC8881BCB68A96EF916CD14A
:100400009EB1EADF87ADCE8A6FD19EBA9375F79819
:1004100080DF808988877BB28695EBB77982809B65
:10042000AFFBB3ACC6FBDAECA7A1A486D27D98DB08
:100430009BF9A57BE4D3C79293BCEEB5EFA7DA8412
:100440009DB3998B81D0ABD89EB782E8F5A292B1CB
:10045000D697A7EAF7A895CE9798F8A09EA3EAE4C6
:10046000858CAFE9DDDC8BC2BED09DB2DC9BDAEBC4
:10047000FBC88DF7B5AEC3E5A9C3B793D1B8C7AC78
:10048000D0F8F0BBE3A5BCB2A99CED96DBC9CEF9D0
:10049000EEB796B4ABB2AAC7D4DCEFE5D897AAA55D
:1004A000C9C0D4D2EAF2DDC098AEC5F6D4ACE4A39C
:1004B000FDB2BBEDD1B4D4FBF5EBB39BC0EE9DBF59
:1004C000B9F1CEA7A8CFC6BCBFCAD4D1A8E1D2A6E5
:1004D000A7BFDFDDD4C3B7BFA7B7BFACC8E8D4CFD1
:1004E000DFC2ABD9DEF6BFBBD4AFF5E4CAF9BDC9F4
:1004F000B7D8D4B1F3B6DDB5BAD1B9E1D4E9DAAF42
:10050000B9E3C9C3B1ABD4DEDBACFBEAD9FFDEB1E2
:10051000D5ECCAD8B3DEE4B3C2CCD6C2BBFFF3B8C5
:10052000B9FFB8CED8B3E8E6F0B4DDECEAB5EDE457
:10053000E1EEB7C6E0D8ECF5F4CCF6C4F8E5F6D6B3
:10054000CDF7D4F9E6F2DDEFC1E0E9F9E3FBC1C68E
:10055000E1CFC2E4FCFBC7EDD0C3E4FDEAF0CFCBB2
:10056000FCD8C3D3FCD0EDFDD9EED4F2D1D3D6F86C
:10057000D3F5D8E6D4ECF3D3CFEBF9FDEEF4E5FDFB
:10058000D9E9CBD1ECE0D7D2DDFAFEDBE0D1F0DD6A
:10059000E4F2F8E0D8F1D5F6FBDCD1F5FBF0ECF5B0
:1005A000DCF9E5DBFBE1DADDF2F9DBDEF1E7FEDFCA
:1005B000F0F8FEF3EFF8F6F2E8DEFEE4FAF8E2E631
:1005C000FAE1FEEFDFF7E5DEE0E3E7FCF9F6F2E063
:1005D000E3F6EBFCE4F6E0E3E5E9E1E4F8EBFEE565
:1005E000E8F3FEFBE9FFFEFBF7E4E5FBF7E5FEFBC6
:1005F000F6E6FEFBF5FFE8ECFFFFE9EDE9E9EAEEE0
:10060000EAEAFEFAFFFFECF9FFFFEDF2EDEDEEF5A1
:10061000FFFFFEFFFFFFF0F0F0F0F1FFFFFFFEF243
:10062000F2F2FEF3F3F3F4FFFFFFF5FFFFFFFEFF2F
:10063000FFFFF7F7F7F7FEF8F8F8F9FFFFFFFEFA0C
:10064000FAFAFBFBFBFBFEFFFFFFFDFDFDFDFEFEDF
:10065000FEFEFFFFFFFFFF010808BF0302BF5906B0
:100660000303AF6D06B206AA17059718598C22DA54
:100670000F57650A0F12090B0F5E19159397430C5C
:100680000B0F24381B220C0E23BB4526F1112EB272
:1006900097771F6D2892596E4EDD142181593DC701
:1006A000779320975986519F32165B1EC14723C10D
:1006B000296159881B19211CC7B2D9A36B4525573D
:1006C000593FB36D29B893B25B302B7D251F556D13
:1006D0009DEB2E6C3A59754F285FAA4D5F474A5BD8
:1006E00043445E6424B12D2E3A5B4093E740C897A3
:1006F0004727A786A1798537EECE9D4B4CAD3CB5FB
:10070000446548475E9E36A7C29B636DC359B34498
:1007100069D752EF597AAB38ECA9434665CB6EA343
:10072000D53C9163538781575B5968DD4ADFADC77C
:10073000425D755C3F8951B260734141FBAA597DAE
:10074000A1434D3E837BD3D1A3B5CEEB574497D87D
:1007500047895153BB45549E4CA4A3AED2AA50AD79
:100760004EB245D5644A575F5986B8817CBCB564A2
:100770004EEF68666365CD5C6EB3649C61928D9349
:10078000D99A56A3D7F36B4D838EA4FB7A76A986AC
:10079000C5A15953828578ABB377B1C8D59DA98BD4
:1007A00059987E696C9BB6B5C1889A6BA3978AC528
:1007B000AA5EA19EBCD8C9B3DCE8D992FF67A3C7E3
:1007C00087C3A6B2C3EBA288AA60866B83A4C56464
:1007D000D6B26084758E61679861A4A9E5B9EFB25D
:1007E000AA6377CBF5DC979C7A6589D6A4C5B0C39C
:1007F00082777D87D999C2CD8D92C1B270B9F981C6
:10080000AB99747ACA9E85C7F884AF95BDEE71B86E
:10081000DB7EDCCED0D2E7A0D5C07A9DEEDEE2BB97
:10082000A674A3AA9475877DB1B8B5DE8EEFC5898D
:10083000C279B7F6859099D1D0A381AA81B98EEB00
:10084000C6AECCE1F397B892C8ADF48982C5DBB5EA
:1008500096D5C18A83C1DA9ED8D784CDD0CA8D916E
:10086000F9EDBE8F9798F1ADB1A2D7BE9ADB9C91FE
:1008700088ABF38BBEC6B197CDB2BEEDA7BEB0CCF0
:10088000A98E93BD9CD7BDC8D3E597EFA4B3AF9114
:1008900098C6F2CAD5CDD7B8ADA79AA1ABF5DAE123
:1008A000B9C2B0B2A09BAAC4F8D9C09AB3DDA7EA76
:1008B00097D7CDA2B8D6B69A9EA5D9FBCBA4F9CD31
:1008C000D4A3BFECEBBFC8D3D0C5BCBFEEB2BFF260
:1008D000F1D3B5B7BFD0DED5F4DFD6EECDB1C2C708
:1008E000B9D5F2BFBBA9DADFC5EFABB8D0A9DFD26B
:1008F000E7C4C8F0AFEAC1ECE6CDE8BFCBB9C6F7B4
:10090000EABFD8DFF6FFCEC5C8FFAFBCCBADC7FA94
:10091000D0BCDCCEF9C9C4FAE7DCD2E8F1B1BAF652
:10092000F5B2F7DDD3FFC5C7BFFFD0C3C5FFC3CB4B
:10093000CEC3FEEBD0D8C6BFC0E6BFF0BECEC0DD92
:10094000E7C0E0BFCFC5D8C8F8D6CEC1D4C0FAF44E
:10095000D7EAFAD5C1C2F5CEEBFBD7C2D2CDEEF3C2
:10096000C4E5FEEBC5EFD2C5E6D2ECCFF0EEEBCBA3
:10097000EFCEEADCEFD7D1F1F6D9CDCAD7D2E0CBB2
:10098000EDDDFEF7DBE7F1F7EBD0CDEEE9FADAEDDE
:10099000E6D9D4EBF4DBF8D7D3F1FED9D4DEE2DA32
:1009A000F3D7EAF5D6EFF7F4DFD9F7F4E1EBD6F4B5
:1009B000E3DCD7E1E5DDDFE3EDF8D9F2DDDFF5F1EA
:1009C000DEF7DBE9FAE2F4FCFAF7F3DFE2E5E9FC53
:1009D000F9E6F1E1F9E7FEFBF9F5FEFBE7F4E2FBEE
:1009E000F8EDE3E6F8E3E4E7EBFFFEE8ECFFE6E929
:1009F000EEFFE7EAF0E7FEFAE8E8FEFAFFFFFEFAAC
:100A0000FFFFEBEFEBEBFEF1ECECFEF9FFFFFEF787
:100A1000EEEEEFEFEFEFFEFFFFFFFEF1F1F1F2FF81
:100A2000FFFFF3FFFFFFFEF4F4F4FEF5F5F5F6F635
:100A3000F6F6FEFFFFFFF8FFFFFFFEF9F9F9FAFFF8
:100A4000FFFFFEFFFFFFFCFCFCFCFFFFFFFFFFFFC3
:100A5000FFFFFFFFFFFFFFFFFFFFFFFBF6F2E3E9F2
:100A6000DCD6F1C3F6ECE0F6C3ECFBBCF7FBA180EF
:100A7000A3D6E17AE2A16B868B728A86837B8B8315
:100A8000599B669EA16256997C688B6B494B4E5A66
:100A900056795A46626654674737544F5658464A05
:100AA000384B653752323B47403542322D25493766
:100AB0002B3C44292E28313F384037352B3F2B3FE4
:100AC000291F27202B25281A192526262E292B1CDD
:100AD000171A2D1916182715242320162319181C48
:100AE000131F10151A1112101010150F160E160FD5
:100AF00011170E141310150F12130A10110F090EEF
:100B0000120C0F100E0F0A090B09070C070A0E0D25
:100B10000D0E0E09060909070608090A07070B0A40
:100B20000A0709090707080606060704040406075A
:100B3000070505050407070707040406060404045F
:100B4000040504040404040404030303030303036B
:100B500003020202030303FFFFFFFFFBF7F2F9EAC0
:100B6000EFEDCBF2B9BABDA6CAA192BC8A83C5EF9C
:100B7000B5857AD97199DEAB9FBB959492968083A7
:100B8000BA67975E598D9B5464735368938A806BE0
:100B90006C4A6077524C5946627A4D4F46425049F2
:100BA0005D433055375747393D4737464B582B370C
:100BB000442F2840373D3024272125252C1D291B73
:100BC0002833272E2125213131201E1D17191722E8
:100BD00028221321242013221313141C1117171376
:100BE0001B101E1611191719181711170F170E14AD
:100BF000110C130D0D0F0B0F0C0B140C0B0C130C15
:100C0000090D0A090A090D0E0B0D10090F0A070735
:100C1000070606090D08080A0B0807060808050557
:100C20000507050506060506060605080808050465
:100C30000405050506030303030505030304040473
:100C40000403030303030303030303030303030373
:100C5000030404040202020000090A02080B0C0D3E
:100C6000070603040100000000000000000000006F
:100C70000000000000000000000000000000000074
:100C800000000011100F0000000000000000000034
:100C90000000000000000000000000000001021041
:100CA0002020080810204010204080020102010886
:100CB0000402010102040810204080804020100836
:100CC000040201800402018040201008040201088F
:100CD00004020101020408102040800102040810EF
:100CE00020408005050505070508080808020202DE
:100CF000020A0A08080404040401010101010101B7
:100D0000010303030303030303040707070C0C0C8D
:100D10000C0C0C0C0C020202020606060606060665
:100D2000060B0B0B0B0B0B0B0B00002200250028F6
:100D3000002B002E003100340002010000050108E4
:100D4000010B0100002100240027002A002D0030A3
:100D500000330001010000040107010A01000C94A6
:100D6000E60D0C94A00A0C9457170C9428250C94AB
:100D700021260C94C90B0C943C250C94B40B0C94B8
:100D8000E5070C94FE240C948F0A0C949D0A0C9495
:100D90003A290C94AF1A0C949A1C0C9433260C9498
:100DA000DC1D0C9461270C94EE0C0C94FD0C0C943F
:100DB00058270C94FE0C0C940A250C943C270C9498
:100DC000BC260C94D30C0C94DB0C0C94AD260C9428
:100DD00021270C945A0D0C943F2D0C94FD250C9456
:100DE000E4250C94311E0C94990C0C94210D0C9458
:100DF000DB230C94D40B0C9432270C94990B0C9499
:100E000070080C9412260C944A270C94BA090C947E
:100E1000D0070C9434240C94F7220C9450170C94A3
:100E2000800B0C94E20B0C94FD280C946B2A0C9410
:100E3000710B0C9483160C94BB250C94D8070C945E
:100E4000DD0A0C94D5190C94EB280C942A270C94E9
:100E5000F2070C94E3240C94EC1C0C94A30A0C945D
:100E600045290C946E250C9416250C94AC0A0C9410
:100E700080250C94A60B0C94AF0A0C949B1A0C942E
:100E800046270C94EA070C94C9070C9418290C9473
:100E900043160C94092C0C9414170C94BB240C943A
:100EA0004D260C94AF250C942E270C9460150C94B1
:100EB000E4070C94A60A0C949A0A0C948C0A0C94DD
:100EC0004E270C9492250C9430250C9462250C949A
:100ED000440C0C9454270C9452250C942D0D0C9416
:100EE000BD070C9412250C9446250C94A90A0C9469
:100EF0003B240C945C270C9427270C9440270C94DB
:100F00001D270C94F00B0C94B6190C943827BA09D1
:100F1000E60D092C11241FBECFEFD1E2DEBFCDBFFD
:100F200000E00CBF15E0A0E0B2E0EEEAF7E600E07A
:100F30000BBF02C007900D92A039B107D9F71AE094
:100F4000A0E9B5E001C01D92AA3CB107E1F71FE09E
:100F5000C4E1DFE000E006C022970109FE010BBFFB
:100F60000E949233CE30D10780E00807A9F70E9493
:100F70008C0C0C94D5330C940000DC011296ED918E
:100F8000FC9113978189882311F085E6089580E00C
:100F90000895DC011296ED91FC91139780890895D4
:100FA000DC011296ED91FC9113978489958908953F
:100FB000DC0114968D919C911597DC01ED91FC91CB
:100FC0000480F581E02D19940895FC0182819381BC
:100FD0000C945724FC0182819381FC01758B648BF6
:100FE0000C9457240F931F93CF93DF93FA01C08182
:100FF000D181FC01048115810031110540F4A80163
:10100000BE010E94281C882311F0088B02C0188A98
:1010100080E0DF91CF911F910F910895EF92FF92A1
:101020000F931F93CF93DF931F92CDB7DEB78C0141
:10103000DC01ED91FC910190F081E02D1995811179
:1010400045C0D801ED91FC910280F381E02DC801EB
:10105000199581113BC0E12CF12CF8018481958117
:10106000DC01ED91FC910480F581E02D19951816B5
:10107000190654F5F80184819581DC01ED91FC910C
:101080000680F781E02D19958983BE016F5F7F4F40
:10109000F801828193810E947224FFEFEF1AFF0A08
:1010A000D801ED91FC910190F081E02DC8011995D6
:1010B00081110AC0D801ED91FC910280F381E02DED
:1010C000C8011995882349F2C70102C080E090E069
:1010D0000F90DF91CF911F910F91FF90EF900895A6
:1010E0000F931F93CF93DF93EC0100E010E08C810E
:1010F0009D81DC01ED91FC910480F581E02D199535
:1011000018161906B4F5CE010E940E08080F191F13
:10111000E881F9810280F381E02DCE011995E88103
:10112000F981882351F0AA81BB8154966D917C91FD
:1011300055970088F189E02D12C00190F081E02DD3
:10114000CE011995882399F2E881F981AA81BB81A2
:1011500054966D917C9155970684F785E02DCE01CC
:101160001995E881F9810480F581E02DCE0119956A
:10117000BECFC801DF91CF911F910F910895CF93FA
:10118000DF9387E096E00E94A1138AEC96E00E942C
:10119000990D8CE08093B800C8E1D0E0D09394061C
:1011A000C09393068AE996E09093960680939506FD
:1011B00040E052EC61E070E084E898E00E94882B07
:1011C000D093C205C093C10582EB96E09093C4050D
:1011D0008093C3058CEB95E09093B1058093B005A7
:1011E0008CE995E00E94572461E085E30E94622724
:1011F00061E088E00E94622761E089E00E94622746
:101200000E94AF0C61E085E30E949B2761E089E0CA
:101210000E949B2760E088E0DF91CF910C949B2790
:101220000F931F93CF93DF93EC018B01E881F9813A
:101230006F5F7F4F0280F381E02D41E050E0199510
:10124000E881F9810280F381E02D41E050E0B801AE
:10125000CE01DF91CF911F910F911994DC01ED9197
:10126000FC910280F381E02D41E050E01994EF926F
:10127000FF920F931F93CF93DF93CDB7DEB76197A4
:101280000FB6F894DEBF0FBECDBF8C018BE0FB0123
:10129000DE01119601900D928A95E1F71B861A8660
:1012A000E12CF12C2C813D818A859B85E216F30689
:1012B00068F4E885F985EE0DFF1D60810E943E24EB
:1012C0009B878A878FEFE81AF80AECCF0E94562492
:1012D0009B878A874CE75CE76CE770E04C875D870B
:1012E0006E877F87D801ED91FC910280F381E02D1C
:1012F00043E050E0BE01645F7F4FC8011995BE0115
:101300006F5F7F4FC8010E9410098B81898BBE01DE
:101310006F5E7F4FC8010E942E0989898436E9F4E7
:101320008C81888BBE01605F7F4FC8010E942E09AF
:101330004C815D814115510551F0D801ED91FC9131
:10134000688579850280F381E02DC8011995BE0179
:10135000665F7F4FC8010E94100961960FB6F8942E
:10136000DEBF0FBECDBFDF91CF911F910F91FF90D8
:10137000EF900895CF93DF9310928F0610928E0610
:101380001092900610929206109291061092940676
:101390001092930610929606109295068FEF9FEF8B
:1013A000909398068093970627E036E030930606E0
:1013B00020930506C7ECD5E025E036E03983288385
:1013C0001092BD051092BC051092BE051092C0058A
:1013D0001092BF051092C2051092C1051092C4056B
:1013E0001092C3059093C6058093C505ACE9B5E09E
:1013F0001C9210929D051092A9051092A8051092BA
:10140000AB051092AA051092AF051092AE0510928E
:10141000B1051092B005E8E9F5E084E898E0918321
:101420008083D0939B05C0939A05B0939305A093B6
:10143000920590939505809394058BE092E09093AC
:10144000910580939005F0939705E0939605DF91C1
:10145000CF910895AF92BF92CF92DF92EF92FF9219
:101460000F931F93CF93DF93CDB7DEB7E3970FB6FC
:10147000F894DEBF0FBECDBF8C016A017901C901AE
:101480000E943D1D2C8B3D8B4E8B5F8B688F798F1F
:101490008A8F9B8F9E01255F3F4FAE014F5F5F4F4D
:1014A000BE01645E7F4FCE0144960E94951E882344
:1014B00019F13C8D3230D1F489819A81AB81BC81A4
:1014C000E5E8F2E0A080AA2089F04A2D50E060E033
:1014D00070E0481759076A077B0731F421812770AC
:1014E00019F08A2D90E00AC03896ECCF632FCE0118
:1014F00044960E94EA1ECECF8FEF9FEF5C0121E061
:10150000A21AB10882E1A816B10408F0BDC1F50124
:10151000EE58FF4F0C9449332DED33E022C082EF9B
:1015200097E0988B8F87C80102969A8B898B25EE5E
:1015300033E017C025EA33E014C025E933E011C0D9
:1015400025E833E00EC025E733E00BC02DE633E09D
:1015500008C02DE533E005C025ED33E002C025EBE2
:1015600033E0BE016F5F7F4FCE0144962AAB3BABA9
:101570000E94301F2AA93BA9882379F0AE01455F5C
:101580005F4FB901CE0101960E94D722BE016F5F65
:101590007F4FCE0144960E942721A601B701CE01BC
:1015A00001960E94731592E1A916B10408F06CC16E
:1015B000F501EC57FF4F0C9449336B858AEC96E0AC
:1015C0000E94C60DD80152964C9150E0B8016E5F52
:1015D0007F4F8AEC96E00E942D0D8AEC96E00E94E7
:1015E000E30D882321F08FEF9FEFDC0163C01EA67F
:1015F0001FA618AA19AA00E010E08AE0A82EB12CB4
:1016000041E06B858AEC96E00E94C30D813029F0A1
:101610008EEF9FEFAFEFBFEF4DC08AEC96E00E94D8
:10162000DB0C8F3F31F5053011052CF461E070E0E3
:1016300080E090E007C00A30110564F46AE070E0D1
:1016400080E090E00E9463280F5F1F4F0531110575
:10165000B9F634C0B8016A507109F50102C0EE0F45
:10166000FF1F6A95E2F7BF01882777FD8095982FC5
:10167000E9CF482F50E060E070E0813228F04EA7BB
:101680005FA768AB79AB1AC06C01DD244EA75FA7DA
:1016900068AB79AB4C2D6B858AEC96E00E94C30D4C
:1016A000082F10E00C151D0511F467010AC0C601D2
:1016B000A0E0B0E08EA79FA7A8ABB9AB0DE413E004
:1016C000C1C0C6018E199F098017910740F48AECAA
:1016D00096E00E94DB0CD6018D936D01F2CFC8011C
:1016E000D5C08FEF91E280509240AA2797FDA09538
:1016F000BA2F8EA79FA7A8ABB9AB0DE313E0A2C08A
:101700002091C60A3091C70A8DB79EB721153105C1
:1017100019F48A5C9A4002C0821B930BAA2797FD9A
:10172000A095BA2F8EA79FA7A8ABB9AB0DE213E087
:1017300089C0D801ED91FC912B894F856B85808103
:1017400091810E94411005E213E07CC04B855C85CD
:101750006D857E85D801ED91FC91808191810E94FB
:10176000BC110DE113E06EC04B855C856D857E85F7
:10177000D801ED91FC91808191810E94071190E048
:10178000A0E0B0E08EA79FA7A8ABB9AB0DE013E037
:1017900059C0D801ED91FC916B85808191810E94A7
:1017A0001D1505E013E04EC04B855C856D857E857B
:1017B000D801ED91FC91808191810E9405150DEF7A
:1017C00012E040C0D801ED91FC91808191810E948E
:1017D0002D156EA77FA788AB99AB0DEE12E032C036
:1017E000D801ED91FC918B858130C9F058F08230A1
:1017F000F9F4808191810E940D106CA77DA78CA5C2
:101800009DA518C0808191810E940D102C8F3D8F65
:101810004E8F5F8F68A379A38C8D9D8D0BC08081C7
:1018200091810E940D104CA35DA38CA19DA102C0CB
:101830008FEF9FEFA0E0B0E08EA79FA7A8ABB9AB5A
:101840000DED12E06DE272E0DB018C918823E1F096
:10185000FB01868197818017910799F4CE0101964B
:101860000E948517882381F0AE01425D5F4FB80169
:10187000CE0101960E94001A882331F08F8198854D
:1018800005C0685F7F4FE0CF8FEF9FEFE3960FB605
:10189000F894DEBF0FBECDBFDF91CF911F910F91A6
:1018A000FF90EF90DF90CF90BF90AF900895CF93CF
:1018B000DF93EC01CB016B817C812A81243691F48A
:1018C0006115710579F02F8138854D815E810E9407
:1018D0002A0A97FF05C08EE68A831C821B8202C0FB
:1018E0009C838B83DF91CF910895E0919005F091D7
:1018F00091050484F585E02D80E995E019958091A6
:101900009906882341F067EC75E08EE896E00E9426
:10191000570C1092990608950E9489280E94BF08CA
:10192000CBE6DAE20E94750C2097E1F30E946B2A65
:10193000F9CF0F931F93CF93DF938B01FC01C681E7
:10194000D7816A817B81C8010E94570CB8018881C8
:101950009981DF91CF911F910F910C94370961E02C
:1019600085E30E949B2761E085E30E9462278CB596
:1019700080618CBD8CB580648CBD61E084E30E9485
:10198000622761E083E30C946227811103C08CB568
:10199000806202C08CB58F7D8CBD08959CB5937F0D
:1019A000982B9CBD08958091FE0690E02091FF0643
:1019B000821B910908952091FF068091FE06281749
:1019C00050F4E22FF0E0E050F94F808190E02F5F7B
:1019D0002093FF0608958FEF9FEF0895E091FF0693
:1019E0008091FE06E81730F4F0E0E050F94F808176
:1019F00090E008958FEF9FEF08950895E091D60647
:101A0000F091D7063097E1F03091FF062091FE0665
:101A10003217B0F040E0242F30E02617370754F497
:101A2000DC01A20FB31F5C91D901A050B94F5C93A8
:101A30004F5FF1CF1092FF066093FE06CB01199421
:101A40000895E091D806F091D906309729F01092C8
:101A5000DC061092DB0619940895CF92DF92EF9284
:101A6000FF920F931F93CF93DF937C01CB018A01E9
:101A70002091DA06222389F0EB016B01C40ED51EFA
:101A8000CC15DD0569F06991D701ED91FC910190CC
:101A9000F081E02DC7011995F3CF642F0E94A30EAA
:101AA000C801DF91CF911F910F91FF90EF90DF90D0
:101AB000CF900895CF93DF931F92CDB7DEB76983A0
:101AC0002091DA062223D1F02091DB06203240F06B
:101AD00021E030E0FC013383228380E090E015C0F8
:101AE0008091DC06E82FF0E0E352F94F9981908372
:101AF0008F5F8093DC068093DB0605C061E0CE013A
:101B000001960E94A30E81E090E00F90DF91CF91AB
:101B10000895FC011382128248EE53E060E070E009
:101B2000448355836683778381E292E09183808347
:101B300008951092FF061092FE061092DC06109295
:101B4000DB060C94EA0DCF93DF93EC01862F0E9405
:101B5000080E81E29DE00E94C10E8EEF9CE00E9483
:101B6000BC0ECE01DF91CF910C94990D862F41329E
:101B700008F040E260E077E00E940C0E1092FF0651
:101B80008093FE06089521E00C94B60D81E08093C9
:101B9000DA066093FD061092DC061092DB060895CB
:101BA0000F93062F21E04091DB066DED76E08091EA
:101BB000FD060E94500E1092DC061092DB06109279
:101BC000DA060F91089561E00C94D00D8AEC96E04E
:101BD0000C94890D10928D0781E080938B071092F1
:101BE0008A0761E084E10E949B2761E085E10E9411
:101BF0009B27E9EBF0E080818E7F808380818D7F61
:101C0000808388E48093B80085E48093BC000895C5
:101C1000880F8093BA000895413208F03FC0909138
:101C20008D079111FCCF91E090938D0720938B0746
:101C30002FEF2093200710926507240F209364074D
:101C400090938C0790918C07880F892B80938C0739
:101C500080918A07813041F410928A0780918C0725
:101C60008093BB0085EC01C085EE8093BC00809121
:101C70008D078130E1F380916507841710F440915E
:101C8000650726E637E0FB01D9018A2F821B8417FE
:101C900018F48D918193F9CF842F089580E00895F1
:101CA0000F93413208F046C090918D079111FCCFFF
:101CB00092E090938D0700938B079FEF90932007FE
:101CC0001092650740936407FB0166E677E0DB014D
:101CD0009A2F961B941718F491919D93F9CF109217
:101CE0008C0790918C07880F892B80938C078091AB
:101CF0008A07813041F410928A0780918C07809383
:101D0000BB0085EC01C085EE8093BC00222321F04E
:101D100080918D078230E1F3809120078F3F61F041
:101D200080912007803251F080912007803341F468
:101D300083E007C081E005C080E003C082E001C00D
:101D400084E00F910895613298F420918D0724303A
:101D500089F460934207FC0184E497E0DC012A2FB8
:101D6000281B261718F421912D93F9CF80E00895B0
:101D700081E0089582E00895909387078093860715
:101D800008959093890780938807089585ED80933F
:101D9000BC008091BC0084FDFCCF10928D0708959B
:101DA00085EC8093BC0010928D0708951F920F92CE
:101DB0000FB60F9211240BB60F922F933F934F93B0
:101DC0005F936F937F938F939F93AF93BF93EF93A3
:101DD000FF938091B900887F803609F49CC068F534
:101DE000883209F45BC090F4803109F454C038F4AF
:101DF000882309F4F5C0883009F44DC0F5C0883156
:101E000009F44CC0803209F45DC0EEC0803409F49E
:101E100068C048F4803309F455C0883309F0E4C041
:101E200080932007A8C0803509F44FC0883509F495
:101E30005DC0883409F0D8C0D5C0883909F4C6C05F
:101E4000A8F4883709F467C038F4883609F463C009
:101E5000803709F460C0C8C0883809F4B7C0803939
:101E600009F45FC0803809F0BFC05BC0803B09F453
:101E700085C038F4803A09F466C0883A09F47EC017
:101E8000B3C0803C09F4A6C0883C09F4A3C0883BD9
:101E900009F489C0A9C080918C0710C09091650792
:101EA00080916407981770F5E091650781E08E0FC7
:101EB00080936507F0E0EA59F84F80818093BB007A
:101EC00085EC85C0809320078DC0E091650781E097
:101ED0008E0F809365078091BB00F0E0EA59F84FC0
:101EE000808390916507809164076DC0E0916507DC
:101EF00081E08E0F809365078091BB00F0E0EA5986
:101F0000F84F808380918B0781116CC081E08093B2
:101F10008A0784EA60C083E080938D0710922107CE
:101F2000CFCF80912107803208F050C0E091210787
:101F300081E08E0F809321078091BB00F0E0EE5D81
:101F4000F84F8083BDCF80912107803230F4E0913B
:101F50002107F0E0EE5DF84F10820E94C60E6091FE
:101F6000210770E0E0918607F091870782E297E011
:101F70001995109221070E94D00E36C084E08093FC
:101F80008D071092430710924207E0918807F09165
:101F90008907199580914207811105C081E08093DE
:101FA000420710924407E091430781E08E0F80932F
:101FB0004307F0E0EC5BF84F80818093BB00909189
:101FC000430780914207981708F47ACF85E88093F9
:101FD000BC000AC085EC8093BC0010928D0704C041
:101FE000109220070E94C60EFF91EF91BF91AF9112
:101FF0009F918F917F916F915F914F913F912F9121
:102000000F900BBE0F900FBE0F901F9018958EBDB6
:102010000DB407FEFDCF8EB50895CF93DF93CDB7F6
:10202000DEB72C970FB6F894DEBF0FBECDBF46E0EB
:1020300050E060E070E0CE0107960E94AD3386E08C
:10204000FE013796DE01119601900D928A95E1F717
:1020500029813A814B815C816D817E8180E090E0B5
:102060002C960FB6F894DEBF0FBECDBFDF91CF9197
:10207000089545E150E060E070E08C599F4F0C946A
:10208000BD33EF92FF920F931F93CF93DF931F9275
:10209000CDB7DEB77C01062F142F60E083E02983E3
:1020A0000E949B27802F0E940710812F0E940710FB
:1020B00061E083E00E949B27B701600F711DFB0167
:1020C000EF57FF4F10832981222371F0FB01E5595F
:1020D000FF4F1083C7010F90DF91CF911F910F9198
:1020E000FF90EF900C9439100F90DF91CF911F91DA
:1020F0000F91FF90EF900895DF92EF92FF920F9370
:102100001F93CF93DF93EC01D62E7C0184E6E80E7B
:10211000F11C45E150E060E070E0C7010E94AD3382
:10212000F70180819181DE01AA59BF4F9E01285994
:102130003F4F8E0106591F4F892B61F48D919C9161
:102140001197892B39F4F90180819181892B11F440
:10215000DD20E9F1F701118210821D921C92F90134
:10216000118210828AE0F801808380E8FE01E5593F
:10217000FF4F8083FE01E459FF4F8083FE01E35946
:10218000FF4F8083FE01E259FF4F8083FE01E1593A
:10219000FF4F8083FE01E059FF4F80834CEE51E5F5
:1021A00068E97FE3FE01EF58FF4F4083518362836C
:1021B000738340E050E060EE70E4FE01EB58FF4FA7
:1021C0004083518362837383CE010E943910F801EA
:1021D00060818AEC96E00E94A30D00E010E0FE0111
:1021E000E00FF11FE559FF4F20E04081602FCE0145
:1021F0000E9441100F5F1F4F0630110581F7DF91DC
:10220000CF911F910F91FF90EF90DF9008958F92E3
:102210009F92AF92BF92CF92DF92EF92FF920F9375
:102220001F93CF93DF93EC016A017B0120E030E044
:10223000A901C701B6010E94B92F87FD0FC0FE0199
:10224000EB58FF4F80809180A280B380A50194015C
:10225000C701B6010E940831181614F565E172E055
:102260008EE897E00E9496336EE877E084E898E085
:102270000E947D2D22E030E0B701A60184E898E0BD
:102280000E94522F62E072E08EE897E00E9496333F
:102290006EE877E084E898E00E949A2D89EF5FC0AD
:1022A000FE01E358FF4FC082D182E282F382A50192
:1022B0009401C701B6010E94BD2F20E030EC4FE72A
:1022C00054E40E9457316B017C0120E030E0A90109
:1022D0000E94083120E030E040E05FE387FD05C068
:1022E000C701B6010E94552F04C0C701B6010E9464
:1022F000542F0E942530FE01EB57FF4F8081AB0128
:10230000495A594FFA0194918B01095A1D4F89136B
:1023100008C0F8019491FE01EA57FF4F2081291768
:1023200089F0FA01F4908F1578F4F801449120E0D7
:1023300065E0CE010E94411020E04F2D64E0CE0107
:102340000E94411080E00BC020E04F2D64E0CE01E0
:102350000E944110F801449120E065E0F0CFDF9148
:10236000CF911F910F91FF90EF90DF90CF90BF9092
:10237000AF909F908F9008952F923F924F925F92CF
:102380006F927F928F929F92AF92BF92CF92DF9285
:10239000EF92FF920F931F93CF93DF93CDB7DEB7EA
:1023A0002E970FB6F894DEBF0FBECDBF9E878D87E8
:1023B0006A017B01FC01E758FF4F40835183628330
:1023C000738320E030E040E052E4C701B6010E9490
:1023D00057314B015C0120E030EE41E854E40E94AB
:1023E000BD2F0E94173126EA3BE944E550E40E94E4
:1023F00057312EE83DE543E150E40E94BD2F0E9495
:102400002A30762E70E0665F7F4F882777FD8095B3
:10241000982F0E9458309B01AC0160E070E080E092
:1024200090E40E94BA3120E030EE41E055E40E9491
:102430005731A50194010E94BD2F9B01AC0160E0C2
:1024400070E080E095E40E94542F4B015C0120E095
:1024500030E0A9010E94083120E030E040E05FE375
:1024600087FD05C0C501B4010E94552F04C0C501F8
:10247000B4010E94542F0E9425305B019B0196E01D
:10248000369527959A95E1F7729430EF7322722A68
:1024900060E082E00E949B27872D0E9407108A2D12
:1024A000880F880F82600E94071061E082E00E941E
:1024B0009B2720E030E04AE754E4C701B6010E94C0
:1024C000B92F18167CF061E084E00E949B2780E021
:1024D00090E0A0E8BFE389839A83AB83BC831C01AF
:1024E0002D0118C02D853E852F583F4FD9018D9164
:1024F0009D910D90BC91A02D89839A83AB83BC8361
:1025000060E084E00E949B27212C312C80E2482E41
:1025100081E4582EC701B6010E940C314B015C01C9
:1025200020E030E048EC52E4C201B1010E94573192
:102530000E940C319B01AC01C501B4010E94542FD3
:1025400021E830E840E05CE30E94BD2F0E942A3081
:10255000062F10E0F801E95AF44FB49020E04B2D1B
:1025600061E08D859E850E944110F801E95AF54F82
:10257000749020E0472D62E08D859E850E94411079
:102580006B2D70E080E090E00E94563020E030E05B
:102590004FE753E40E94BD2F20E030E543EC57E4C1
:1025A0000E9457314B015C01672D70E080E090E0A4
:1025B0000E94563020E030E04FE753E40E94BD2FE8
:1025C00020E030E543EC57E40E9457316D837E8371
:1025D0008F8398872BED3FE049EC50E4C701B601AB
:1025E0000E94573169877A878B879C87A201910166
:1025F0000E94BD2F9B01AC010E945731A50194019F
:102600000E9457312D813E814F8158850E9457315C
:102610002CE03DED49E453E30E9457312FE635EAC3
:1026200049EE51E30E9457319B01AC0160E070E03C
:1026300080E89FE30E94542F6B017C012FE635EA6E
:1026400049EE51E369857A858B859C850E945731D7
:10265000A20191010E94BD2F2B013C012D813E81E1
:102660004F815885C501B4010E94552F9B01AC01D3
:10267000C301B2010E9457314B015C01A7019601D1
:10268000C701B6010E9457316B017C01A50194017D
:10269000C501B4010E9457319B01AC01C701B601CD
:1026A0000E94552F0E940A329B01AC0160E070E04D
:1026B00080E89FE30E94BD2F9B01AC0160E070E0C9
:1026C00080E093E40E94BD2F29813A814B815C8197
:1026D0000E9457316B017C0120E030E0A9010E948B
:1026E000083120E030E040E05FE387FD05C0C7012E
:1026F000B6010E94552F04C0C701B6010E94542F95
:102700000E94253020E0462F60E08D859E852E9624
:102710000FB6F894DEBF0FBECDBFDF91CF911F91F2
:102720000F91FF90EF90DF90CF90BF90AF909F9070
:102730008F907F906F905F904F903F902F900C9470
:102740004110CF92DF92EF92FF920F931F93CF939E
:10275000DF93EC0161E082E00E94622761E083E0A8
:102760000E94622761E084E00E94622781E00E946B
:10277000C50C80E00E94CE0C0E94AF0C40E052ECF1
:1027800061E070E084E898E00E94882B60E0CE0170
:102790000E947C1040E050E06AE774E4CE010E94A1
:1027A000BC11FE01EB58FF4FC080D180E280F38066
:1027B00020E030E0A901C701B6010E94B92F87FFD0
:1027C00022C065E172E08EE897E00E9496336EE8E1
:1027D00077E084E898E00E947D2D22E030E040E040
:1027E00050E0BA0184E898E00E94522F62E072E063
:1027F0008EE897E00E9496336EE877E084E898E0F0
:102800000E949A2D56C0FE01E358FF4F108211829C
:1028100012821382A701960160E070E0CB010E9452
:10282000BD2F20E030EC4FE754E40E9457316B019C
:102830007C0120E030E0A9010E94083120E030E076
:1028400040E05FE387FD05C0C701B6010E94552F38
:1028500004C0C701B6010E94542F0E9425308B018D
:10286000FE01EB57FF4F8081A801495A594FFA01E9
:10287000949189130AC0F801E95AFD4FE491DE01F1
:10288000AA57BF4F9C919E17A1F0FA01F4908F15A3
:1028900008F0AEC0F801E95AFD4F449120E065E030
:1028A000CE010E94411020E04F2D64E0CE010E9435
:1028B000411062E572E08EE897E00E9496336EE880
:1028C00077E084E898E00E947D2D6FEF71E2605020
:1028D00072404AE050E084E898E00E944F2E6BE49A
:1028E00072E08EE897E00E9496336EE877E084E825
:1028F00098E00E947D2D60E975E0605072404AE0EA
:1029000050E084E898E00E944F2E65E472E08EE883
:1029100097E00E9496336EE877E084E898E00E94A2
:102920007D2D6AEC7AE0605975404AE050E084E819
:1029300098E00E944F2E6FE372E08EE897E00E94CD
:1029400096336EE877E084E898E00E947D2D6091F0
:10295000C60A7091C70A6115710519F06A5C7A4060
:1029600002C060E070E04AE050E084E898E00E9435
:102970004F2E68E372E08EE897E00E9496336EE88F
:1029800077E084E898E00E947D2D8DB79EB76FEFC9
:1029900071E2681B790B4AE050E084E898E00E94FD
:1029A0004F2E6BE272E08EE897E00E9496336EE85D
:1029B00077E084E898E00E947D2D8091C60A90918E
:1029C000C70A6DB77EB7009719F46A5C7A4002C0F7
:1029D000681B790B4AE050E084E898E0DF91CF91E2
:1029E0001F910F91FF90EF90DF90CF900C944F2E9E
:1029F00020E04F2D64E0CE010E944110F801E95A19
:102A0000FD4F449120E065E051CFCF93DF93EC017F
:102A1000FC01EF58FF4F40835183628373830E9410
:102A20003910FE01E758FF4F408151816281738167
:102A3000CE01DF91CF910C94BC11CF93DF93EC01C9
:102A4000FC01E659FF4F60838AEC96E00E94A30DDB
:102A5000CE01DF91CF910C943910EF92FF920F933A
:102A60001F93CF93DF9348EEE42E43E0F42E00E073
:102A700010E0CFEFD3E080E00E94D1278C179D07B4
:102A800008F4EC010817190708F48C0181E0E81A32
:102A9000F108E114F10479F7B8016C1B7D0B80E0BB
:102AA00090E00E9456302AE038E240EA5BE30E9460
:102AB0005731DF91CF911F910F91FF90EF900895C3
:102AC000FC01A281B3819D01240F351F3383228332
:102AD000FB01460F571FE417F50719F081918D93FD
:102AE000FACF81E00895FC0180E695E1918380832F
:102AF00073836283558344831782168211861086FE
:102B0000CF0108950F931F93CF93DF93EC018A01B8
:102B1000E881F981309701F12E813F81240F351F23
:102B20008C819D818217930750F488859985892B24
:102B300021F48DEF93E09987888780E014C0CE015F
:102B40001995811109C028853985232BB1F729E012
:102B500034E03987288707C08E819F81800F911FBD
:102B60009F838E8381E0DF91CF911F910F91089514
:102B70005F926F927F928F929F92AF92BF92CF920D
:102B8000DF92EF92FF920F931F93CF93DF93CDB716
:102B9000DEB762970FB6F894DEBF0FBECDBF6C01F3
:102BA000802F0B87912F1C87522E2D87632E3E87F7
:102BB000742E4F87852E588B962E698BB72F7A8B64
:102BC0008C019801452D562D672D782D892D9B2F31
:102BD000A0E00E94863321F0FE0131967F0106C0FD
:102BE00041E050E0BE01655F7F4F34C05F01AE1829
:102BF000BF089801452D562D672D782D892D9B2FC7
:102C0000A0E00E948633A9F0802F8068819398010C
:102C1000452D562D672D782D892D9B2F07E00E947D
:102C20006A338901542E652E762E872E982EB92F61
:102C3000DDCF1B861C861D861E861F86188A198A74
:102C40001A8AF5013197EE0DFF1D80818F77808301
:102C5000A501B701C6010E94821562960FB6F894CD
:102C6000DEBF0FBECDBFDF91CF911F910F91FF90BF
:102C7000EF90DF90CF90BF90AF909F908F907F901C
:102C80006F905F9008958F929F92AF92BF92CF9274
:102C9000DF92EF92FF920F931F93FA01DB011496DC
:102CA0002C91243059F0283089F480809180A280C2
:102CB000B380C480D580E680F78012C08080918088
:102CC000A280B380C12CD12C76010AC0FC012085E2
:102CD0003185232B61F422E134E03187208707C05E
:102CE00084019501A601B7010E94B81501C080E0DA
:102CF0001F910F91FF90EF90DF90CF90BF90AF901A
:102D00009F908F9008950F931F93CF93FA01DB014B
:102D100014962C912230D9F068F4213091F500817D
:102D2000102F110F110B212F312FC12FB12FA12FD8
:102D3000712F31C02430B1F0283019F50081118194
:102D400022813381C481B581A681778124C011811C
:102D50000081212F220F220B322FC22FB22FA22F40
:102D6000722F19C040815181628173818A019B0158
:102D7000770F440B542FBA01C42FB42FA42F742FF4
:102D80000AC0FC0120853185232B59F422E134E06F
:102D90003187208706C04C2F5B2F6A2F0E94B81501
:102DA00001C080E0CF911F910F910895DF92EF92C3
:102DB000FF920F931F93CF93DF93FC01D22EE32E4C
:102DC000F42ED52FC62FB72F98014D2D5E2D6F2DC8
:102DD0007D2F8C2F9B2FA0E00E94863364F401E0AE
:102DE0000E944F3320953095409550956095709591
:102DF000809590950AC098014D2D5E2D6F2D7D2FE9
:102E00008C2F9B2F01E00E944F3389019A01AB0167
:102E1000BC01CF010E94B815DF91CF911F910F9196
:102E2000FF90EF90DF9008950F931F93CF93FA01D7
:102E3000DB0114962C91243059F02830C1F4008124
:102E4000118122813381C481B581A681778119C026
:102E500040815181628173818A019B01770F440B0C
:102E6000542FBA01C42FB42FA42F742F0AC0FC0111
:102E700020853185232B59F422E134E031872087E6
:102E800006C04C2F5B2F6A2F0E94D61601C080E02F
:102E9000CF911F910F91089544E050E00C9482155A
:102EA000BA010C944C1748E050E00C948215BA011A
:102EB0000C9453178F929F92AF92BF92CF92DF9252
:102EC000EF92FF920F931F93FC01A62F49015A0125
:102ED000A50160E070E080E090E003E00E944F33E5
:102EE000022F242F0A2B132F352FAB01BC01CF014A
:102EF0000E94B8151F910F91FF90EF90DF90CF9037
:102F0000BF90AF909F908F900895FB0121812F700B
:102F10002330A9F090F0243021F0283020F462E032
:102F20000FC061E00DC0FC0120853185232B71F4B9
:102F300024E234E03187208709C060E001C065E009
:102F4000208130E040E050E00C945A1780E0089572
:102F50002F923F924F925F926F927F928F929F92A9
:102F6000AF92BF92CF92DF92EF92FF920F931F9397
:102F7000CF93DF93CDB7DEB72B970FB6F894DEBFB4
:102F80000FBECDBF7C016B015A01DB0111963C9154
:102F9000232F207C203409F4C3C0203811F02111E4
:102FA000D6C081E08B87832F8F7090E0FC01EE0FFD
:102FB000FF1FEA54FB4F40805180F60143814423B8
:102FC00031F0F501E40FF11D47FDFA9502C0FE0155
:102FD0003B96203849F4D501AD90BC9041E0A11456
:102FE000B10409F440E04B873073303189F030325E
:102FF00001F13111ACC0A114B10471F4F701808565
:103000009185892B09F0B0C087E394E0D701A8C06F
:103010008081882309F48BC0B601C7010E948517FF
:10302000882309F4A1C0A501B601C701F2011995D1
:10303000DAC0808091808114910409F478C020382E
:1030400091F0D60115962C9130E02815390558F4E9
:10305000F70180859185892B09F086C08EE494E084
:103060009187808781C005970CF094C0D6012C9180
:1030700030E040E050E062E0C7010E945A17882328
:1030800009F472C0F60181818F70833031F434010C
:10309000660C771C660C771C29C0843039F4340127
:1030A000A3E0660C771CAA95E1F720C0CE0101963B
:1030B0001C018AE0D1011D928A95E9F78501612CF6
:1030C000712CA801B601C101F2011995882309F4F8
:1030D0004BC0D60114968C91080F111DBFEF6B1ACF
:1030E0007B0A6814790469F76F807884830120E093
:1030F00030E040E050E060E070E0C7010E94B815A9
:10310000882391F1F70180819181892B79F5A301C1
:1031100060E070E0C7010E948215882329F107C092
:103120004E5F5F4FD501ED91FC91309711F481E036
:103130005AC019958111FBCFF70120853185232BCA
:1031400009F051C026E634E0318720874CC0D70112
:1031500018968D919C911997892B31F484E294E013
:1031600019969C938E93189780E03DC000E010E084
:10317000A501B601C701F20119958823A9F3D6016B
:1031800014968C91A80EB11C0F5F1F4F08151905DE
:1031900079F7CDCF00E010E0B601C7010E94851796
:1031A000882311F3F6018181982F907C9038C9F41F
:1031B0008F7090E005970297A0F4D5014D915C9136
:1031C000B601C701F2011995882371F2D601149650
:1031D0008C91A80EB11C0F5F1F4F08151905E1F661
:1031E000A6CFA501EDCF2B960FB6F894DEBF0FBE8C
:1031F000CDBFDF91CF911F910F91FF90EF90DF90A6
:10320000CF90BF90AF909F908F907F906F905F9086
:103210004F903F902F9008958F929F92AF92BF92C0
:10322000CF92DF92EF92FF920F931F93CF93DF9392
:103230004C017B015A01EB012896C12CD12CF701DE
:103240008081882309F457C0FE0136978081C80E1B
:10325000D11CAC0CBD1CFE0137978081282F207C2F
:10326000203891F0FE0134979081C92ED12C211184
:103270000EC0282F2073203251F4FE013397C080F6
:10328000C99E6001112403C002E0C02ED12C8F70B2
:10329000883029F5F501008111810115110531F101
:1032A000F801A081B1811296ED91FC9113973097AE
:1032B00021F0B801C40119950AC0F8014281538177
:1032C00014966D917C911597C4010E94A8178111E5
:1032D00002C080E011C0F80104811581DECFA50194
:1032E000B701C4010E94A817882399F3F8E0EF0EF4
:1032F000F11C2896A4CF81E0DF91CF911F910F910F
:10330000FF90EF90DF90CF90BF90AF909F908F9005
:103310000895CF92DF92EF92FF920F931F93CF9376
:10332000DF93EC016B017A018A0120E030E040E09C
:1033300050E060E070E00E94B815882369F0A701B2
:10334000B601CE01DF91CF911F910F91FF90EF90C9
:10335000DF90CF900C94821580E0DF91CF911F9188
:103360000F91FF90EF90DF90CF900895FB01BA018D
:1033700044812181207C203811F050E002C04FEFC1
:103380005FEF6115710561F0FB0120E030E024176B
:10339000350741F0A191AA2329F02F5F3F4FF7CFC6
:1033A00020E030E0A9010C948919FA01309729F442
:1033B00040E050E060E070E01FC0DB0111962C910E
:1033C0001197207C40815181211113C014962C91BA
:1033D00030E0BA016E5F7F4F2617370750F4FC01CB
:1033E00020853185232B51F425E734E03187208770
:1033F00005C0BF016E5F7F4F0C94891980E008956E
:103400006F927F928F929F92AF92BF92CF92DF92F4
:10341000EF92FF920F931F93CF93DF93CDB7DEB759
:103420002A970FB6F894DEBF0FBECDBF7C014B01CB
:103430003A01CE0101965C018AE0F50111928A956C
:10344000E9F7C5010E940C19811106C029853A854A
:10345000F701318720875AC0CF80D884860120E0C9
:1034600030E040E050E060E070E0C7010E94B81535
:10347000882309F44AC0F7012081318121153105E3
:1034800039F4A60160E070E0C7010E9482153EC0D9
:10349000F701868197818C0D9D1D448155814817C8
:1034A000590738F480859185892B79F58DEF93E064
:1034B0002AC03A832983F701828193819C838B837D
:1034C000DE82CD8218861F821A861986A301B40176
:1034D000C5010E940C194F815885F701268137815B
:1034E000240F351F378326832B813C81338322832E
:1034F00029853A85318720874C155D0539F0232BC6
:1035000021F489E894E09187808780E02A960FB6BD
:10351000F894DEBF0FBECDBFDF91CF911F910F9109
:10352000FF90EF90DF90CF90BF90AF909F908F90E3
:103530007F906F900895FB01668177816115710519
:1035400051F4FC0120853185232B39F42DE934E039
:103550003187208702C00C94001A80E00895DC01B6
:103560001296ED91FC9113974E0F5F1F13965C938B
:103570004E9312976115710539F0DB01E417F507D9
:1035800019F081918D93FACF81E00895FC01A28119
:10359000B38114964C911497242F30E011968C919E
:1035A0001197982F907C59F4982F9073903259F47A
:1035B00015962C911597249F9001112404C09038E2
:1035C00011F422E030E09C919923E1F1807329F419
:1035D00086819781019697838683CD010896938390
:1035E00082838481958101969583848318968C913A
:1035F000811110C08081918193838283158214820E
:1036000017821682808591859387828720E030E03B
:1036100080E001C081E0A281B38112969C91129753
:10362000A901490F511D22853385240F351F33878A
:10363000228713969C91290F311D97FD3A95358766
:103640002487089580E00895CF93DF93EC018C8167
:103650009D81892B51F48E819F81892B21F488ECE7
:1036600094E09F838E8380E017C0E881F98141E078
:1036700050E0CE011995811109C02E813F81232B85
:1036800091F729E034E03F832E8306C02C813D81F1
:10369000215031093D832C83DF91CF9108957F9292
:1036A0008F929F92AF92BF92CF92DF92EF92FF9252
:1036B0000F931F93CF93DF931F92CDB7DEB78C018B
:1036C0004B01BE016F5F7F4F0E94241B782E882321
:1036D000E1F1898187FD05C0C82ED12CE12CF12CA8
:1036E00036C08F77C82ED12CE12CF12C87E0A82E84
:1036F000B12CBE016F5F7F4FC8010E94241B88233D
:1037000021F18981482F4F7750E060E070E00A2C6A
:1037100004C0440F551F661F771F0A94D2F7C42AAE
:10372000D52AE62AF72A87FF12C087E0A80EB11C27
:10373000E3E2AE16B104E9F6F80186819781892BA0
:1037400021F486ED94E097838683712C05C0F40103
:10375000C082D182E282F382872D0F90DF91CF91D8
:103760001F910F91FF90EF90DF90CF90BF90AF909F
:103770009F908F907F900895CF93DF93CDB7DEB762
:103780002E970FB6F894DEBF0FBECDBF9C838B8300
:103790009A8389831E821D8218861F82FC012281E2
:1037A000AB01420F511D9A015C874B878381280F23
:1037B000311D87FD3A953E872D877A876987EB8192
:1037C000FC81818190819923A1F1982F907C21F532
:1037D0008073803121F4AD85BE851C9202C0803299
:1037E00021F141814F708B859C852681378147303F
:1037F00029F4BC01C9010E94BC1B1BC0448150E0DC
:103800002115310521F0B9010E949D3312C060E0FD
:1038100070E00E94A6330DC0903859F4EB85FC850A
:10382000118210828073803221F4ED85FE85118231
:103830001082CE0101960E94C61A8111C0CF2E9629
:103840000FB6F894DEBF0FBECDBFDF91CF910895C4
:10385000EF92FF920F931F93CF93DF93CDB7DEB715
:1038600060970FB6F894DEBF0FBECDBF8C017A0112
:103870006115710501F5DC018D919C918F5A9A417A
:10388000D1F0F1E1EF16F10470F040E150E0BE013B
:103890006F5F7F4FC8010E94281C8823F1F1E0E18F
:1038A000EE1AF108EECFA701BE016F5F7F4FC8018E
:1038B0000E94281C32C0D80114968D919C911597B6
:1038C0008E159F0568F416968D919C911797892BFC
:1038D00029F488EC94E0F8019783868380E01DC08A
:1038E000D801ED91FC91A701C801199581110AC079
:1038F000F80126813781232B89F729E034E03783CB
:1039000026830BC0D80114962D913C9115972E1942
:103910003F0915963C932E93149760960FB6F89432
:10392000DEBF0FBECDBFDF91CF911F910F91FF90F2
:10393000EF900895CF92DF92EF92FF920F931F9333
:10394000CF93DF9300D01F92CDB7DEB78C016B0110
:103950007A01BE016F5F7F4F0E944F1B882379F170
:1039600049815A816B817C81F6018181807C80381C
:1039700041F4F80186819781892B01F586EE94E068
:1039800010C0F601848190E09A012F5F3F4F8217AB
:10399000930750F4F80186819781892B79F488EF99
:1039A00094E0978386830AC0B701C8010E94281C4F
:1039B000E981FA81EE0DFF1D108201C080E00F90B9
:1039C0000F900F900F90DF91CF911F910F91FF906B
:1039D000EF90DF90CF900895EF92FF920F931F9397
:1039E000CF93DF9300D000D0CDB7DEB78C017B0141
:1039F000BE016F5F7F4F4D835E830E944F1B4D81E1
:103A00005E81882369F1F7018181807C803841F4EF
:103A1000F80186819781892B11F586EE94E012C01A
:103A200089819A81BC016E5F7F4FF701248130E06C
:103A30002617370750F4F80186819781892B79F48E
:103A400088E095E0978386830AC0BA01FB018193E1
:103A50009193BF01AC01C8010E94281C01C080E005
:103A600026960FB6F894DEBF0FBECDBFDF91CF9183
:103A70001F910F91FF90EF900895CF93DF93CDB7F3
:103A8000DEB728970FB6F894DEBF0FBECDBF2FEA82
:103A90003AE13A8329838B839C836D837E831886E6
:103AA0001F823A81AC0180E0988528960FB6F89481
:103AB000DEBF0FBECDBFDF91CF9108953F924F92F1
:103AC0005F926F927F928F929F92AF92BF92CF92AE
:103AD000DF92EF92FF920F931F93CF93DF931F928A
:103AE000CDB7DEB75C017B01C12CD12C312C412C30
:103AF000512C612C712C812C912C10E0BE016F5F38
:103B00007F4FC5010E94241BE82F882309F440C081
:103B1000F9812F2F2F7730E040E050E060E070E037
:103B200080E090E00C2D0E944F33322A432A542A21
:103B3000652A762A872A982A192BF7FF11C087E071
:103B4000C80ED11CA6E4CA16D104C1F6F5018681BF
:103B50009781892BE1F486ED94E09783868317C0E3
:103B6000D7013C9211964C92119712965C92129743
:103B700013966C92139714967C92149715968C92C8
:103B8000159716969C92169717961C9301C0E0E025
:103B90008E2F0F90DF91CF911F910F91FF90EF909B
:103BA000DF90CF90BF90AF909F908F907F906F905D
:103BB0005F904F903F900895CF92DF92EF92FF92E7
:103BC0000F931F93CF93DF93CDB7DEB728970FB630
:103BD000F894DEBF0FBECDBF8C016B017A01BE0130
:103BE0006F5F7F4F0E945E1D882361F1F601948113
:103BF0009430A1F09830E1F49981F70190839A8193
:103C000091839B8192839C8193839D8194839E81E8
:103C100095839F8196839885978314C009811A8123
:103C20002B813C81F70100831183228333830AC0F7
:103C3000F80186819781892B21F482E194E09783B2
:103C4000868380E028960FB6F894DEBF0FBECDBF06
:103C5000DF91CF911F910F91FF90EF90DF90CF9068
:103C60000895CF92DF92EF92FF920F931F93CF931D
:103C7000DF93CDB7DEB728970FB6F894DEBF0FBE3F
:103C8000CDBF8C016B017A01BE016F5F7F4F0E9437
:103C90005E1D8823D9F1F60194819230E9F030F469
:103CA000913051F59981F701908330C09430D1F073
:103CB000983011F59981F70190839A8191839B81C6
:103CC00092839C8193839D8194839E8195839F8120
:103CD0009683988597831AC029813A81F7013183A9
:103CE000208314C009811A812B813C81F701008354
:103CF0001183228333830AC0F80186819781892B3F
:103D000021F482E194E09783868380E028960FB6C1
:103D1000F894DEBF0FBECDBFDF91CF911F910F9101
:103D2000FF90EF90DF90CF900895AF92BF92CF9227
:103D3000DF92EF92FF920F931F93CF93DF9300D008
:103D40001F92CDB7DEB78C017B016A015901F901E1
:103D50001082FB011082FA011082118212821382FA
:103D6000BE016F5F7F4F0E944F1B81110AC0F80197
:103D700024813581232BF9F481E0F501808380E0F3
:103D80001AC009811A812B813C8101151105210579
:103D9000310591F3B901A80193E0769567955795A0
:103DA00047959A95D1F7F6014083518362837383D7
:103DB0000770F70100830F900F900F900F90DF9125
:103DC000CF911F910F91FF90EF90DF90CF90BF9018
:103DD000AF9008950F931F93CF93DF9300D01F925E
:103DE000CDB7DEB78C016130B1F050F06230B1F088
:103DF000653019F544E050E01AC0998197FF27C05B
:103E000041E050E0BE016F5F7F4FC8010E94281C57
:103E10008111F3CF1CC048E050E009C0BE016F5FC4
:103E20007F4F0E944F1B882391F049815A8160E0A7
:103E300070E0C8010E94281C0AC0FC01868197819D
:103E4000892B21F487E195E09783868380E00F90AA
:103E50000F900F900F90DF91CF911F910F910895C8
:103E60008F929F92AF92BF92EF92FF920F931F9308
:103E7000CF93DF9300D01F92CDB7DEB78C017B01CB
:103E8000BE016F5F7F4F0E944F1B8823F1F098E0C7
:103E9000F801D70101900D929A95E1F749815A8175
:103EA0006B817C81F70184809580A12CB12C8416D4
:103EB0009506A606B70658F4F80186819781892BE6
:103EC00021F489E295E09783868380E00AC0F701B8
:103ED00055834483F80124813581241B350B3583B8
:103EE00024830F900F900F900F90DF91CF911F912F
:103EF0000F91FF90EF90BF90AF909F908F9008959B
:103F00004F925F926F927F928F929F92AF92BF92E9
:103F1000CF92DF92EF92FF920F931F93CF93DF9395
:103F2000CDB7DEB762970FB6F894DEBF0FBECDBF38
:103F30008C017A01FA01A281B38111962C9111971B
:103F4000822F807C803409F4BDC0803809F4B1C070
:103F500081115CC1822F8F7090E0FC01EE0FFF1F7A
:103F6000E05AFA4FA080B1802073203129F020322E
:103F700081F021118FC006C0F7012485358581E0CD
:103F8000F9018083F70142855385BD01C801F50120
:103F90003BC1F701C484D584623009F052C0059753
:103FA0000CF04FC0BE016F5F7F4FC8010E94301FF1
:103FB000882309F434C18D819E81892B59F1F60142
:103FC00080819181D70112966D917C911397FB01AD
:103FD000258130E082179307E8F4DB0114964C91B9
:103FE000489F9001499F300D1124F7014285538568
:103FF000420F531FCE010196F5011995882341F018
:10400000D6018D919C91119701968D939C93D3CF5E
:1040100080E001C081E02B813C81D80113963C9364
:104020002E9312972F81388517963C932E931697CF
:104030004D815E81452B09F4F3C0232B09F0EFC0BD
:1040400018C0F7012285338514966C911497F601F8
:104050008081918115964C91159750E084179507B2
:1040600058F0D80116968D919C911797892B09F0DD
:10407000D6C081E495E018C0AC014F5F5F4FF601F8
:1040800051834083689FA001699F500D1124420F06
:10409000531F7BCFD80116968D919C911797892B32
:1040A00009F0BDC084E294E017969C938E93169716
:1040B000B6C0F80186819781892B09F0B0C086EEE1
:1040C00094E0ABC0428453845201B2E0AB0EB11C09
:1040D000F20180819181892B21F4C8010E94EA1E9E
:1040E0009FC06230A1F5BE016F5F7F4FC8010E9483
:1040F000301F882309F493C0D70112966D917C91EB
:104100001397D201ED91FC91A501CE01019619956D
:1041100081110BC0F80126813781232B09F07FC064
:1041200020E535E0378326837BC02D813E81232B1C
:1041300019F72B813C81D80113963C932E9312974B
:104140002F81388517963C932E93169769C061305E
:1041500071F170F06530B9F544E050E0BE016F5F79
:104160007F4FC8010E94281C24E0C22ED12C33C0EE
:10417000FE0131963F01C12CD12C4301FFEFCF1A34
:10418000DF0A8BE0C816D10409F449C041E050E0D1
:10419000B301C8010E94281C882309F440C09FEF86
:1041A000691A790AD4018C9187FDE7CF16C048E0DF
:1041B00050E0BE016F5F7F4FC8010E94281C38E0AD
:1041C000C32ED12C08C0F80186819781892B39F53F
:1041D00087E195E022C0882319F18FEA9AE19C8754
:1041E0008B87CE0101969E878D87D88ACF861A8AC3
:1041F000198AD70112966D917C911397D201ED9196
:10420000FC91A501CE010B9619950AC0F801868193
:104210009781892B21F484E294E09783868380E060
:1042200062960FB6F894DEBF0FBECDBFDF91CF917F
:104230001F910F91FF90EF90DF90CF90BF90AF90C4
:104240009F908F907F906F905F904F900895FB01AB
:1042500022813381FC0133832283FB012681378154
:10426000FC013783268308952F923F924F925F92ED
:104270006F927F928F929F92AF92BF92CF92DF9276
:10428000EF92FF920F931F93CF93DF93CDB7DEB7DB
:10429000E2970FB6F894DEBF0FBECDBF7C015E0182
:1042A0002DE1A20EB11C88E0D5011D928A95E9F797
:1042B0007A8B698B788B6F871C8A1B8A1E8A1D8A72
:1042C000FB0182819A01280F311DC9013A8F298F84
:1042D0002381820F911D27FD9A959C8F8B8F588F7C
:1042E0004F8B412C512C320122242394312CD701A5
:1042F00014968D919C911597892B09F492C09E017B
:10430000275D3F4FAE014B5D5F4FBE01665D7F4F46
:10431000C7010E94951E811104C089A5811181C029
:104320007EC04DA15EA16FA178A5CB88DC88E9890C
:10433000FA89808190E0A0E0B0E084179507A60795
:10434000B70731F48181982F9F70983009F0B1C080
:10435000CE010F964FA758AB69AB7AAB0E94C61A35
:104360008B899C894FA558A969A97AA98C159D05A7
:10437000F1F68DA19EA1AFA1B8A584159505A6055E
:10438000B70508F4F1C0E989FA8981818F70883016
:1043900009F4EFC0CE010F960E94C61A8B899C8942
:1043A0008C159D0581F744244A94542C32018DA12B
:1043B0009EA1AFA1B8A58BA79CA7ADA7BEA784154A
:1043C0009505A605B70508F4CFC0D70114968D90C2
:1043D0009C9015971AA5E98DFA8DC080D180D701E0
:1043E00014968D919C911597C114D10409F4B8C00D
:1043F0008816990609F0B4C0F601A081B181ED914B
:10440000FC911197309709F479C0012F2BA53CA599
:104410004DA55EA5B601C701199581119DC080E02B
:10442000ADC0CD88DE88E989FA891181CE010F9669
:104430000E94C61A8111F5CF107341F4E989FA89F7
:104440009081992319F0BFEFCB1ADB0A960153E054
:10445000369527955A95E1F7F501A501420F531FAF
:10446000E417F50771F091919F3FD1F3F701268191
:104470003781232B09F082C027E334E0378326837A
:104480007DC0F501E20FF31F608170E0F7E0CF22FD
:10449000DD2448E050E04C195D092FEF30E002C008
:1044A000359527954A95E2F762177307F9F681E08B
:1044B00065C08073C9F48D899E8980349105A0F40C
:1044C000FC0163E0F695E7956A95E1F7EA0DFB1DBF
:1044D00087709927910102C0220F331F8A95E2F756
:1044E000C9019081982B9083AE01415F5F4F6AA50F
:1044F000C7010E94801F8111FACE91CF1496ED91D1
:10450000FC911597808190E0A0E0B0E02BA53CA540
:104510004DA55EA582179307A407B507E9F4FA83B2
:10452000E983FC83EB831E821D8218861F82D601DD
:1045300012968D919C9113979A8789879C878B8778
:10454000C60106969E878D87AE014F5F5F4F612F34
:10455000C7010E94801F61CFF601C480D5803FCF84
:104560008816990609F0C3CE6AA5C7010E94EA1E03
:10457000C2CF4080512C612C712C19CFE2960FB61E
:10458000F894DEBF0FBECDBFDF91CF911F910F9189
:10459000FF90EF90DF90CF90BF90AF909F908F9063
:1045A0007F906F905F904F903F902F900895EF9283
:1045B000FF920F931F93CF93DF931F921F92CDB75C
:1045C000DEB78C017B01BA01C70149835A830E947F
:1045D000BC1B49815A81B701C8010F900F90DF9130
:1045E000CF911F910F91FF90EF900C943421CF92B7
:1045F000DF92EF92FF920F931F93CF93DF93CDB78C
:10460000DEB72A970FB6F894DEBF0FBECDBF8C0180
:104610007B01FB01C680D780BE016F5F7F4F49875A
:104620005A870E94301F49855A85882349F1F7012E
:1046300086819781892B51F4F80186819781892B96
:10464000F1F48DE994E09783868319C0F7018181A5
:104650008073B601803229F4CE0101960E94D722E0
:1046600004C0CE0101960E9434212B813C81F801C7
:10467000338322832F8138853783268301C080E0EE
:104680002A960FB6F894DEBF0FBECDBFDF91CF9153
:104690001F910F91FF90EF90DF90CF900895AF9210
:1046A000BF92CF92DF92EF92FF920F931F93CF931F
:1046B000DF93CDB7DEB728970FB6F894DEBF0FBEF5
:1046C000CDBF7B01BE016F5F7F4F0E945E1DF82F43
:1046D000882309F45EC0E981AA80BB80CC80DD809C
:1046E0000E811F81B8852E2F217030E040E050E010
:1046F00060E070E080E090E0A0E00E94863341F14D
:104700002E2F3A2D4B2D5C2D6D2D702F812F9B2F31
:1047100001E00E946A332095D7012C9330951196C1
:104720003C931197409512964C931297509513967F
:104730005C931397609514966C93149770951596E7
:104740007C931597809516968C93169790951FC01D
:104750002E2F3A2D4B2D5C2D6D2D702F812F9B2FE1
:1047600001E00E946A33D7012C9311963C93119774
:1047700012964C93129713965C93139714966C931E
:10478000149715967C93159716968C9316971796F3
:104790009C938F2F28960FB6F894DEBF0FBECDBF27
:1047A000DF91CF911F910F91FF90EF90DF90CF900D
:1047B000BF90AF900895CF92DF92EF92FF920F9348
:1047C0001F93CF93DF93CDB7DEB728970FB6F8943A
:1047D000DEBF0FBECDBF8C016B017A01BE016F5FE2
:1047E0007F4F0E944F23882361F1F601948194301A
:1047F000A1F09830E1F49981F70190839A81918337
:104800009B8192839C8193839D8194839E819583D8
:104810009F8196839885978314C009811A812B8183
:104820003C81F70100831183228333830AC0F8019E
:1048300086819781892B21F482E194E09783868396
:1048400080E028960FB6F894DEBF0FBECDBFDF9193
:10485000CF911F910F91FF90EF90DF90CF9008952F
:1048600044E050E00C94281CBA010C94302448E039
:1048700050E00C94281CBA010C9437248627682F2A
:1048800062956827062E669566956025062E6695C4
:1048900060256770082E892F669507946795902D7F
:1048A0008627069467959025862708950895FC012C
:1048B000A489B58912961C92129714961C921E9286
:1048C00013978FEF9FEF1A969C938E931997138AE5
:1048D000128A108A118A8AE090E093838283178E6D
:1048E000168E08959F92AF92BF92CF92DF92EF9271
:1048F000FF920F931F93CF93DF931F92CDB7DEB735
:104900008C016115710581F4CE010196D8011596CF
:104910009C938E93149717969C938E931697199643
:104920009C938E93189707C0FC01758364836F5F17
:104930007F4F77836683D80114962D913C9115970C
:1049400016968D919C9117972817390709F443C241
:1049500027E0A22EB12C99249394D8011296ED91C0
:10496000FC9113973197EC30F10508F014C2EA5628
:10497000FF4F0C944933D8015496ED91FC91559713
:10498000F184E12CF286E18614968D919C91159725
:10499000DC018C919701280F311DC90132872187D5
:1049A000D80152962D913C9153978217930741F469
:1049B00050969C9250971E968D919C911F971CC06B
:1049C000F801918A1BC0D8011496ED91FC911597BE
:1049D000808190E01D969C938E931C975496ED9148
:1049E000FC915597258136812817390710F4519687
:1049F0009C92D80150969C9294838383F801848181
:104A00009581019695838483268137818217930748
:104A100009F4C1C1D8011496ED91FC9115978081DC
:104A20008C3721F0F80113821282EFC1D80114965D
:104A30008D919C911597019615969C938E93149742
:104A400016962D913C9117978217930709F4A6C1EA
:104A5000D8011496ED91FC91159780818C3711F750
:104A6000F80184819581019695838483268137811D
:104A70008217930709F495C1D8011496ED91FC9122
:104A8000159780818C3771F650961C92F8018481BD
:104A900095810196958384832681378182179307B8
:104AA00009F487C1D8015496ED91FC915597118274
:104AB000108214968D919C911597DC018C9190E059
:104AC00091838083F8018481958101969583848305
:104AD000268137818217930709F46EC1D801549655
:104AE000ED91FC91559714968D919C911597DC0151
:104AF0008C91D080C12C9601282BC9019183808391
:104B0000D80114968D919C911597019615969C93BA
:104B10008E93149716962D913C91179782179307B1
:104B200009F44DC1D8011496ED91FC91159780813F
:104B3000843679F08E3609F46FC0813609F072CF71
:104B4000D8015496ED91FC915597828350969C9292
:104B500055CFD8015496ED91FC9155978283F80179
:104B6000848195810196958384832681378182177C
:104B7000930709F427C1D8011496ED91FC9115977C
:104B8000808190E01D969C938E931C975496ED9196
:104B9000FC915597258136812817390710F45196D5
:104BA0009C92D8015E96ED91FC915F97CF010196A2
:104BB0005F969C938E935E973B96EE0FFF1FE00FE0
:104BC000F11FB182A0823DC0D80152968D919C9177
:104BD00053970E945624F801938B828B0488F589A1
:104BE000E02D12861186D80114968D919C9115970F
:104BF000DC018C9190E092878187F8018481958116
:104C0000019695838483268137818217930709F063
:104C1000B2CE88E090E0C7C0D8015496ED91FC91E7
:104C200055978283F80184819581019695838483C9
:104C3000268137818217930709F0C5CE89E090E07D
:104C4000C7C0D80114968D919C9115970196159621
:104C50009C938E93149716962D913C9117978217DB
:104C6000930709F4B2C0F80117861686138A128AD0
:104C70000480F581E02D608180E090E00E943E2478
:104C8000D80153969C938E9352975496ED91FC9134
:104C900055970780F085E02D16C0D8011496ED9148
:104CA000FC911597608152968D919C9153970E942B
:104CB0003E24F801938B828B0488F589E02D0780D0
:104CC000F085E02DD8011E968D919C911F979C0137
:104CD0002F5F3F4F1F963C932E931E9714962D9156
:104CE0003C911597D9012C91E80FF91F2083F80109
:104CF000268537858485958528173907E9F5068C3B
:104D0000F78DE02DCF010197D8015F969C938E938C
:104D10005E973A96EE0FFF1FE00FF11F80819181A1
:104D200013969C938E931297D8011296ED91FC9155
:104D30001397ED30F10520F4EE55FF4F0C944933F5
:104D4000F80184819581019695838483268137813A
:104D50008217930709F001CE3EC0F8018481958146
:104D6000019695838483268137818217930709F002
:104D70002BCF87E090E02CC0F801848195810196CB
:104D800095838483268137818217930709F085CF25
:104D90008CE090E01DC08AE090E005C081E090E0EA
:104DA00017C082E090E0D80113969C938E931297DF
:104DB00012C083E090E00CC084E090E0F4CF85E086
:104DC00090E006C086E090E0EECF8BE090E0EBCF85
:104DD000F80193838283D80114962D913C91159705
:104DE00018968D919C9119972817390771F412968E
:104DF0008D919C9113970B9741F41F961C921E92D4
:104E00001E9753961C921E9252970F90DF91CF914E
:104E10001F910F91FF90EF90DF90CF90BF90AF90D8
:104E20009F90089590E0FC013197E131F10508F081
:104E300048C0E155FF4F0C944933809180008F7733
:104E400003C0809180008F7D80938000089584B599
:104E50008F7702C084B58F7D84BD08958091B000A6
:104E60008F7703C08091B0008F7D8093B00008954C
:104E7000809190008F7707C0809190008F7D03C054
:104E800080919000877F8093900008958091A0008A
:104E90008F7707C08091A0008F7D03C08091A00014
:104EA000877F8093A0000895809120018F7707C0AD
:104EB000809120018F7D03C080912001877F8093A6
:104EC00020010895CF93DF9390E0FC01E356F34F68
:104ED0002491FC01ED51F34F8491882349F190E036
:104EE000880F991FFC01ED5BF24FA591B491875D8E
:104EF000924FFC01C591D4919FB7611108C0F894FD
:104F00008C91209582238C93888182230AC0623001
:104F100051F4F8948C91322F309583238C938881AF
:104F2000822B888304C0F8948C91822B8C939FBF32
:104F3000DF91CF9108950F931F93CF93DF931F922B
:104F4000CDB7DEB7282F30E0F901E95AF34F84914D
:104F5000F901E356F34F1491F901ED51F34F049128
:104F60000023C9F0882321F069830E9412276981F8
:104F7000E02FF0E0EE0FFF1FE75DF24FA591B49137
:104F80009FB7F8948C91611103C01095812301C0E3
:104F9000812B8C939FBF0F90DF91CF911F910F9129
:104FA0000895863308F0865320917B00982F9870DF
:104FB000277F922B90937B0087702091060290E4CC
:104FC000299F90011124822B80937C0080917A008C
:104FD000806480937A0080917A0086FDFCCF809176
:104FE00078002091790090E0922B08951F920F9203
:104FF0000FB60F9211242F933F938F939F93AF93EC
:10500000BF938091160890911708A0911808B0914D
:1050100019083091150823E0230F2D3720F401964D
:10502000A11DB11D05C026E8230F0296A11DB11DCB
:10503000209315088093160890931708A0931808DA
:10504000B093190880911A0890911B08A0911C0830
:10505000B0911D080196A11DB11D80931A0890936F
:105060001B08A0931C08B0931D08BF91AF919F919E
:105070008F913F912F910F900FBE0F901F90189519
:105080003FB7F89480911A0890911B08A0911C08D2
:10509000B0911D0826B5A89B05C02F3F19F00196B9
:1050A000A11DB11D3FBF6627782F892F9A2F620F50
:1050B000711D811D911D42E0660F771F881F991F8A
:1050C0004A95D1F70895CF92DF92EF92FF92CF9356
:1050D000DF936B017C010E944028EB01C114D104D5
:1050E000E104F10479F00E9440286C1B7D0B683EBE
:1050F0007340A0F381E0C81AD108E108F108C85153
:10510000DC4FECCFDF91CF91FF90EF90DF90CF900D
:105110000895789484B5826084BD84B5816084BD2F
:1051200085B5826085BD85B5816085BDEEE6F0E020
:10513000808181608083E1E8F0E01082808182607C
:105140008083808181608083E0E8F0E080818160FD
:105150008083E1EBF0E0808184608083E0EBF0E02D
:10516000808181608083E1E9F0E0808182608083DA
:10517000808181608083E0E9F0E0808181608083CC
:10518000E1EAF0E0808182608083808181608083B9
:10519000E0EAF0E0808181608083E1E2F1E08081FB
:1051A00082608083808181608083E0E2F1E08081A1
:1051B00081608083EAE7F0E0808184608083808181
:1051C0008260808380818160808380818068808329
:1051D0001092C1000895FC0124853585F901E05C39
:1051E000FF4F80819181F901EE5BFF4F208131817A
:1051F000821B930B8F7399270895FC0184859585F5
:10520000FC01E05CFF4F40815181FC01EE5BFF4FF0
:10521000208131814217530741F00190F081E02D48
:10522000E80FF91F808190E008958FEF9FEF0895B8
:10523000FC0184859585FC01E05CFF4F4081518134
:10524000FC01EE5BFF4F208131814217530779F05B
:10525000A081B181A80FB91F8C91208131812F5F6E
:105260003F4F2F7333273183208390E008958FEFD2
:105270009FEF0895FC0181A1882329F0A489B589B5
:105280008C9186FFFBCF11A20895CF93DF93FC0191
:1052900026853785D901A05CBF4F8D919C911197D0
:1052A00001968F739927E901CE5BDF4F48815981C1
:1052B00084179507D9F30D90BC91A02DA20FB31FB1
:1052C0006C93A685B785A05CBF4F11969C938E9377
:1052D000A689B7892C9181E090E0078C02C0880FE5
:1052E000991F0A94E2F7282B2C9381E081A304886C
:1052F000F589E02D80818064808381E090E0DF91FA
:10530000CF910895FB01E05CFF4F208131812F5F39
:105310003F4F2F733327DB01AE5BBF4F4D915C9145
:105320002417350739F0A081B181A60FB71F8C93E0
:1053300031832083089508951F920F920FB60F9224
:1053400011240BB60F922F933F934F935F936F935C
:105350007F938F939F93AF93BF93EF93FF9380912E
:10536000C00082FD07C08091C60062E87AE00E941A
:10537000822902C08091C600FF91EF91BF91AF9149
:105380009F918F917F916F915F914F913F912F915D
:105390000F900BBE0F900FBE0F901F9018950895A1
:1053A0001F920F920FB60F9211240BB60F922F93EC
:1053B0003F934F935F936F937F938F939F93AF939D
:1053C000BF93EF93FF938091C80082FD07C0809147
:1053D000CE006AEF79E00E94822902C08091CE005F
:1053E000FF91EF91BF91AF919F918F917F916F91BD
:1053F0005F914F913F912F910F900BBE0F900FBE79
:105400000F901F90189508951F920F920FB60F924C
:1054100011240BB60F922F933F934F935F936F938B
:105420007F938F939F93AF93BF93EF93FF9380915D
:10543000D00082FD07C08091D60062E779E00E942B
:10544000822902C08091D600FF91EF91BF91AF9168
:105450009F918F917F916F915F914F913F912F918C
:105460000F900BBE0F900FBE0F901F9018950895D0
:105470001F920F920FB60F9211240BB60F922F931B
:105480003F934F935F936F937F938F939F93AF93CC
:10549000BF93EF93FF938091300182FD07C080910D
:1054A00036016AEE78E00E94822902C080913601BE
:1054B000FF91EF91BF91AF919F918F917F916F91EC
:1054C0005F914F913F912F910F900BBE0F900FBEA8
:1054D0000F901F90189584E898E00E94EB28892B84
:1054E00011F00E949B2982E698E00E94EB28892B0C
:1054F00011F00E94CF2980E498E00E94EB28892BCC
:1055000011F00E94032A8EE198E00E94EB28892B7B
:1055100011F00C94372A08951F920F920FB60F9234
:1055200011240BB60F922F933F938F939F93EF937A
:10553000FF9320917E0A30917F0A8091800A90919A
:10554000810A2817390731F48091C1008F7D80933B
:10555000C10014C0E091800AF091810AE25CF54F2D
:1055600020818091800A9091810A01968F739927FA
:105570009093810A8093800A2093C600FF91EF9157
:105580009F918F913F912F910F900BBE0F900FBE67
:105590000F901F9018951F920F920FB60F92112423
:1055A0000BB60F922F933F938F939F93EF93FF939D
:1055B0002091F6093091F7098091F8099091F90945
:1055C0002817390731F48091C9008F7D8093C90075
:1055D00014C0E091F809F091F909EA54F64F2081DE
:1055E0008091F8099091F90901968F73992790930A
:1055F000F9098093F8092093CE00FF91EF919F91D4
:105600008F913F912F910F900BBE0F900FBE0F9077
:105610001F9018951F920F920FB60F9211240BB680
:105620000F922F933F938F939F93EF93FF9320912C
:105630006E0930916F098091700990917109281756
:10564000390731F48091D1008F7D8093D10014C04F
:10565000E0917009F0917109E25DF64F208180912F
:1056600070099091710901968F7399279093710930
:10567000809370092093D600FF91EF919F918F91B5
:105680003F912F910F900BBE0F900FBE0F901F9068
:1056900018951F920F920FB60F9211240BB60F920E
:1056A0002F933F938F939F93EF93FF932091E6085F
:1056B0003091E7088091E8089091E90828173907A8
:1056C00031F4809131018F7D8093310114C0E091DC
:1056D000E808F091E908EA55F74F20818091E80841
:1056E0009091E90801968F7399279093E908809328
:1056F000E80820933601FF91EF919F918F913F91A0
:105700002F910F900BBE0F900FBE0F901F9018950A
:10571000CF92DF92EF92FF92CF93DF93EC016A0179
:105720007B01411581EE580761057105F9F0EC899F
:10573000FD8981E090E008A002C0880F991F0A94BB
:10574000E2F7808360E079E08DE390E0A7019601C5
:105750000E94273321503109410951095695479537
:1057600037952795211580E1380798F0EC89FD8958
:10577000108260E874E88EE190E0A70196010E9433
:1057800027332150310941095109569547953795DD
:105790002795E889F9893083EA89FB89208319A252
:1057A000EE89FF89408181E090E09C010C8C02C071
:1057B000220F331F0A94E2F7422B4083EE89FF89C0
:1057C00040819C010D8C02C0220F331F0A94E2F726
:1057D000422B4083EE89FF8940819C010E8C02C0E0
:1057E000220F331F0A94E2F7422B4083EE89FF8990
:1057F00020810F8C02C0880F991F0A94E2F78095D0
:1058000082238083DF91CF91FF90EF90DF90CF9044
:105810000895CF93109287081092860888EE93E03F
:10582000A0E0B0E08093880890938908A0938A084C
:10583000B0938B0826E735E03093850820938408E1
:1058400042E85AE050939108409390084EE35AE0A2
:10585000509393084093920845EC50E0509395087C
:105860004093940844EC50E0509397084093960876
:1058700040EC50E0509399084093980841EC50E078
:1058800050939B0840939A0842EC50E050939D0837
:1058900040939C0846EC50E050939F0840939E082C
:1058A000C4E0C093A008F3E0F093A108E7E0E09320
:1058B000A20875E07093A30861E06093A4081092B9
:1058C0006508109264088093660890936708A09317
:1058D0006808B093690830936308209362084AEF20
:1058E00059E050936F0840936E0846EB59E050938F
:1058F0007108409370084DEC50E05093730840934A
:1059000072084CEC50E0509375084093740848ECD2
:1059100050E0509377084093760849EC50E050935C
:105920007908409378084AEC50E050937B08409304
:105930007A084EEC50E050937D0840937C08C09369
:105940007E08F0937F08E09380087093810860934D
:105950008208109243081092420880934408909362
:105960004508A0934608B093470830934108209318
:10597000400842E759E050934D0840934C084EE2EE
:1059800059E050934F0840934E0845ED50E0509336
:1059900051084093500844ED50E050935308409311
:1059A000520840ED50E0509355084093540841EDA3
:1059B00050E0509357084093560842ED50E0509302
:1059C00059084093580846ED50E050935B084093C7
:1059D0005A08C0935C08F0935D08E0935E087093EA
:1059E0005F0860936008109221081092200880934D
:1059F000220890932308A0932408B093250830939D
:105A00001F0820931E088AEE98E090932B0880933D
:105A10002A0886EA98E090932D0880932C0885E365
:105A200091E090932F0880932E0884E391E0909367
:105A300031088093300880E391E09093330880939D
:105A4000320881E391E0909335088093340882E333
:105A500091E0909337088093360886E391E0909325
:105A6000390880933808C0933A08F0933B08E093D4
:105A70003C0870933D0860933E08CF910895CF9203
:105A8000DF92EF92FF920F931F93CF93DF936C01FE
:105A90007A01EB01E60EF71E00E010E0CE15DF05FF
:105AA00061F06991D601ED91FC910190F081E02DBA
:105AB000C6011995080F191FF1CFC801DF91CF91C9
:105AC0001F910F91FF90EF90DF90CF900895611597
:105AD000710581F0DB010D900020E9F7AD01415027
