:100000000C942B060C9453060C9453060C94530634
:100010000C9453060C9453060C9453060C945306FC
:100020000C9453060C9453060C9453060C945306EC
:100030000C9453060C9453060C9453060C945306DC
:100040000C9443270C9453060C94A9280C94EC2888
:100050000C9453060C9453060C9453060C945306BC
:100060000C94040E0C9453061E0A580C580C580C91
:10007000580C580C580C580C580C1B0A4A0A4D0ABC
:10008000290A2C0A2F0A320A350A380A3B0A3E0A84
:10009000410A440A470A7B0A580C580C580C580C61
:1000A000580C580C580C580C130B2C0B560B630B9C
:1000B0006E0B790B8A0BA40BB50BC70BE20BF50B80
:1000C000110C1F0CB21AC61ADC1AF81A1C1B451B9D
:1000D000641B981B4B1AD21B731A941AF31B041C33
:1000E0009C1AA01ABA1AD01AEC1A0A1B391B581BF0
:1000F000641CB11BC61BD21B881AE71B731C0800AB
:100100000000BE922449123EABAAAA2ABECDCCCC96
:100110004C3E00000080BEABAAAAAA3E0000000030
:10012000BF000000803F0000000000084178D3BB02
:100130004387D1133D190E3CC3BD4282AD2B3E68AF
:10014000EC8276BED98FE1A93E4C80EFFFBE01C4A0
:10015000FF7F3F000000000007634236B79BD8A72F
:100160001A39685618AEBAAB558C1D3CB7CC5763DC
:10017000BD6DEDFD753EF6177231BF000000803F8A
:1001800001081001559F020555BFD404078A059F39
:10019000062FE508350F0A2B076A1311B27B6ADBBD
:1001A000B98C17596D101025D4EDB24C326A56F93E
:1001B000DA59112F570ECA4C14181F7923611B2DC1
:1001C000253513D58322324A172720952037253E1F
:1001D0002067ED3AB21C4D9E1D8A3B412BDBEFB7E9
:1001E000DA1F231D273C5EB14C4B6B263FA92630FE
:1001F000284F97AA3BC9F259463121AA49895A4545
:1002000067CD57316D5978745F82815E59F933CA71
:10021000C79F6692402995304089FB3B4A3E534C2C
:10022000B92B32428B8A3DB13B9E6B979A7546CE75
:10023000433A4973693B8241AC70379132876347D7
:10024000DA3449B9B27C3E734E3CD659839D61661F
:10025000989296813DB73D4F45D1957798DF67AF2E
:1002600050957DDEDF3A56A5765CDEC2F2737B48A0
:10027000495E554B42B3E66849DF74C5C156EAC1D1
:1002800067D764655F4F62D161D85FF650ABE8C64F
:10029000B6C3825F888E5E62B2E54BADB1B7B4592A
:1002A000C7A767B977C0808580577BDD75594FB484
:1002B000FB9489774EA1A77594657CE1F29B98A980
:1002C0007772AC746761847B96EB8AA7C9C4897521
:1002D000766F9E8CCA85909E6F81EA898C76676F57
:1002E0007D6661689B59DD8C73AA768B82776390FB
:1002F000AC8AF5B0DDB59179EF7087FBB7CFABFB7A
:10030000EDA1FD96926C86688C93FDD37C6773A8F3
:10031000A3D1FDBB789D839385C8DBD1C279AC881E
:1003200081BCB68A96EF916CD19EB1EADF87ADCEE3
:100330008A6FD19EBA9375F79880DF808988877B12
:10034000B28695EBB77982809BAFFBB3ACC6FBDA84
:10035000ECA7A1A486D27D98DB9BF9A57BE4D3C74B
:100360009293BCEEB5EFA7DA849DB3998B81D0ABA5
:10037000D89EB782E8F5A292B1D697A7EAF7A895DA
:10038000CE9798F8A09EA3EAE4858CAFE9DDDC8BDC
:10039000C2BED09DB2DC9BDAEBFBC88DF7B5AEC315
:1003A000E5A9C3B793D1B8C7ACD0F8F0BBE3A5BCFF
:1003B000B2A99CED96DBC9CEF9EEB796B4ABB2AA62
:1003C000C7D4DCEFE5D897AAA5C9C0D4D2EAF2DD3C
:1003D000C098AEC5F6D4ACE4A3FDB2BBEDD1B4D4A5
:1003E000FBF5EBB39BC0EE9DBFB9F1CEA7A8CFC67E
:1003F000BCBFCAD4D1A8E1D2A6A7BFDFDDD4C3B7A2
:10040000BFA7B7BFACC8E8D4CFDFC2ABD9DEF6BF59
:10041000BBD4AFF5E4CAF9BDC9B7D8D4B1F3B6DDE2
:10042000B5BAD1B9E1D4E9DAAFB9E3C9C3B1ABD454
:10043000DEDBACFBEAD9FFDEB1D5ECCAD8B3DEE433
:10044000B3C2CCD6C2BBFFF3B8B9FFB8CED8B3E8BD
:10045000E6F0B4DDECEAB5EDE4E1EEB7C6E0D8ECE9
:10046000F5F4CCF6C4F8E5F6D6CDF7D4F9E6F2DD2E
:10047000EFC1E0E9F9E3FBC1C6E1CFC2E4FCFBC791
:10048000EDD0C3E4FDEAF0CFCBFCD8C3D3FCD0ED74
:10049000FDD9EED4F2D1D3D6F8D3F5D8E6D4ECF327
:1004A000D3CFEBF9FDEEF4E5FDD9E9CBD1ECE0D704
:1004B000D2DDFAFEDBE0D1F0DDE4F2F8E0D8F1D5F0
:1004C000F6FBDCD1F5FBF0ECF5DCF9E5DBFBE1DA82
:1004D000DDF2F9DBDEF1E7FEDFF0F8FEF3EFF8F630
:1004E000F2E8DEFEE4FAF8E2E6FAE1FEEFDFF7E535
:1004F000DEE0E3E7FCF9F6F2E0E3F6EBFCE4F6E03D
:10050000E3E5E9E1E4F8EBFEE5E8F3FEFBE9FFFEF5
:10051000FBF7E4E5FBF7E5FEFBF6E6FEFBF5FFE89F
:10052000ECFFFFE9EDE9E9EAEEEAEAFEFAFFFFECAB
:10053000F9FFFFEDF2EDEDEEF5FFFFFEFFFFFFF03F
:10054000F0F0F0F1FFFFFFFEF2F2F2FEF3F3F3F44E
:10055000FFFFFFF5FFFFFFFEFFFFFFF7F7F7F7FED7
:10056000F8F8F8F9FFFFFFFEFAFAFAFBFBFBFBFED7
:10057000FFFFFFFDFDFDFDFEFEFEFEFFFFFFFFFF97
:10058000010808BF0302BF59060303AF6D06B20698
:10059000AA17059718598C22DA0F57650A0F120906
:1005A0000B0F5E19159397430C0B0F24381B220C6D
:1005B0000E23BB4526F1112EB297771F6D28925955
:1005C0006E4EDD142181593DC7779320975986518E
:1005D0009F32165B1EC14723C1296159881B19210F
:1005E0001CC7B2D9A36B452557593FB36D29B893A2
:1005F000B25B302B7D251F556D9DEB2E6C3A5975E6
:100600004F285FAA4D5F474A5B43445E6424B12D87
:100610002E3A5B4093E740C8974727A786A1798584
:1006200037EECE9D4B4CAD3CB5446548475E9E369B
:10063000A7C29B636DC359B34469D752EF597AABD4
:1006400038ECA9434665CB6EA3D53C9163538781B3
:10065000575B5968DD4ADFADC7425D755C3F895124
:10066000B260734141FBAA597DA1434D3E837BD3C8
:10067000D1A3B5CEEB574497D847895153BB4554C6
:100680009E4CA4A3AED2AA50AD4EB245D5644A57F3
:100690005F5986B8817CBCB5644EEF68666365CDF2
:1006A0005C6EB3649C61928D93D99A56A3D7F36B19
:1006B0004D838EA4FB7A76A986C5A159538285788D
:1006C000ABB377B1C8D59DA98B59987E696C9BB6A1
:1006D000B5C1889A6BA3978AC5AA5EA19EBCD8C9EA
:1006E000B3DCE8D992FF67A3C787C3A6B2C3EBA266
:1006F00088AA60866B83A4C564D6B26084758E6157
:10070000679861A4A9E5B9EFB2AA6377CBF5DC9746
:100710009C7A6589D6A4C5B0C382777D87D999C2F2
:10072000CD8D92C1B270B9F981AB99747ACA9E85A8
:10073000C7F884AF95BDEE71B8DB7EDCCED0D2E7D2
:10074000A0D5C07A9DEEDEE2BBA674A3AA947587FD
:100750007DB1B8B5DE8EEFC589C279B7F6859099BF
:10076000D1D0A381AA81B98EEBC6AECCE1F397B804
:1007700092C8ADF48982C5DBB596D5C18A83C1DA4A
:100780009ED8D784CDD0CA8D91F9EDBE8F9798F1C0
:10079000ADB1A2D7BE9ADB9C9188ABF38BBEC6B13C
:1007A00097CDB2BEEDA7BEB0CCA98E93BD9CD7BDF0
:1007B000C8D3E597EFA4B3AF9198C6F2CAD5CDD709
:1007C000B8ADA79AA1ABF5DAE1B9C2B0B2A09BAAC5
:1007D000C4F8D9C09AB3DDA7EA97D7CDA2B8D6B6E8
:1007E0009A9EA5D9FBCBA4F9CDD4A3BFECEBBFC88F
:1007F000D3D0C5BCBFEEB2BFF2F1D3B5B7BFD0DE28
:10080000D5F4DFD6EECDB1C2C7B9D5F2BFBBA9DAF8
:10081000DFC5EFABB8D0A9DFD2E7C4C8F0AFEAC1FB
:10082000ECE6CDE8BFCBB9C6F7EABFD8DFF6FFCE1E
:10083000C5C8FFAFBCCBADC7FAD0BCDCCEF9C9C4CC
:10084000FAE7DCD2E8F1B1BAF6F5B2F7DDD3FFC5CD
:10085000C7BFFFD0C3C5FFC3CBCEC3FEEBD0D8C646
:10086000BFC0E6BFF0BECEC0DDE7C0E0BFCFC5D899
:10087000C8F8D6CEC1D4C0FAF4D7EAFAD5C1C2F5C9
:10088000CEEBFBD7C2D2CDEEF3C4E5FEEBC5EFD283
:10089000C5E6D2ECCFF0EEEBCBEFCEEADCEFD7D172
:1008A000F1F6D9CDCAD7D2E0CBEDDDFEF7DBE7F12B
:1008B000F7EBD0CDEEE9FADAEDE6D9D4EBF4DBF8DC
:1008C000D7D3F1FED9D4DEE2DAF3D7EAF5D6EFF7E3
:1008D000F4DFD9F7F4E1EBD6F4E3DCD7E1E5DDDFD3
:1008E000E3EDF8D9F2DDDFF5F1DEF7DBE9FAE2F46A
:1008F000FCFAF7F3DFE2E5E9FCF9E6F1E1F9E7FEFE
:10090000FBF9F5FEFBE7F4E2FBF8EDE3E6F8E3E4E0
:10091000E7EBFFFEE8ECFFE6E9EEFFE7EAF0E7FED3
:10092000FAE8E8FEFAFFFFFEFAFFFFEBEFEBEBFE63
:10093000F1ECECFEF9FFFFFEF7EEEEEFEFEFEFFE6E
:10094000FFFFFFFEF1F1F1F2FFFFFFF3FFFFFFFEFC
:10095000F4F4F4FEF5F5F5F6F6F6F6FEFFFFFFF813
:10096000FFFFFFFEF9F9F9FAFFFFFFFEFFFFFFFCB3
:10097000FCFCFCFFFFFFFFFFFFFFFFFFFFFFFFFF90
:10098000FFFFFFFFFBF6F2E3E9DCD6F1C3F6ECE094
:10099000F6C3ECFBBCF7FBA180A3D6E17AE2A16B26
:1009A000868B728A86837B8B83599B669EA1625657
:1009B000997C688B6B494B4E5A56795A46626654FD
:1009C000674737544F5658464A384B653752323B83
:1009D00047403542322D2549372B3C44292E2831BA
:1009E0003F384037352B3F2B3F291F27202B252809
:1009F0001A192526262E292B1C171A2D19161827E9
:100A000015242320162319181C131F10151A111250
:100A1000101010150F160E160F11170E14131015B7
:100A20000F12130A10110F090E120C0F100E0F0ADD
:100A3000090B09070C070A0E0D0D0E0E0906090910
:100A4000070608090A07070B0A0A07090907070822
:100A5000060606070404040607070505050407073C
:100A6000070704040606040404040504040404043B
:100A70000404030303030303030302020203030347
:100A8000FFFFFFFFFBF7F2F9EAEFEDCBF2B9BABDDA
:100A9000A6CAA192BC8A83C5EFB5857AD97199DEC1
:100AA000AB9FBB959492968083BA67975E598D9B56
:100AB0005464735368938A806B6C4A6077524C59C4
:100AC00046627A4D4F464250495D4330553757474D
:100AD000393D4737464B582B37442F2840373D3058
:100AE00024272125252C1D291B2833272E212521AC
:100AF0003131201E1D1719172228221321242013FB
:100B0000221313141C111717131B101E161119177B
:100B100019181711170F170E14110C130D0D0F0BB9
:100B20000F0C0B140C0B0C130C090D0A090A090D00
:100B30000E0B0D10090F0A0707070606090D080816
:100B40000A0B08070608080505050705050606053A
:100B5000060606050808080504040505050603033E
:100B6000030305050303040404040303030303034D
:100B70000303030303030303030304040402020245
:100B8000687474703A2F2F6D6963726F666C756943
:100B9000646963732E75746F726F6E746F2E636108
:100BA0002F64726F70626F7400302E3100312E30FE
:100BB000005369676E616C2047656E657261746F82
:100BC0007220426F61726400576865656C657220BF
:100BD0004D6963726F666C756964696373204C61FB
:100BE0006200302E31005369676E616C2047656E7C
:100BF000657261746F722050726F746F636F6C00F6
:100C000000000007000201000003040600000000CD
:100C100000000000010204081020408001020408C6
:100C20001020010204081020040404040404040435
:100C30000202020202020303030303030000000096
:100C4000250028002B0000000000240027002A00B7
:100C50004409DD19A82911241FBECFEFD8E0DEBF5B
:100C6000CDBF15E0A0E0B1E0E2E4FDE502C00590F3
:100C70000D92AA35B107D9F718E0AAE5B5E001C091
:100C80001D92AB31B107E1F71CE0C6E5DCE004C022
:100C90002297FE010E94192EC035D107C9F70E9484
:100CA000A20C0C949F2E0C940000DC011296ED9186
:100CB000FC9113978189882311F085E6089580E0DF
:100CC0000895DC011296ED91FC91139780890895A7
:100CD000DC011296ED91FC91139784899589089512
:100CE000DC0114968D919C911597DC01ED91FC919E
:100CF0000480F581E02D09940895FC01828193819F
:100D00000C94E119FC0182819381FC01758B648B49
:100D10000C94E1196F927F929F92AF92BF92CF9203
:100D2000DF92EF92FF920F931F93CF93DF93CDB794
:100D3000DEB72A970FB6F894DEBF0FBECDBF5C01B9
:100D4000DA01CD90DC90FB01208130E040E050E002
:100D500062E00E94E41E982E882309F458C0CE0158
:100D600001963C018AE0D3011D928A95E9F7E12CB6
:100D7000F12CF60180819181E816F906D0F4C701C3
:100D8000880F991FD6011296ED91FC911397E80FE9
:100D9000F91F20813181890120E030E040E050E0FE
:100DA00060E070E0C3010E94421DBFEFEB1AFB0A36
:100DB000E0CF2F813885890120E030E040E050E02D
:100DC00060E070E0C5010E94421DE12CF12CF601AB
:100DD00080819181E816F906D0F4C701880F991F28
:100DE000D6011296ED91FC911397E80FF91F20811F
:100DF0003181890120E030E040E050E060E070E0C7
:100E0000C5010E94421DBFEFEB1AFB0AE0CF892DFE
:100E10002A960FB6F894DEBF0FBECDBFDF91CF91FB
:100E20001F910F91FF90EF90DF90CF90BF90AF9008
:100E30009F907F906F900895EF92FF920F931F9372
:100E4000CF93DF93EC01FA01E080F180FB01208178
:100E500030E040E050E062E00E94E41E8823D9F0D8
:100E6000F70120813181890120E030E040E050E04D
:100E700060E070E0CE010E94421DF7014081518187
:100E800062817381CE01DF91CF911F910F91FF900D
:100E9000EF900C940C1D80E0DF91CF911F910F918A
:100EA000FF90EF9008950F931F93CF93DF93FA0174
:100EB000C081D181FC01048115810031110540F40C
:100EC000A801BE010E94AA10882311F0088B02C05D
:100ED000188A80E0DF91CF911F910F910895EF92D2
:100EE000FF920F931F93CF93DF931F92CDB7DEB77F
:100EF0008C01DC01ED91FC910190F081E02D0995D0
:100F0000811145C0D801ED91FC910280F381E02D63
:100F1000C801099581113BC0E12CF12CF8018481B5
:100F20009581DC01ED91FC910480F581E02D09951E
:100F30001816190654F5F80184819581DC01ED91AC
:100F4000FC910680F781E02D09958983BE016F5FD2
:100F50007F4FF801828193810E94001AFFEFEF1A00
:100F6000FF0AD801ED91FC910190F081E02DC801BC
:100F7000099581110AC0D801ED91FC910280F3819D
:100F8000E02DC8010995882349F2C70102C080E01D
:100F900090E00F90DF91CF911F910F91FF90EF9014
:100FA00008950F931F93CF93DF93EC0100E010E0BF
:100FB0008C819D81DC01ED91FC910480F581E02D17
:100FC000099518161906B4F5CE010E946F07080F8F
:100FD000191FE881F9810280F381E02DCE01099586
:100FE000E881F981882351F0AA81BB8154966D91E3
:100FF0007C9155970088F189E02D12C00190F08115
:10100000E02DCE010995882399F2E881F981AA8122
:10101000BB8154966D917C9155970684F785E02DA0
:10102000CE010995E881F9810480F581E02DCE019A
:101030000995BECFC801DF91CF911F910F910895FF
:10104000CF93DF93FC01C081D181633299F048F4E2
:10105000693119F16E3121F1643129F566EE7BE0D9
:101060000EC06D32B9F0623341F06832E1F46DEADE
:101070007BE005C061EB7BE002C060E87BE0CE0175
:101080000E94602EFE0101900020E9F73197EC1BD1
:10109000FD0B0CC069EA7BE0F2CF62EE7BE0EFCFA4
:1010A00068EC7BE0ECCF1882E0E0F0E0BF01CE011D
:1010B000DF91CF910895CF93DF9388ED95E00E9463
:1010C000962565EC7CE08EE097E00E94D3196CEEEB
:1010D0007CE08EE097E00E94D8198CE08093B80005
:1010E000C7E3D0E0D0932B06C0932A0682E396E0B4
:1010F00090932D0680932C0640E052EC61E070E066
:101100008DE697E00E942729D0938E05C0938D0528
:1011100089E696E09093900580938F0588E895E0A6
:1011200090937B0580937A0586E695E0DF91CF91D9
:101130000C94E1190F931F93CF93DF93EC018B0174
:10114000E881F9816F5F7F4F0280F381E02D41E0FC
:1011500050E00995E881F9810280F381E02D41E0BA
:1011600050E0B801CE01DF91CF911F910F9109940A
:10117000EF92FF920F931F93CF93DF93CDB7DEB71C
:1011800062970FB6F894DEBF0FBECDBF8C018BE027
:10119000FB01DE01119601900D928A95E1F71B8605
:1011A0001A86E12CF12C2C813D818A859B85E216E3
:1011B000F30668F4E885F985EE0DFF1D60810E9455
:1011C000D11C9B878A878FEFE81AF80AECCF0E9420
:1011D000E91C9B878A874CE75CE76CE770E04C87EB
:1011E0005D876E877F87D801ED91FC910280F38146
:1011F000E02D43E050E0BE01645F7F4FC8010995D8
:10120000BE016F5F7F4FC8010E949A088B818A8B55
:10121000D801ED91FC910280F381E02D41E050E096
:10122000BE016E5E7F4FC80109958B818436F9F44B
:101230008C819D81998B888BBE01605F7F4FC80137
:101240000E949A084C815D814115510551F0D801E9
:10125000ED91FC91688579850280F381E02DC801CC
:101260000995BE01665F7F4FC8010E949A08629689
:101270000FB6F894DEBF0FBECDBFDF91CF911F91A7
:101280000F91FF90EF900895CF93DF931092260671
:101290001092250610922706109229061092280611
:1012A00010922B0610922A0610922D0610922C06F0
:1012B0008FEF9FEF90932F0680932E0628ED35E059
:1012C0003093D7052093D605C3E9D5E026ED35E068
:1012D00039832883109289051092880510928A0517
:1012E00010928C0510928B0510928E0510928D0530
:1012F0001092900510928F0590939205809391051E
:10130000A6E6B5E01C921092670510927305109244
:10131000720510927505109274051092790510925D
:10132000780510927B0510927A051092870510922D
:101330008605E2E6F5E08DE697E091838083D09321
:101340006505C0936405B0935D05A0935C0590931B
:101350005F0580935E058BE091E090935B05809341
:101360005A05F0936105E0936005DF91CF910895F0
:101370008F929F92AF92BF92CF92DF92EF92FF92A5
:101380000F931F93CF93DF93CDB7DEB7A1970FB61F
:10139000F894DEBF0FBECDBF5C014A018901C901CF
:1013A0000E94C0112C8B3D8B4E8B5F8B688F798F89
:1013B0008A8F9B8F9E01255F3F4FAE014F5F5F4F2E
:1013C000BE01645E7F4FCE0144960E9418138823AD
:1013D00011F16C8D6230D1F4C980DA80EB80FC8031
:1013E000E2E2F3E02081222389F0822F90E0A0E066
:1013F000B0E08C159D05AE05BF0531F48181877085
:1014000019F0822F90E009C03896ECCFCE014496B7
:101410000E946D13CFCF8FEF9FEF7C0121E0E21A86
:10142000F10887E1E816F10408F042C2F701EC5C2C
:10143000FF4F0C94172E2AE235E031C083E597E088
:10144000988B8F87C50102969A8B898B22E335E0B2
:1014500026C022EF34E023C022EE34E020C02AED83
:1014600034E01DC02AEC34E01AC022EC34E017C08E
:101470002AEB34E014C02AEA34E011C022EA34E056
:101480000EC022E934E00BC02AE834E008C02AE7A5
:1014900034E005C022E235E002C022E035E0BE01C2
:1014A0006F5F7F4FCE01449628A339A30E94B313E8
:1014B00028A139A1882379F0AE01455F5F4FB901BA
:1014C000CE0101960E945A17BE016F5F7F4FCE0179
:1014D00044960E94AA15A401B801CE0101960E946B
:1014E000FD1C97E1E916F10408F0E2C1F701E55BA4
:1014F000FF4F0C94172E6B858EE097E00E94B31976
:10150000D50152964C9150E0B5016E5F7F4F8EE051
:1015100097E00E941A198EE097E00E94D019882364
:1015200021F08FEF9FEFDC0167C01C8E1D8E1E8E99
:101530001F8EE12CF12C4AE0A42EB12C41E06B85EA
:101540008EE097E00E94B019813029F08EEF9FEF76
:10155000AFEFBFEF51C08EE097E00E94C8188F3FF9
:1015600051F5B5E0EB16F1042CF461E070E080E099
:1015700090E008C0EAE0EE16F10474F46AE070E06E
:1015800080E090E00E94B0279FEFE91AF90AA5E1F8
:10159000EA16F10499F634C0B7016A507109C50121
:1015A00002C0880F991F6A95E2F7BC01882777FD72
:1015B0008095982FE7CF482F50E060E070E08132AF
:1015C00028F04C8F5D8F6E8F7F8F1AC06C01DD24E9
:1015D0004C8F5D8F6E8F7F8F4C2D6B858EE097E0EB
:1015E0000E94B019E82EF12CEC14FD0411F46801EE
:1015F0000AC0C601A0E0B0E08C8F9D8FAE8FBF8F78
:101600000AE614E033C1C601801B910B8E159F05BD
:1016100040F48EE097E00E94C818F60181936F01B4
:10162000F2CFC70147C120911708309118088DB734
:101630009EB72115310519F48B51984002C0821BC9
:10164000930BAA2797FDA095BA2F8C8F9D8FAE8FF5
:10165000BF8F0AE514E00AC18AE896E09D8F8C8F5F
:10166000B501615C7F4F7F8F6E8FD501ED91FC914D
:1016700020813181D90180E090E0A901480F591FF4
:10168000495B5F4FFA01408150E04D935D930196B5
:101690008630910591F7DB018D939C93F501EF5B0B
:1016A000FF4F318320830AE414E0E0C0D501ED91BF
:1016B000FC912B894F856B85808191810E948F22BF
:1016C00002E414E0D3C0D501ED91FC916B858081DB
:1016D00091810E94C4220AE314E0C8C0D501ED91B3
:1016E000FC916B85808191810E944E2602E314E07B
:1016F000BDC0D501ED91FC910190F081E02D80A954
:1017000090E0A0E0B0E08C8F9D8FAE8FBF8F02E2A3
:1017100014E0ACC0F501008111814B855C856D85BD
:101720007E85D8018D919C910E943A26D801ED9139
:10173000FC9187A990ADA1ADB2AD8C8F9D8FAE8F7E
:10174000BF8F02E114E092C0D501ED91FC910190B0
:10175000F081E02D87A990ADA1ADB2AD8C8F9D8FAA
:10176000AE8FBF8F02E014E081C0D501ED91FC91F6
:101770000190F081E02DFF9680819181A281B3815B
:101780008C8F9D8FAE8FBF8F02EF13E06FC0F5017E
:10179000008111814B855C856D857E85D8018D9199
:1017A0009C910E94AE23D801ED91FC91FF9680811F
:1017B0009181A281B3818C8F9D8FAE8FBF8F02EEFE
:1017C00013E054C0D501ED91FC910190F081E02D22
:1017D000ED5BFF4F80819181A281B3818C8F9D8FC2
:1017E000AE8FBF8F02ED13E041C0F5010081118182
:1017F0004B855C856D857E85D8018D919C910E947D
:101800001B23D801ED91FC91ED5BFF4F808191810D
:10181000A281B3818C8F9D8FAE8FBF8F02EC13E0BE
:1018200025C0D501ED91FC91808191810E945B26BC
:101830006C8F7D8F8E8F9F8F02EB13E017C08CE132
:1018400097E09D8F8C8F8501015C1F4F1F8F0E8F3E
:101850006B85F501808191810E942008D8016D93EC
:101860007D938D939C93139702EA13E062EA72E0F2
:10187000DB018C918823E1F0FB0186819781801741
:10188000910799F4CE0101960E940F1F882381F0E1
:10189000AE01445E5F4FB801CE0101960E948A21DD
:1018A000882331F08F81988505C0685F7F4FE0CF36
:1018B0008FEF9FEFA1960FB6F894DEBF0FBECDBF9E
:1018C000DF91CF911F910F91FF90EF90DF90CF901C
:1018D000BF90AF909F908F900895CF93DF93EC01CE
:1018E000CB016B817C812A81243691F461157105CD
:1018F00079F02F8138854D815E810E94B80997FF6C
:1019000005C08EE68A831C821B8202C09C838B8367
:10191000DF91CF910895E0915A05F0915B05048421
:10192000F585E02D8AE595E00995809131068823BB
:1019300041F063E975E085E296E00E946D0C10923B
:10194000310608950E94D6270E945B08C3EED8E2B4
:101950000E948B0C2097E1F30E94E328F9CF0F93AC
:101960001F93CF93DF938B01FC01C681D7816A81DE
:101970007B81C8010E946D0CB80188819981DF913B
:10198000CF911F910F910C94B8080F931F93CF9391
:10199000DF938C0181E080933106C2E3D6E0CE0173
:1019A000825396408017910734F48EE097E00E94AE
:1019B000C8188993F4CFC80117FF02C080E090E0F7
:1019C000909329068093280684E680932706DF916A
:1019D000CF911F910F91089560912806709129066B
:1019E00080913006811117C080913106882359F00B
:1019F000E0910E07F0910F070190F081E02D6FEF5D
:101A00008EE097E009948EE097E00E94471981E00C
:101A1000809330060895AB01552760912C06709194
:101A20002D068EE097E00E941A1910923006089554
:101A300010920D0781E080930B0710920A0761E076
:101A400082E10E94F02661E083E10E94F026E9EB4A
:101A5000F0E080818E7F808380818D7F808388E429
:101A60008093B80085E48093BC000895880F80932C
:101A7000BA000895413208F03FC090910D079111CE
:101A8000FCCF91E090930D0720930B072FEF20934D
:101A9000A0061092E506240F2093E40690930C070D
:101AA00090910C07880F892B80930C0780910A076F
:101AB000813041F410920A0780910C078093BB009B
:101AC00085EC01C085EE8093BC0080910D078130CC
:101AD000E1F38091E506841710F44091E50626EEC7
:101AE00036E0FB01D9018A2F821B841718F48D91EF
:101AF0008193F9CF842F089580E008950F934132A8
:101B000008F046C090910D079111FCCF92E09093A0
:101B10000D0700930B079FEF9093A0061092E50628
:101B20004093E406FB0166EE76E0DB019A2F961BFC
:101B3000941718F491919D93F9CF10920C079091FE
:101B40000C07880F892B80930C0780910A0781303E
:101B500041F410920A0780910C078093BB0085EC3A
:101B600001C085EE8093BC00222321F080910D07F7
:101B70008230E1F38091A0068F3F61F08091A00652
:101B8000803251F08091A006803341F483E007C099
:101B900081E005C080E003C082E001C084E00F91D5
:101BA0000895613298F420910D07243089F46093F0
:101BB000C206FC0184EC96E0DC012A2F281B2617C4
:101BC00018F421912D93F9CF80E0089581E00895D4
:101BD00082E00895909307078093060708959093F5
:101BE000090780930807089585ED8093BC008091D4
:101BF000BC0084FDFCCF10920D07089585EC809306
:101C0000BC0010920D0708951F920F920FB60F920D
:101C100011242F933F934F935F936F937F938F93F1
:101C20009F93AF93BF93EF93FF938091B900887F09
:101C3000803609F49CC068F5883209F45BC090F4E2
:101C4000803109F454C038F4882309F4F5C0883091
:101C500009F44DC0F5C0883109F44CC0803209F454
:101C60005DC0EEC0803409F468C048F4803309F4E4
:101C700055C0883309F0E4C08093A006A8C0803521
:101C800009F44FC0883509F45DC0883409F0D8C024
:101C9000D5C0883909F4C6C0A8F4883709F467C0EC
:101CA00038F4883609F463C0803709F460C0C8C0CE
:101CB000883809F4B7C0803909F45FC0803809F06A
:101CC000BFC05BC0803B09F485C038F4803A09F49A
:101CD00066C0883A09F47EC0B3C0803C09F4A6C04F
:101CE000883C09F4A3C0883B09F489C0A9C080914D
:101CF0000C0710C09091E5068091E406981770F5E6
:101D0000E091E50681E08E0F8093E506F0E0EA5170
:101D1000F94F80818093BB0085EC85C08093A0063D
:101D20008DC0E091E50681E08E0F8093E5068091FD
:101D3000BB00F0E0EA51F94F80839091E506809175
:101D4000E4066DC0E091E50681E08E0F8093E50624
:101D50008091BB00F0E0EA51F94F808380910B073E
:101D600081116CC081E080930A0784EA60C083E03F
:101D700080930D071092A106CFCF8091A1068032EB
:101D800008F050C0E091A10681E08E0F8093A1067B
:101D90008091BB00F0E0EE55F94F8083BDCF80917C
:101DA000A106803230F4E091A106F0E0EE55F94F43
:101DB00010820E94F40D6091A10670E0E091060788
:101DC000F091070782EA96E009951092A1060E9419
:101DD000FE0D36C084E080930D071092C30610926A
:101DE000C206E0910807F091090709958091C206A3
:101DF000811105C081E08093C2061092C406E09173
:101E0000C30681E08E0F8093C306F0E0EC53F94FD8
:101E100080818093BB009091C3068091C206981781
:101E200008F47ACF85E88093BC000AC085EC8093E3
:101E3000BC0010920D0704C01092A0060E94F40D81
:101E4000FF91EF91BF91AF919F918F917F916F9192
:101E50005F914F913F912F910F900FBE0F901F9068
:101E60001895DC011296ED91FC9113974E0F5F1FB0
:101E700013965C934E9312976115710539F0DB014F
:101E8000E417F50719F081918D93FACF81E0089559
:101E9000FC01A281B38114964C911497242F30E059
:101EA00011968C911197982F907C59F4982F9073DC
:101EB000903259F415962C911597249F9001112476
:101EC00004C0903811F422E030E09C919923E1F1B4
:101ED000807329F486819781019697838683CD014B
:101EE0000896938382838481958101969583848368
:101EF00018968C91811110C0808191819383828387
:101F00001582148217821682808591859387828735
:101F100020E030E080E001C081E0A281B381129630
:101F20009C911297A901490F511D22853385240FD9
:101F3000351F3387228713969C91290F311D97FDFA
:101F40003A9535872487089580E00895CF93DF93ED
:101F5000EC018C819D81892B51F48E819F81892B8D
:101F600021F48DE191E09F838E8380E017C0E881AA
:101F7000F98141E050E0CE010995811109C02E811F
:101F80003F81232B91F72BE231E03F832E8306C064
:101F90002C813D81215031093D832C83DF91CF91EC
:101FA00008957F928F929F92AF92BF92CF92DF92CD
:101FB000EF92FF920F931F93CF93DF931F92CDB7B2
:101FC000DEB78C014B01BE016F5F7F4F0E94A60FF1
:101FD000782E8823E1F1898187FD05C0C82ED12C98
:101FE000E12CF12C36C08F77C82ED12CE12CF12CAE
:101FF00087E0A82EB12CBE016F5F7F4FC8010E9401
:10200000A60F882321F18981482F4F7750E060E0A7
:1020100070E00A2C04C0440F551F661F771F0A94F6
:10202000D2F7C42AD52AE62AF72A87FF12C087E00A
:10203000A80EB11CE3E2AE16B104E9F6F801868100
:102040009781892B21F484E391E097838683712C17
:1020500005C0F401C082D182E282F382872D0F9005
:10206000DF91CF911F910F91FF90EF90DF90CF9074
:10207000BF90AF909F908F907F900895CF93DF9304
:10208000CDB7DEB72E970FB6F894DEBF0FBECDBF2B
:102090009C838B839A8389831E821D8218861F826C
:1020A000FC012281AB01420F511D9A015C874B87D5
:1020B0008381280F311D87FD3A953E872D877A87CA
:1020C0006987EB81FC81818190819923A1F1982F0F
:1020D000907C21F58073803121F4AD85BE851C9202
:1020E00002C0803221F141814F708B859C85268111
:1020F0003781473029F4BC01C9010E943E101BC042
:10210000448150E02115310521F0B9010E94672E6C
:1021100012C060E070E00E94702E0DC0903859F43B
:10212000EB85FC85118210828073803221F4ED856D
:10213000FE8511821082CE0101960E94480F811106
:10214000C0CF2E960FB6F894DEBF0FBECDBFDF9185
:10215000CF910895EF92FF920F931F93CF93DF9348
:10216000CDB7DEB760970FB6F894DEBF0FBECDBF18
:102170008C017A016115710501F5DC018D919C914D
:1021800081539F40D1F0F1E1EF16F10470F040E18E
:1021900050E0BE016F5F7F4FC8010E94AA108823E4
:1021A000F1F1E0E1EE1AF108EECFA701BE016F5F99
:1021B0007F4FC8010E94AA1032C0D80114968D9199
:1021C0009C9115978E159F0568F416968D919C919C
:1021D0001797892B29F48DE191E0F8019783868385
:1021E00080E01DC0D801ED91FC91A701C8010995BF
:1021F00081110AC0F80126813781232B89F72BE250
:1022000031E0378326830BC0D80114962D913C9181
:1022100015972E193F0915963C932E9314976096A7
:102220000FB6F894DEBF0FBECDBFDF91CF911F91E7
:102230000F91FF90EF900895CF92DF92EF92FF926F
:102240000F931F93CF93DF9300D000D0CDB7DEB7AD
:102250008C016B017A01BE016F5F7F4F0E94D10F2D
:10226000882379F149815A816B817C81F6018181D2
:10227000807C803841F4F80186819781892B01F5B3
:1022800084E491E010C0F601848190E09A012F5F10
:102290003F4F8217930750F4F80186819781892B6D
:1022A00079F486E591E0978386830AC0B701C80177
:1022B0000E94AA10E981FA81EE0DFF1D108201C073
:1022C00080E00F900F900F900F90DF91CF911F91B2
:1022D0000F91FF90EF90DF90CF900895EF92FF92D3
:1022E0000F931F93CF93DF9300D000D000D0CDB7D2
:1022F000DEB78C017B01BE016F5F7F4F4D835E8334
:102300000E94D10F4D815E81882369F1F70181819F
:10231000807C803841F4F80186819781892B11F502
:1023200084E491E012C089819A81BC016E5F7F4F85
:10233000F701248130E02617370750F4F801868131
:102340009781892B79F486E691E0978386830AC08A
:10235000BA01FB0181939193BF01AC01C8010E94B6
:10236000AA1001C080E026960FB6F894DEBF0FBE1B
:10237000CDBFDF91CF911F910F91FF90EF90089506
:10238000CF93DF93CDB7DEB728970FB6F894DEBFB3
:102390000FBECDBF21E33FE03A8329838B839C832B
:1023A0006D837E8318861F823A81AC0180E0988518
:1023B00028960FB6F894DEBF0FBECDBFDF91CF9148
:1023C00008953F924F925F926F927F928F929F9269
:1023D000AF92BF92CF92DF92EF92FF920F931F9333
:1023E000CF93DF931F92CDB7DEB75C017B01C12C89
:1023F000D12C312C412C512C612C712C812C912C05
:1024000010E0BE016F5F7F4FC5010E94A60FE82F4D
:10241000882309F440C0F9812F2F2F7730E040E066
:1024200050E060E070E080E090E00C2D0E941D2EF6
:10243000322A432A542A652A762A872A982A192B6F
:10244000F7FF11C087E0C80ED11CA6E4CA16D1045C
:10245000C1F6F50186819781892BE1F484E391E04F
:102460009783868317C0D7013C9211964C9211979F
:1024700012965C92129713966C92139714967C9214
:10248000149715968C92159716969C9216971796F8
:102490001C9301C0E0E08E2F0F90DF91CF911F9130
:1024A0000F91FF90EF90DF90CF90BF90AF909F90F3
:1024B0008F907F906F905F904F903F900895CF9254
:1024C000DF92EF92FF920F931F93CF93DF93CDB7DD
:1024D000DEB728970FB6F894DEBF0FBECDBF8C01D4
:1024E0006B017A01BE016F5F7F4F0E94E11188236B
:1024F00061F1F60194819430A1F09830E1F4998172
:10250000F70190839A8191839B8192839C8193832D
:102510009D8194839E8195839F81968398859783DF
:1025200014C009811A812B813C81F701008311833A
:10253000228333830AC0F80186819781892B21F495
:1025400085E791E09783868380E028960FB6F8941C
:10255000DEBF0FBECDBFDF91CF911F910F91FF90D6
:10256000EF90DF90CF900895CF92DF92EF92FF929D
:102570000F931F93CF93DF93CDB7DEB728970FB696
:10258000F894DEBF0FBECDBF8C016B017A01BE0196
:102590006F5F7F4F0E94E1118823D9F1F60194818A
:1025A0009230E9F030F4913051F59981F701908340
:1025B00030C09430D1F0983011F59981F7019083B3
:1025C0009A8191839B8192839C8193839D81948343
:1025D0009E8195839F819683988597831AC02981D0
:1025E0003A81F7013183208314C009811A812B813C
:1025F0003C81F70100831183228333830AC0F801F1
:1026000086819781892B21F485E791E097838683E2
:1026100080E028960FB6F894DEBF0FBECDBFDF91E5
:10262000CF911F910F91FF90EF90DF90CF90089581
:10263000AF92BF92CF92DF92EF92FF920F931F93D0
:10264000CF93DF9300D000D0CDB7DEB78C017B01F4
:102650006A015901F9011082FB011082FA0110820E
:10266000118212821382BE016F5F7F4F0E94D10FD1
:1026700081110AC0F80124813581232BF9F481E00E
:10268000F501808380E01AC009811A812B813C8189
:10269000011511052105310591F3B901A80193E058
:1026A00076956795579547959A95D1F7F6014083AA
:1026B0005183628373830770F70100830F900F903B
:1026C0000F900F90DF91CF911F910F91FF90EF909E
:1026D000DF90CF90BF90AF9008950F931F93CF934B
:1026E000DF9300D000D0CDB7DEB78C016130B1F000
:1026F00050F06230B1F0653019F544E050E01AC096
:10270000998197FF27C041E050E0BE016F5F7F4F86
:10271000C8010E94AA108111F3CF1CC048E050E00C
:1027200009C0BE016F5F7F4F0E94D10F882391F0D7
:1027300049815A8160E070E0C8010E94AA100AC075
:10274000FC0186819781892B21F487E891E09783AA
:10275000868380E00F900F900F900F90DF91CF91C4
:102760001F910F9108958F929F92AF92BF92EF9217
:10277000FF920F931F93CF93DF9300D000D0CDB77C
:10278000DEB78C017B01BE016F5F7F4F0E94D10FCE
:102790008823F1F098E0F801D70101900D929A9505
:1027A000E1F749815A816B817C81F70184809580B2
:1027B000A12CB12C84169506A606B70658F4F8018C
:1027C00086819781892B21F489E991E0978386831B
:1027D00080E00AC0F70155834483F80124813581E4
:1027E000241B350B358324830F900F900F900F908F
:1027F000DF91CF911F910F91FF90EF90BF90AF901D
:102800009F908F9008954F925F926F927F928F92D8
:102810009F92AF92BF92CF92DF92EF92FF920F936F
:102820001F93CF93DF93CDB7DEB762970FB6F894BF
:10283000DEBF0FBECDBF8C017A01FA01A281B38148
:1028400011962C911197822F807C803409F4BDC0A1
:10285000803809F4B1C081115CC1822F8F7090E083
:10286000FC01EE0FFF1FED5EFD4FA080B1802073D5
:10287000203129F0203281F021118FC006C0F701EC
:102880002485358581E0F9018083F70142855385F0
:10289000BD01C801F5013BC1F701C484D584623094
:1028A00009F052C005970CF04FC0BE016F5F7F4F1B
:1028B000C8010E94B313882309F434C18D819E811D
:1028C000892B59F1F60180819181D70112966D9182
:1028D0007C911397FB01258130E082179307E8F480
:1028E000DB0114964C91489F9001499F300D1124B3
:1028F000F70142855385420F531FCE010196F50122
:102900000995882341F0D6018D919C9111970196EC
:102910008D939C93D3CF80E001C081E02B813C81DB
:10292000D80113963C932E9312972F8138851796D2
:102930003C932E9316974D815E81452B09F4F3C08D
:10294000232B09F0EFC018C0F701228533851496B8
:102950006C911497F6018081918115964C91159791
:1029600050E08417950758F0D80116968D919C91E8
:102970001797892B09F0D6C081EB91E018C0AC0104
:102980004F5F5F4FF60151834083689FA001699FAD
:10299000500D1124420F531F7BCFD80116968D91F5
:1029A0009C911797892B09F0BDC080EC91E0179698
:1029B0009C938E931697B6C0F80186819781892BD8
:1029C00009F0B0C084E491E0ABC04284538452016A
:1029D000B2E0AB0EB11CF20180819181892B21F410
:1029E000C8010E946D139FC06230A1F5BE016F5FE8
:1029F0007F4FC8010E94B313882309F493C0D70105
:102A000012966D917C911397D201ED91FC91A501E5
:102A1000CE010196099581110BC0F80126813781FD
:102A2000232B09F07FC023ED31E0378326837BC061
:102A30002D813E81232B19F72B813C81D8011396E0
:102A40003C932E9312972F81388517963C932E93A3
:102A5000169769C0613071F170F06530B9F544E0E6
:102A600050E0BE016F5F7F4FC8010E94AA1024E0B2
:102A7000C22ED12C33C0FE0131963F01C12CD12C86
:102A80004301FFEFCF1ADF0A8BE0C816D10409F427
:102A900049C041E050E0B301C8010E94AA10882358
:102AA00009F440C09FEF691A790AD4018C9187FD1F
:102AB000E7CF16C048E050E0BE016F5F7F4FC8010E
:102AC0000E94AA1038E0C32ED12C08C0F8018681DC
:102AD0009781892B39F587E891E022C0882319F185
:102AE00081E39FE09C878B87CE0101969E878D872F
:102AF000D88ACF861A8A198AD70112966D917C914D
:102B00001397D201ED91FC91A501CE010B96099589
:102B10000AC0F80186819781892B21F480EC91E02D
:102B20009783868380E062960FB6F894DEBF0FBE6F
:102B3000CDBFDF91CF911F910F91FF90EF90DF906C
:102B4000CF90BF90AF909F908F907F906F905F904D
:102B50004F900895FB0122813381FC01338322834E
:102B6000FB0126813781FC013783268308952F924C
:102B70003F924F925F926F927F928F929F92AF920D
:102B8000BF92CF92DF92EF92FF920F931F93CF935A
:102B9000DF93CDB7DEB7E2970FB6F894DEBF0FBE76
:102BA000CDBF7C015E012DE1A20EB11C88E0D501F4
:102BB0001D928A95E9F77A8B698B788B6F871C8ACF
:102BC0001B8A1E8A1D8AFB0182819A01280F311DF2
:102BD000C9013A8F298F2381820F911D27FD9A9574
:102BE0009C8F8B8F588F4F8B412C512C320122247C
:102BF0002394312CD70114968D919C911597892B94
:102C000009F492C09E01275D3F4FAE014B5D5F4FBF
:102C1000BE01665D7F4FC7010E941813811104C079
:102C200089A5811181C07EC04DA15EA16FA178A54B
:102C3000CB88DC88E989FA89808190E0A0E0B0E067
:102C400084179507A607B70731F48181982F9F70E5
:102C5000983009F0B1C0CE010F964FA758AB69ABC1
:102C60007AAB0E94480F8B899C894FA558A969A906
:102C70007AA98C159D05F1F68DA19EA1AFA1B8A5ED
:102C800084159505A605B70508F4F1C0E989FA8908
:102C900081818F70883009F4EFC0CE010F960E94B9
:102CA000480F8B899C898C159D0581F744244A9493
:102CB000542C32018DA19EA1AFA1B8A58BA79CA7D2
:102CC000ADA7BEA784159505A605B70508F4CFC026
:102CD000D70114968D909C9015971AA5E98DFA8DC1
:102CE000C080D180D70114968D919C911597C11405
:102CF000D10409F4B8C08816990609F0B4C0F601E9
:102D0000A081B181ED91FC911197309709F479C0C0
:102D1000012F2BA53CA54DA55EA5B601C7010995C0
:102D200081119DC080E0ADC0CD88DE88E989FA8937
:102D30001181CE010F960E94480F8111F5CF1073BB
:102D400041F4E989FA899081992319F0BFEFCB1AF0
:102D5000DB0A960153E0369527955A95E1F7F50180
:102D6000A501420F531FE417F50771F091919F3FA2
:102D7000D1F3F70126813781232B09F082C023EE9E
:102D800031E0378326837DC0F501E20FF31F6081B8
:102D900070E0F7E0CF22DD2448E050E04C195D09F7
:102DA0002FEF30E002C0359527954A95E2F762177C
:102DB0007307F9F681E065C08073C9F48D899E8937
:102DC00080349105A0F4FC0163E0F695E7956A95DF
:102DD000E1F7EA0DFB1D87709927910102C0220FD0
:102DE000331F8A95E2F7C9019081982B9083AE0139
:102DF000415F5F4F6AA5C7010E9403148111FACE9B
:102E000091CF1496ED91FC911597808190E0A0E010
:102E1000B0E02BA53CA54DA55EA582179307A4079E
:102E2000B507E9F4FA83E983FC83EB831E821D82F4
:102E300018861F82D60112968D919C9113979A87BE
:102E400089879C878B87C60106969E878D87AE01F2
:102E50004F5F5F4F612FC7010E94031461CFF601DE
:102E6000C480D5803FCF8816990609F0C3CE6AA5E5
:102E7000C7010E946D13C2CF4080512C612C712C70
:102E800019CFE2960FB6F894DEBF0FBECDBFDF912B
:102E9000CF911F910F91FF90EF90DF90CF90BF9057
:102EA000AF909F908F907F906F905F904F903F90EA
:102EB0002F900895EF92FF920F931F93CF93DF937C
:102EC00000D0CDB7DEB78C017B01BA01C7014983C1
:102ED0005A830E943E1049815A81B701C8010F9060
:102EE0000F90DF91CF911F910F91FF90EF900C9475
:102EF000B715CF92DF92EF92FF920F931F93CF936C
:102F0000DF93CDB7DEB72A970FB6F894DEBF0FBEBA
:102F1000CDBF8C017B01FB01C680D780BE016F5FF6
:102F20007F4F49875A870E94B31349855A85882362
:102F300049F1F70186819781892B51F4F801868147
:102F40009781892BF1F48AEF91E09783868319C0EA
:102F5000F70181818073B601803229F4CE01019698
:102F60000E945A1704C0CE0101960E94B7152B810A
:102F70003C81F801338322832F8138853783268370
:102F800001C080E02A960FB6F894DEBF0FBECDBF19
:102F9000DF91CF911F910F91FF90EF90DF90CF9035
:102FA0000895AF92BF92CF92DF92EF92FF920F936C
:102FB0001F93CF93DF93CDB7DEB728970FB6F89462
:102FC000DEBF0FBECDBF7B01BE016F5F7F4F0E9492
:102FD000E111F82F882309F45EC0E981AA80BB8043
:102FE000CC80DD800E811F81B8852E2F217030E0CE
:102FF00040E050E060E070E080E090E0A0E00E94FF
:10300000542E41F12E2F3A2D4B2D5C2D6D2D702F0E
:10301000812F9B2F01E00E94382E2095D7012C9301
:10302000309511963C931197409512964C931297B8
:10303000509513965C931397609514966C93149720
:10304000709515967C931597809516968C93169788
:1030500090951FC02E2F3A2D4B2D5C2D6D2D702F6E
:10306000812F9B2F01E00E94382ED7012C931196BF
:103070003C93119712964C93129713965C93139767
:1030800014966C93149715967C93159716968C93BB
:10309000169717969C938F2F28960FB6F894DEBF3D
:1030A0000FBECDBFDF91CF911F910F91FF90EF9099
:1030B000DF90CF90BF90AF900895CF92DF92EF92C4
:1030C000FF920F931F93CF93DF93CDB7DEB728976F
:1030D0000FB6F894DEBF0FBECDBF8C016B017A0135
:1030E000BE016F5F7F4F0E94D117882361F1F60107
:1030F00094819430A1F09830E1F49981F7019083A4
:103100009A8191839B8192839C8193839D819483F7
:103110009E8195839F8196839885978314C00981AA
:103120001A812B813C81F701008311832283338331
:103130000AC0F80186819781892B21F485E791E007
:103140009783868380E028960FB6F894DEBF0FBE83
:10315000CDBFDF91CF911F910F91FF90EF90DF9046
:10316000CF90089544E050E00C94AA10BA010C945A
:10317000B21848E050E00C94AA10BA010C94B918A7
:103180008091420790E020914307821B91090895A6
:103190002091430780914207281750F4E22FF0E076
:1031A000EC5BF84F808190E02F5F209343070895F8
:1031B0008FEF9FEF0895E091430780914207E81752
:1031C00030F4F0E0EC5BF84F808190E008958FEFF1
:1031D0009FEF08950895E0911A07F0911B0730972B
:1031E000E1F030914307209142073217B0F040E000
:1031F000242F30E02617370754F4DC01A20FB31F49
:103200005C91D901AC5BB84F5C934F5FF1CF1092EA
:10321000430760934207CB0109940895E0911C078E
:10322000F0911D07309729F01092200710921F0788
:1032300009940895CF92DF92EF92FF920F931F931C
:10324000CF93DF937C01CB018A0120911E072223BB
:1032500089F0EB016B01C40ED51ECC15DD0569F0BC
:103260006991D701ED91FC910190F081E02DC701AA
:103270000995F3CF642F0E94D10DC801DF91CF9142
:103280001F910F91FF90EF90DF90CF900895CF9313
:10329000DF931F92CDB7DEB7698320911E072223EB
:1032A000D1F020911F07203240F021E030E0FC01F6
:1032B0003383228380E090E015C080912007E82FBF
:1032C000F0E0EF5DF84F998190838F5F8093200746
:1032D00080931F0705C061E0CE0101960E94D10DC9
:1032E00081E090E00F90DF91CF910895FC0113826F
:1032F000128248EE53E060E070E0448355836683B9
:10330000778389E292E09183808308951092430746
:10331000109242071092200710921F070C94180D6C
:10332000CF93DF93EC01862F0E94360D8EE099E15A
:103330000E94EF0D8BEE98E10E94EA0DCE01DF9125
:10334000CF910C948619862F413208F040E264E454
:1033500077E00E943A0D1092430780934207089548
:1033600021E00C94A31981E080931E07609341072C
:103370001092200710921F0708950F93062F21E047
:1033800040911F0761E277E0809141070E947E0D26
:103390001092200710921F0710921E070F91089598
:1033A00061E00C94BD1970931B0760931A07089590
:1033B00070931D0760931C0708958EE097E00C94AE
:1033C0007619FC01A489B58912961C92129714965D
:1033D0001C921E9213978FEF9FEF1A969C938E93D9
:1033E0001997138A128A108A118A1786168611A2D3
:1033F00010A28CE090E093838283178E168E08953E
:103400007F928F929F92AF92BF92CF92DF92EF9274
:10341000FF920F931F93CF93DF931F92CDB7DEB729
:103420008C016115710581F4CE010196D8011596C4
:103430009C938E93149717969C938E931697199638
:103440009C938E93189707C0FC01758364836F5F0C
:103450007F4F77836683D80114962D913C91159701
:1034600016968D919C9117972817390709F470C209
:1034700028E0822E912C77247394D8011296ED9136
:10348000FC9113973197EE30F10508F03BC2EE59ED
:10349000FF4F0C94172ED8015496ED91FC9155973F
:1034A000F184E12CF286E18614968D919C9115971A
:1034B000DC018C919701280F311DC90132872187CA
:1034C000D80152962D913C9153978217930741F45E
:1034D00050967C9250971E968D919C911F9716C086
:1034E000F801718A15C0D8011C968D919C911D9789
:1034F0005496ED91FC91559725813681281739070F
:1035000010F451967C92D80150967C9294838383D8
:10351000F801848195810196958384832681378182
:103520008217930709F4EEC1D8011496ED91FC912E
:10353000159780818C3721F0F8011382128222C204
:10354000D80114968D919C911597019615969C9390
:103550008E93149716962D913C9117978217930787
:1035600009F4D3C1D8011496ED91FC91159780818F
:103570008C3711F7F80184819581019695838483B6
:10358000268137818217930709F4C2C1D8011496A6
:10359000ED91FC91159780818C3771F650961C92B5
:1035A000F8018481958101969583848326813781F2
:1035B0008217930709F4B4C1D8015496ED91FC9198
:1035C00055971182108214968D919C911597DC016C
:1035D0008C9190E091838083F8018481958101969C
:1035E00095838483268137818217930709F49BC1D1
:1035F000D8015496ED91FC91559714968D919C911C
:103600001597DC018C91B080A12C9501282BC90164
:1036100091838083D80114968D919C911597019682
:1036200015969C938E93149716962D913C9117970F
:103630008217930709F47AC1D8011496ED91FC9191
:1036400015978081843679F08E3609F499C08136D9
:1036500009F072CFD8015496ED91FC915597828371
:1036600050967C9255CFD8015496ED91FC91559788
:103670008283F801848195810196958384832681D4
:1036800037818217930709F454C1D80191961C928F
:103690001E9290971D961C921E921C971496ED9167
:1036A000FC911597808190E01D969C938E931C97BA
:1036B000F8018481958101969583848326813781E1
:1036C0008217930709F438C1D8011C96DC901C9727
:1036D000C12C1D96DC92CE921C971496ED91FC9114
:1036E00015978081F601E80FF11DCF011D96FC931F
:1036F000EE931C975496ED91FC9155972581368158
:103700002817390710F451967C92D8015E96ED91F6
:10371000FC915F97CF0101965F969C938E935E9785
:103720003B96EE0FFF1FE00FF11F918280824FC08A
:10373000D80152968D919C9153970E94E91CF801F3
:10374000938B828B0488F589E02D12861186D8012F
:1037500014968D919C911597DC018C9190E0928745
:103760008187F801848195810196958384832681E0
:1037700037818217930709F08ECE89E090E0E5C08B
:10378000D8015496ED91FC9155978283F80184817C
:1037900095810196958384832681378182179307CB
:1037A00009F4CDC0D80114968D919C91159701967E
:1037B00015969C938E93149716962D913C9117977E
:1037C0008217930709F08FCE8BE090E0BEC0F8011E
:1037D0008481958101969583848326813781821720
:1037E000930709F4AFC0D8011F961C921E921E9732
:1037F00053961C921E9252971496ED91FC91159738
:10380000608180E090E00AC0D8011496ED91FC91AF
:103810001597608152968D919C9153970E94D11C6F
:10382000F801938B828B0488F589E02D0780F08561
:10383000E02DD8011E968D919C911F979C012F5FC2
:103840003F4F1F963C932E931E9714962D913C91BB
:103850001597D9012C91E80FF91F2083F8012685CF
:1038600037858485958528173907E9F5068CF78D06
:10387000E02DCF010197D8015F969C938E935E97C0
:103880003A96EE0FFF1FE00FF11F80819181139692
:103890009C938E931297D8011296ED91FC911397F9
:1038A000EF30F10520F4E059FF4F0C94172EF8018A
:1038B000848195810196958384832681378182173F
:1038C000930709F0DACD44C0F8018481958101960F
:1038D00095838483268137818217930709F028CF47
:1038E00088E090E017C0F801848195810196958366
:1038F0008483268137818217930709F085CF8EE074
:1039000090E023C08CE090E005C081E090E01DC015
:1039100082E090E0D80113969C938E93129718C082
:1039200083E090E012C084E090E0F4CF85E090E086
:103930000CC086E090E0EECF87E090E006C08AE021
:1039400090E0E8CF8DE090E0E5CFF80193838283AB
:10395000D80114962D913C91159718968D919C91B4
:1039600019972817390771F412968D919C91139726
:103970000D9741F41F961C921E921E9753961C920F
:103980001E9252970F90DF91CF911F910F91FF9050
:10399000EF90DF90CF90BF90AF909F908F907F90EF
:1039A00008958627682F62956827062E6695669586
:1039B0006025062E669560256770082E892F66950E
:1039C00007946795902D86270694679590258627FE
:1039D00008950895FC01A281B3819D01240F351F34
:1039E00033832283FB01460F571FE417F50719F0B5
:1039F00081918D93FACF81E00895FC018AEE9CE1DC
:103A000091838083738362835583448317821682F4
:103A100011861086CF0108950F931F93CF93DF93E4
:103A2000EC018A01E881F981309701F12E813F8113
:103A3000240F351F8C819D818217930750F4888550
:103A40009985892B21F485E392E09987888780E026
:103A500014C0CE010995811109C028853985232B11
:103A6000B1F72BE231E03987288707C08E819F812B
:103A7000800F911F9F838E8381E0DF91CF911F91F3
:103A80000F9108955F926F927F928F929F92AF9263
:103A9000BF92CF92DF92EF92FF920F931F93CF933B
:103AA000DF93CDB7DEB762970FB6F894DEBF0FBED7
:103AB000CDBF6C01802F0B87912F1C87522E2D8735
:103AC000632E3E87742E4F87852E588B962E698BDA
:103AD000B72F7A8B8C019801452D562D672D782DA7
:103AE000892D9B2FA0E00E94542E21F0FE013196DB
:103AF0007F0106C041E050E0BE01655F7F4F34C0EA
:103B00005F01AE18BF089801452D562D672D782D01
:103B1000892D9B2FA0E00E94542EA9F0802F806851
:103B200081939801452D562D672D782D892D9B2F3A
:103B300007E00E94382E8901542E652E762E872E9E
:103B4000982EB92FDDCF1B861C861D861E861F86EC
:103B5000188A198A1A8AF5013197EE0DFF1D8081A6
:103B60008F778083A501B701C6010E940C1D629664
:103B70000FB6F894DEBF0FBECDBFDF91CF911F917E
:103B80000F91FF90EF90DF90CF90BF90AF909F90FC
:103B90008F907F906F905F9008958F929F92AF92D9
:103BA000BF92CF92DF92EF92FF920F931F93FA0191
:103BB000DB0114962C91243059F0283089F4808050
:103BC0009180A280B380C480D580E680F78012C047
:103BD00080809180A280B380C12CD12C76010AC054
:103BE000FC0120853185232B61F425E731E0318705
:103BF000208707C084019501A601B7010E94421DDC
:103C000001C080E01F910F91FF90EF90DF90CF9067
:103C1000BF90AF909F908F9008950F931F93CF9375
:103C2000FA01DB0114962C912230D9F068F421308E
:103C300091F50081102F110F110B212F312FC12F62
:103C4000B12FA12F712F31C02430B1F0283019F5D8
:103C50000081118122813381C481B581A681778160
:103C600024C011810081212F220F220B322FC22F5D
:103C7000B22FA22F722F19C04081518162817381AE
:103C80008A019B01770F440B542FBA01C42FB42F24
:103C9000A42F742F0AC0FC0120853185232B59F4F1
:103CA00025E731E03187208706C04C2F5B2F6A2F34
:103CB0000E94421D01C080E0CF911F910F91089595
:103CC000DF92EF92FF920F931F93CF93DF93FC014C
:103CD000D22EE32EF42ED52FC62FB72F98014D2DBF
:103CE0005E2D6F2D7D2F8C2F9B2FA0E00E94542ED8
:103CF00064F401E00E941D2E20953095409550956A
:103D000060957095809590950AC098014D2D5E2D17
:103D10006F2D7D2F8C2F9B2F01E00E941D2E89017E
:103D20009A01AB01BC01CF010E94421DDF91CF91EE
:103D30001F910F91FF90EF90DF9008950F931F93C5
:103D4000CF93FA01DB0114962C91243059F02830DE
:103D5000C1F40081118122813381C481B581A681A2
:103D6000778119C040815181628173818A019B01F1
:103D7000770F440B542FBA01C42FB42FA42F742FE4
:103D80000AC0FC0120853185232B59F425E731E059
:103D90003187208706C04C2F5B2F6A2F0E94601E40
:103DA00001C080E0CF911F910F91089544E050E051
:103DB0000C940C1DBA010C94D61E48E050E00C94F3
:103DC0000C1DBA010C94DD1E8F929F92AF92BF9290
:103DD000CF92DF92EF92FF920F931F93FC01A62FD9
:103DE00049015A01A50160E070E080E090E003E045
:103DF0000E941D2E022F242F0A2B132F352FAB01CB
:103E0000BC01CF010E94421D1F910F91FF90EF90C6
:103E1000DF90CF90BF90AF909F908F900895FB015F
:103E200021812F702330A9F090F0243021F0283028
:103E300020F462E00FC061E00DC0FC0120853185F7
:103E4000232B71F420EC31E03187208709C060E03A
:103E500001C065E0208130E040E050E00C94E41EB9
:103E600080E008952F923F924F925F926F927F92DF
:103E70008F929F92AF92BF92CF92DF92EF92FF927A
:103E80000F931F93CF93DF93CDB7DEB72B970FB66A
:103E9000F894DEBF0FBECDBF7C016B015A01DB0180
:103EA00011963C91232F207C203409F4C3C0203884
:103EB00011F02111D6C081E08B87832F8F7090E0A5
:103EC000FC01EE0FFF1FE057FD4F40805180F601CF
:103ED0004381442331F0F501E40FF11D47FDFA95CC
:103EE00002C0FE013B96203849F4D501AD90BC904C
:103EF00041E0A114B10409F440E04B873073303144
:103F000089F0303201F13111ACC0A114B10471F467
:103F1000F70180859185892B09F0B0C083EE91E08F
:103F2000D701A8C08081882309F48BC0B601C701DE
:103F30000E940F1F882309F4A1C0A501B601C70183
:103F4000F2010995DAC0808091808114910409F40E
:103F500078C0203891F0D60115962C9130E02815C4
:103F6000390558F4F70180859185892B09F086C0C1
:103F700081E492E09187808781C005970CF094C01E
:103F8000D6012C9130E040E050E062E0C7010E9491
:103F9000E41E882309F472C0F60181818F7083309A
:103FA00031F43401660C771C660C771C29C0843010
:103FB00039F43401A3E0660C771CAA95E1F720C020
:103FC000CE0101961C018AE0D1011D928A95E9F784
:103FD0008501612C712CA801B601C101F20109957E
:103FE000882309F44BC0D60114968C91080F111D3B
:103FF000BFEF6B1A7B0A6814790469F76F807884C5
:10400000830120E030E040E050E060E070E0C70174
:104010000E94421D882391F1F70180819181892BB3
:1040200079F5A30160E070E0C7010E940C1D8823B0
:1040300029F107C04E5F5F4FD501ED91FC9130979C
:1040400011F481E05AC009958111FBCFF701208559
:104050003185232B09F051C029E532E031872087D3
:104060004CC0D70118968D919C911997892B31F4EA
:1040700080EC91E019969C938E93189780E03DC058
:1040800000E010E0A501B601C701F20109958823FF
:10409000A9F3D60114968C91A80EB11C0F5F1F4F87
:1040A0000815190579F7CDCF00E010E0B601C7017A
:1040B0000E940F1F882311F3F6018181982F907CB5
:1040C0009038C9F48F7090E005970297A0F4D5015D
:1040D0004D915C91B601C701F2010995882371F2F7
:1040E000D60114968C91A80EB11C0F5F1F4F0815B6
:1040F0001905E1F6A6CFA501EDCF2B960FB6F894E2
:10410000DEBF0FBECDBFDF91CF911F910F91FF900A
:10411000EF90DF90CF90BF90AF909F908F907F9067
:104120006F905F904F903F902F9008958F929F9245
:10413000AF92BF92CF92DF92EF92FF920F931F93B5
:10414000CF93DF934C017B015A01EB012896C12CE0
:10415000D12CF7018081882309F457C0FE013697DE
:104160008081C80ED11CAC0CBD1CFE01379780812C
:10417000282F207C203891F0FE0134979081C92EA1
:10418000D12C21110EC0282F2073203251F4FE01B2
:104190003397C080C99E6001112403C002E0C02E85
:1041A000D12C8F70883029F5F5010081118101151E
:1041B000110531F1F801A081B1811296ED91FC91C8
:1041C0001397309721F0B801C40109950AC0F8018E
:1041D0004281538114966D917C911597C4010E9480
:1041E000321F811102C080E011C0F80104811581E5
:1041F000DECFA501B701C4010E94321F882399F3C5
:10420000F8E0EF0EF11C2896A4CF81E0DF91CF916A
:104210001F910F91FF90EF90DF90CF90BF90AF90E4
:104220009F908F900895CF92DF92EF92FF920F931D
:104230001F93CF93DF93EC016B017A018A0120E099
:1042400030E040E050E060E070E00E94421D8823D2
:1042500069F0A701B601CE01DF91CF911F910F91B7
:10426000FF90EF90DF90CF900C940C1D80E0DF91D9
:10427000CF911F910F91FF90EF90DF90CF90089515
:10428000FB01BA0144812181207C203811F050E0EB
:1042900002C04FEF5FEF6115710561F0FB0120E097
:1042A00030E02417350741F0A191AA2329F02F5FB0
:1042B0003F4FF7CF20E030E0A9010C941321FA0121
:1042C000309729F440E050E060E070E01FC0DB016F
:1042D00011962C911197207C40815181211113C09E
:1042E00014962C9130E0BA016E5F7F4F2617370786
:1042F00050F4FC0120853185232B51F428E632E06F
:104300003187208705C0BF016E5F7F4F0C9413215A
:1043100080E008956F927F928F929F92AF92BF92AA
:10432000CF92DF92EF92FF920F931F93CF93DF9381
:10433000CDB7DEB72A970FB6F894DEBF0FBECDBF5C
:104340007C014B013A01CE0101965C018AE0F50146
:1043500011928A95E9F7C5010E949620811106C045
:1043600029853A85F701318720875AC0CF80D884C4
:10437000860120E030E040E050E060E070E0C701FE
:104380000E94421D882309F44AC0F701208131812F
:104390002115310539F4A60160E070E0C7010E94E3
:1043A0000C1D3EC0F701868197818C0D9D1D4481B7
:1043B00055814817590738F480859185892B79F5FF
:1043C00085E392E02AC03A832983F70182819381B1
:1043D0009C838B83DE82CD8218861F821A86198683
:1043E000A301B401C5010E9496204F815885F701B1
:1043F00026813781240F351F378326832B813C810B
:104400003383228329853A85318720874C155D05C2
:1044100039F0232B21F48CE792E09187808780E0AC
:104420002A960FB6F894DEBF0FBECDBFDF91CF91B5
:104430001F910F91FF90EF90DF90CF90BF90AF90C2
:104440009F908F907F906F900895FB016681778198
:104450006115710551F4FC0120853185232B39F458
:104460002AEF31E03187208702C00C948A2180E056
:104470000895CF93DF9390E0FC01E85DF34FA491A2
:10448000B0E0AA0FBB1FA45CB34FFD01C591D4914E
:1044900070E0FB01E85DF34FA491B0E0AA0FBB1FF1
:1044A000A45CB34FFD01A591B491FC01EC5EF34F08
:1044B0008491FB01EC5EF34F6491562F5095782F59
:1044C000709598E041111CC0388120FF02C0382B44
:1044D00001C0372338833C91362B3C933C913523E4
:1044E0003C932695915081F710C0372338833C9137
:1044F000362B3C933C9135233C93220F915029F06D
:10450000388127FFF2CF382BF1CFDF91CF9108957B
:1045100045E150E060E070E08A960C94872EFF92AF
:104520000F931F93CF93DF93EC01062F142FF22EDE
:1045300060E083E00E94F026202F41E065E086E005
:104540000E943922212F41E065E086E00E94392255
:1045500061E083E00E94F026FE01E00FF11DDF0123
:10456000A95BBF4F1C93FF2049F011ABCE01DF9137
:10457000CF911F910F91FF900C948822DF91CF91E2
:104580001F910F91FF9008950F931F93CF93DF9387
:10459000EC01162F45E150E060E070E08A960E9441
:1045A000772E8AA59BA5892B51F48CA59DA5892BD7
:1045B00031F48EA59FA5892B11F4112311F11BA6AF
:1045C0001AA61DA61CA61FA61EA68AE088AB80E818
:1045D00089AB8AAB8BAB8CAB8DAB8EAB4CEE51E524
:1045E00068E97FE34FAB58AF69AF7AAF40E050E086
:1045F00060EE70E44BAF5CAF6DAF7EAFCE010E945A
:10460000882268A98EE097E00E94901900E010E0EF
:10461000FE01E00FF11F20E041A9602FCE010E94B2
:104620008F220F5F1F4F0630110591F7DF91CF9159
:104630001F910F9108958F929F92AF92BF92CF9248
:10464000DF92EF92FF920F931F93CF93DF93EC01D2
:104650006A017B0120E030E0A901C701B6010E9498
:104660008B2A87FD61C08BAC9CACADACBEACA50108
:104670009401C701B6010E94DA2B18160CF454C03D
:10468000FE01ED5BFF4FC082D182E282F382A50181
:104690009401C701B6010E948F2A20E030EC4FE759
:1046A00054E40E94292C6B017C0120E030E0A90138
:1046B0000E94DA2B20E030E040E05FE387FD05C098
:1046C000C701B6010E94272A04C0C701B6010E9493
:1046D000262A0E94F72AFE01E55BFF4F8081AB018D
:1046E00040585A4FFA0194918B0100581E4F89137C
:1046F00008C0F8019491FE01E45BFF4F2081291767
:1047000089F0FA01F4908F1588F4F801449120E0C3
:1047100065E0CE010E948F2220E04F2D64E0CE01A3
:104720000E948F2280E00DC089EF0BC020E04F2D4A
:1047300064E0CE010E948F22F801449120E065E000
:10474000EECFDF91CF911F910F91FF90EF90DF900F
:10475000CF90BF90AF909F908F9008952F923F92EF
:104760004F925F926F927F928F929F92AF92BF9281
:10477000CF92DF92EF92FF920F931F93CF93DF932D
:10478000CDB7DEB72E970FB6F894DEBF0FBECDBF04
:104790009E878D876A017B01FC01FF9640835183D0
:1047A0006283738320E030E040E052E4C701B60149
:1047B0000E94292C4B015C0120E030EE41E854E4DA
:1047C0000E948F2A0E94E92B26EA3BE944E550E447
:1047D0000E94292C2EE83DE543E150E40E948F2AF7
:1047E0000E94FC2A762E70E0665F7F4F882777FD57
:1047F0008095982F0E942A2B9B01AC0160E070E00D
:1048000080E090E40E948C2C20E030EE41E055E402
:104810000E94292CA50194010E948F2A9B01AC01C2
:1048200060E070E080E095E40E94262A4B015C0184
:1048300020E030E0A9010E94DA2B20E030E040E0E7
:104840005FE387FD05C0C501B4010E94272A04C0AB
:10485000C501B4010E94262A0E94F72A5B01CB0100
:1048600076E0969587957A95E1F77294E0EF7E224F
:10487000782A60E082E00E94F026272D41E065E082
:1048800086E00E9439222A2D220F220F226041E069
:1048900065E086E00E94392261E082E00E94F02615
:1048A00020E030E04AE754E4C701B6010E948B2AB9
:1048B00018167CF061E084E00E94F02680E090E031
:1048C000A0E8BFE389839A83AB83BC831C012D01DD
:1048D00016C0AD85BE85D7968D919D910D90BC91EA
:1048E000A02D89839A83AB83BC8360E084E00E941F
:1048F000F026212C312C60E2462E61E4562EC701B1
:10490000B6010E94DE2B4B015C0120E030E048EC58
:1049100052E4C201B1010E94292C0E94DE2B9B01AE
:10492000AC01C501B4010E94262A21E830E840E02C
:104930005CE30E948F2A0E94FC2A062F10E0F801F7
:10494000E058F54FB49020E04B2D61E08D859E85B9
:104950000E948F22F801E058F64F749020E0472D16
:1049600062E08D859E850E948F226B2D70E080E035
:1049700090E00E94282B20E030E04FE753E40E94B3
:104980008F2A20E030E543EC57E40E94292C4B01AC
:104990005C01672D70E080E090E00E94282B20E011
:1049A00030E04FE753E40E948F2A20E030E543ECEB
:1049B00057E40E94292C6D837E838F8398872BED8B
:1049C0003FE049EC50E4C701B6010E94292C6987F9
:1049D0007A878B879C87A20191010E948F2A9B0175
:1049E000AC010E94292CA50194010E94292C2D8143
:1049F0003E814F8158850E94292C2CE03DED49E4F1
:104A000053E30E94292C2FE635EA49EE51E30E9438
:104A1000292C9B01AC0160E070E080E89FE30E94DC
:104A2000262A6B017C012FE635EA49EE51E36985C0
:104A30007A858B859C850E94292CA20191010E9478
:104A40008F2A2B013C012D813E814F815885C50164
:104A5000B4010E94272A9B01AC01C301B2010E944C
:104A6000292C4B015C01A7019601C701B6010E94E8
:104A7000292C6B017C01A5019401C501B4010E94A0
:104A8000292C9B01AC01C701B6010E94272A0E9474
:104A9000DC2C9B01AC0160E070E080E89FE30E94A9
:104AA0008F2A9B01AC0160E070E080E093E40E94FB
:104AB0008F2A29813A814B815C810E94292C6B01CC
:104AC0007C0120E030E0A9010E94DA2B20E030E0F8
:104AD00040E05FE387FD05C0C701B6010E94272AB9
:104AE00004C0C701B6010E94262A0E94F72A20E0CE
:104AF000462F60E08D859E852E960FB6F894DEBF1A
:104B00000FBECDBFDF91CF911F910F91FF90EF901E
:104B1000DF90CF90BF90AF909F908F907F906F90DD
:104B20005F904F903F902F900C948F22CF92DF9206
:104B3000EF92FF920F931F93CF93DF93EC0161E00D
:104B400082E00E94B72661E083E00E94B72661E020
:104B500084E00E94B72661E085E00E94B72661E00C
:104B600086E00E94B72660E0CE010E94C42240E0A9
:104B700050E06AE774E4CE010E94AE23CBACDCAC1B
:104B8000EDACFEAC20E030E0A901C701B6010E9407
:104B90008B2A87FD66C0FE01ED5BFF4F10821182FC
:104BA00012821382A701960160E070E0CB010E949F
:104BB0008F2A20E030EC4FE754E40E94292C6B014F
:104BC0007C0120E030E0A9010E94DA2B20E030E0F7
:104BD00040E05FE387FD05C0C701B6010E94272AB8
:104BE00004C0C701B6010E94262A0E94F72AFE01CE
:104BF000E55BFF4F8081AB0140585A4FFA01949119
:104C00008B0100581E4F891308C0F8019491FE01D2
:104C1000E45BFF4F2081291721F1FA01F4908F15F1
:104C200058F4F801449120E065E0CE010E948F2203
:104C300020E04F2D64E00AC020E04F2D64E0CE015B
:104C40000E948F22F801449120E065E0CE01DF91BF
:104C5000CF911F910F91FF90EF90DF90CF900C9428
:104C60008F22DF91CF911F910F91FF90EF90DF90F6
:104C7000CF900895CF93DF93EC014FAB58AF69AF5E
:104C80007AAF0E948822FE01FF96408151816281A5
:104C90007381CE01DF91CF910C94AE23CF93DF933C
:104CA000EC0168AB8EE097E00E949019CE01DF9195
:104CB000CF910C948822EF92FF920F931F93CF9382
:104CC000DF93F8EEEF2EF3E0FF2E00E010E0CFEFE1
:104CD000D3E080E00E9426278C179D0708F4EC01A2
:104CE0000817190708F48C0181E0E81AF108E114AB
:104CF000F10479F7B8016C1B7D0B80E090E00E9415
:104D0000282B2AE038E240EA5BE30E94292CDF915D
:104D1000CF911F910F91FF90EF900895833081F014
:104D200028F4813099F08230A1F008958630A9F0FE
:104D30008730B9F08430D1F4809180008F7D03C03A
:104D4000809180008F7780938000089584B58F775D
:104D500002C084B58F7D84BD08958091B0008F77A7
:104D600003C08091B0008F7D8093B0000895CF93F1
:104D7000DF9390E0FC01EC5EF34F2491FC01E85DD1
:104D8000F34F8491882349F190E0880F991FFC012B
:104D9000EA5BF34FA591B491845C934FFC01C591FC
:104DA000D4919FB7611108C0F8948C91209582230B
:104DB0008C93888182230AC0623051F4F8948C91DC
:104DC000322F309583238C938881822B888304C073
:104DD000F8948C91822B8C939FBFDF91CF91089593
:104DE0000F931F93CF93DF931F92CDB7DEB7282F7A
:104DF00030E0F901E050F44F8491F901EC5EF34F9B
:104E00001491F901E85DF34F04910023C9F0882360
:104E100021F069830E948E266981E02FF0E0EE0F79
:104E2000FF1FE45CF34FA591B4919FB7F8948C9168
:104E3000611103C01095812301C0812B8C939FBF0A
:104E40000F90DF91CF911F910F9108958E3008F050
:104E50008E5087702091060190E4299F90011124C3
:104E6000822B80937C0080917A00806480937A000A
:104E700080917A0086FDFCCF8091780020917900A6
:104E800090E0922B08951F920F920FB60F9211246B
:104E90002F933F938F939F93AF93BF938091650719
:104EA00090916607A0916707B091680730916407F9
:104EB00023E0230F2D3720F40196A11DB11D05C05D
:104EC00026E8230F0296A11DB11D2093640780934D
:104ED000650790936607A0936707B0936807809172
:104EE000690790916A07A0916B07B0916C070196D2
:104EF000A11DB11D8093690790936A07A0936B076A
:104F0000B0936C07BF91AF919F918F913F912F917B
:104F10000F900FBE0F901F9018953FB7F894809197
:104F2000690790916A07A0916B07B0916C0726B54D
:104F3000A89B05C02F3F19F00196A11DB11D3FBFD1
:104F40006627782F892F9A2F620F711D811D911D61
:104F500042E0660F771F881F991F4A95D1F7089581
:104F6000CF92DF92EF92FF92CF93DF936B017C01A0
:104F70000E948D27EB01C114D104E104F10479F002
:104F80000E948D276C1B7D0B683E7340A0F381E06F
:104F9000C81AD108E108F108C851DC4FECCFDF9105
:104FA000CF91FF90EF90DF90CF900895789484B5E3
:104FB000826084BD84B5816084BD85B5826085BD15
:104FC00085B5816085BDEEE6F0E0808181608083FB
:104FD000E1E8F0E0108280818260808380818160DE
:104FE0008083E0E8F0E0808181608083E1EBF0E0A5
:104FF000808184608083E0EBF0E080818160808349
:10500000EAE7F0E080818460808380818260808331
:105010008081816080838081806880831092C1005C
:105020000895FC0124853585F901E05CFF4F8081FE
:105030009181F901EE5BFF4F20813181821B930B3F
:105040008F7399270895FC0184859585FC01E05CA8
:10505000FF4F40815181FC01EE5BFF4F2081318188
:105060004217530741F00190F081E02DE80FF91F3E
:10507000808190E008958FEF9FEF0895FC01848573
:105080009585FC01E05CFF4F40815181FC01EE5BA6
:10509000FF4F208131814217530779F0A081B18100
:1050A000A80FB91F8C91208131812F5F3F4F2F7343
:1050B00033273183208390E008958FEF9FEF089589
:1050C000FC0181A1882329F0A489B5898C9186FFF0
:1050D000FBCF11A20895CF93DF93FC01268537857E
:1050E000D901A05CBF4F8D919C91119701968F7350
:1050F0009927E901CE5BDF4F4881598184179507D5
:10510000D9F30D90BC91A02DA20FB31F6C93A6856F
:10511000B785A05CBF4F11969C938E93A689B789E3
:105120002C9181E090E0078C02C0880F991F0A94AF
:10513000E2F7282B2C9381E081A30488F589E02DE8
:1051400080818064808381E090E0DF91CF91089539
:1051500008951F920F920FB60F9211242F933F9331
:105160004F938F939F93EF93FF938091C00082FDA5
:105170001CC04091C60080911308909114080196BC
:105180008F7399272091150830911608821793077D
:1051900071F0E0911308F0911408ED52F84F40833C
:1051A000909314088093130802C08091C600FF9169
:1051B000EF919F918F914F913F912F910F900FBE43
:1051C0000F901F9018958DE697E00E941128892B6B
:1051D00011F00C94A82808951F920F920FB60F9209
:1051E00011242F933F938F939F93EF93FF932091DD
:1051F000CF073091D0078091D1079091D20728171F
:10520000390731F48091C1008F7D8093C10014C0B3
:10521000E091D107F091D207E157F84F20818091BA
:10522000D1079091D20701968F7399279093D20757
:105230008093D1072093C600FF91EF919F918F91AA
:105240003F912F910F900FBE0F901F901895CF9206
:10525000DF92EF92FF92CF93DF93EC016A017B0123
:10526000411581EE580761057105F9F0EC89FD895A
:1052700081E090E008A002C0880F991F0A94E2F72D
:10528000808360E079E08DE390E0A70196010E94C1
:10529000F52D21503109410951095695479537950A
:1052A0002795211580E1380798F0EC89FD89108257
:1052B00060E874E88EE190E0A70196010E94F52D68
:1052C0002150310941095109569547953795279540
:1052D000E889F9893083EA89FB89208319A2EE895C
:1052E000FF89408181E090E09C010C8C02C0220F7C
:1052F000331F0A94E2F7422B4083EE89FF894081F5
:105300009C010D8C02C0220F331F0A94E2F7422B3E
:105310004083EE89FF8940819C010E8C02C0220FE0
:10532000331F0A94E2F7422B4083EE89FF892081E4
:105330000F8C02C0880F991F0A94E2F78095822390
:105340008083DF91CF91FF90EF90DF90CF90089511
:105350001092700710926F0788EE93E0A0E0B0E023
:105360008093710790937207A0937307B0937407AB
:105370008EE495E090936E0780936D0783ED97E040
:1053800090937A07809379078FE897E090937C0752
:1053900080937B0785EC90E090937E0780937D0758
:1053A00084EC90E09093800780937F0780EC90E0FE
:1053B000909382078093810781EC90E0909384071B
:1053C0008093830782EC90E0909386078093850713
:1053D00086EC90E0909388078093870784E0809321
:1053E000890783E080938A0787E080938B0785E0B5
:1053F00080938C0781E080938D070895CF92DF9290
:10540000EF92FF920F931F93CF93DF936C017A017A
:10541000EB01E60EF71E00E010E0CE15DF0561F0AF
:105420006991D601ED91FC910190F081E02DC601CA
:105430000995080F191FF1CFC801DF91CF911F9176
:105440000F91FF90EF90DF90CF9008955058BB27B9
:10545000AA270ED075C166D130F06BD120F031F49F
:105460009F3F11F41EF45BC10EF4E095E7FB51C1C0
:10547000E92F77D180F3BA1762077307840795077E
:1054800018F071F49EF58FC10EF4E0950B2EBA2F33
:10549000A02D0B01B90190010C01CA01A00111243A
:1054A000FF27591B99F0593F50F4503E68F11A16E6
:1054B000F040A22F232F342F4427585FF3CF469577
:1054C00037952795A795F0405395C9F77EF41F1699
:1054D000BA0B620B730B840BBAF09150A1F0FF0F63
:1054E000BB1F661F771F881FC2F70EC0BA0F621F4F
:1054F000731F841F48F4879577956795B795F7953F
:105500009E3F08F0B3CF9395880F08F09927EE0FD0
:10551000979587950895D9D008F481E008950CD027
:105520000FC107D140F0FED030F021F45F3F19F0F9
:10553000F0C0511139C1F3C014D198F39923C9F3C4
:105540005523B1F3951B550BBB27AA276217730789
:10555000840738F09F5F5F4F220F331F441FAA1F3D
:10556000A9F333D00E2E3AF0E0E830D091505040FD
:10557000E695001CCAF729D0FE2F27D0660F771FAB
:10558000881FBB1F261737074807AB07B0E809F08D
:10559000BB0B802DBF01FF2793585F4F2AF09E3F22
:1055A000510568F0B6C000C15F3FECF3983EDCF3F4
:1055B000869577956795B795F7959F5FC9F7880F9B
:1055C000911D9695879597F90895E1E0660F771FED
:1055D000881FBB1F621773078407BA0720F0621B7E
:1055E000730B840BBA0BEE1F88F7E095089504D077
:1055F0006894B111D9C00895BCD088F09F5790F03D
:10560000B92F9927B751A0F0D1F0660F771F881FE7
:10561000991F1AF0BA95C9F712C0B13081F0C3D002
:10562000B1E00895C0C0672F782F8827B85F39F0A0
:10563000B93FCCF3869577956795B395D9F73EF446
:1056400090958095709561957F4F8F4F9F4F0895EE
:10565000E89409C097FB3EF490958095709561950C
:105660007F4F8F4F9F4F9923A9F0F92F96E9BB27C2
:105670009395F695879577956795B795F111F8CF3E
:10568000FAF4BB0F11F460FF1BC06F5F7F4F8F4FA9
:105690009F4F16C0882311F096E911C0772321F09F
:1056A0009EE8872F762F05C0662371F096E8862F37
:1056B00070E060E02AF09A95660F771F881FDAF78E
:1056C000880F9695879597F90895990F0008550FBB
:1056D000AA0BE0E8FEEF16161706E807F907C0F078
:1056E00012161306E407F50798F0621B730B840B80
:1056F000950B39F40A2661F0232B242B252B21F45A
:1057000008950A2609F4A140A6958FEF811D811DF9
:10571000089597F99F6780E870E060E008959FEF33
:1057200080EC089500240A94161617061806090638
:10573000089500240A941216130614060506089507
:10574000092E0394000C11F4882352F0BB0F40F48F
:10575000BF2B11F460FF04C06F5F7F4F8F4F9F4FCF
:10576000089557FD9058440F551F59F05F3F71F051
:105770004795880F97FB991F61F09F3F79F08795B8
:105780000895121613061406551FF2CF4695F1DF41
:1057900008C0161617061806991FF1CF86957105D1
:1057A000610508940895E894BB2766277727CB0105
:1057B00097F908958ADF08F48FEF08950AD029ED4C
:1057C0003BE54EED5EE345C00EF065C1A8CF6894A1
:1057D000A0CFCFDFC8F39923D1F3C6F3DF93CF93E4
:1057E0001F930F93FF92C92FDD2788232AF021975B
:1057F000660F771F881FDAF720E030E040E85FEBA4
:105800009FE3883920F0803E30F021968F771FDEAD
:10581000EEEFF0E003C01BDEEBE2F1E051D18B01D3
:10582000BE01EC01FB2E6F5771097595771F880B30
:10583000990B10DF28E132E741E35FE316D0AF2D8B
:105840009801AE01FF900F911F91CF91DF9110DE73
:1058500077CF0BD075CF66DF28F06BDF18F095237C
:1058600009F057CF5CCF11249FCF7BDFA0F3959F2A
:10587000D1F3950F50E0551F629FF001729FBB2737
:10588000F00DB11D639FAA27F00DB11DAA1F649FE3
:105890006627B00DA11D661F829F2227B00DA11D96
:1058A000621F739FB00DA11D621F839FA00D611D1C
:1058B000221F749F3327A00D611D231F849F600D3D
:1058C000211D822F762F6A2F11249F5750408AF076
:1058D000E1F088234AF0EE0FFF1FBB1F661F771F02
:1058E000881F91505040A9F79E3F510570F011CF8D
:1058F0005BCF5F3FECF3983EDCF386957795679539
:10590000B795F795E7959F5FC1F7FE2B880F911D1F
:105910009695879597F90895FA01EE0FFF1F309637
:105920002105310599F16115710561F48038BFE3F6
:105930009B0749F168949038810561F08038BFEF8A
:105940009B0741F0992342F5FF3FE1053105210511
:1059500011F1E8940894E795D901AA2329F4AB2F13
:10596000BE2FF85FD0F310C0FF5F70F4A695E0F78C
:10597000F73950F019F0FF3A38F49F779F930CD025
:105980000F9007FC905808953EF0C9CE60E070E09B
:1059900080E89FE308954FE79F775F934F933F938E
:1059A0002F9317DF2F913F914F915F9152DF47C0A7
:1059B00011F40EF4B4CE6FC0DCDED0F39923D9F32A
:1059C000CEF39F57550B87FF74D00024A0E640EA22
:1059D000900180585695979528F4805C660F771F44
:1059E000881F20F026173707480730F4621B730B17
:1059F000840B202931294A2BA6951794079420253A
:105A000031254A2758F7660F771F881F20F0261781
:105A10003707480730F4620B730B840B200D311DE0
:105A2000411DA09581F7B901842F9158880F969553
:105A30008795089519F40EF06CCEB5CE70CE99DE30
:105A4000C8F39638C0F707F80F92E8942BE33AEAC8
:105A500048EB5FE70CDF0F920F920F924DB75EB7E6
:105A60000F9290D0E8E5F1E02BD04F915F91EF914C
:105A7000FF91E595EE1FFF1F49F0FE57E0684427B0
:105A8000EE0F441FFA95E1F74195550B47D00F9063
:105A900007FE3BC008959F3F31F0915020F4879559
:105AA00077956795B795880F911D9695879597F986
:105AB000089591505040660F771F881FD2F70895C0
:105AC000DF93CF931F930F93FF92EF92DF927B01AF
:105AD0008C01689405C0DA2EEF01C7DEFE01E89460
